:1000000000180020C1000000610B0000250B00005B
:10001000250B0000250B0000250B0000250B000020
:10002000250B0000250B0000250B0000610B0000D4
:10003000610B0000250B0000610B0000C91B0000D4
:10004000610B0000610B0000610B0000610B000000
:10005000610B0000610B0000610B0000610B0000F0
:10006000610B0000610B0000610B0000610B0000E0
:10007000A5100000610B0000610B0000951B000043
:10008000610B0000610B0000610B0000610B0000C0
:10009000610B0000610B0000610B0000610B0000B0
:1000A000B1170000610B0000610B0000610B000044
:1000B000610B0000610B00008D1B0000611B000044
:1000C000F8B500F050FD454A454B1A60454A464B8D
:1000D0001A60464A464B1A600823464A117819426C
:1000E00002D011780B4313702A22434B43481A70F5
:1000F00000234349434C1A188A4268D30021424BDB
:10010000424A934267D30023414C424A99581951BD
:100110000433C02BFAD1403B00220327FF269C4624
:1001200093083D4910009B005B1831003840C00027
:1001300081401D6801328D43290065468540294371
:100140001960202AECD1354B6A321C60344B1A708E
:10015000344B663A5A707C321A709E3A9979114241
:10016000FCD0102299791142FCD10C219A790A40D5
:10017000082AFBD1053A1A713D325A71203A997911
:100180001142FCD0402299791142FCD02649274ADD
:10019000116020220C211A709A790A400C2AFBD196
:1001A000234A244B1A60244A244B1A600022244B11
:1001B0001A60244B07321A60234A244B1A6062B635
:1001C00001F0D8FE00F0D6FC00F06CF9FEE7E5582F
:1001D000043315608FE702C393E7C046300004F094
:1001E00034800440823F0000388004400100000F4A
:1001F0003C80044002D0074000E00740C0F9FF1FE8
:1002000054FBFF1F3C21000054FBFF1FAC020020E9
:1002100000F9FF1F0000000000E400E008ED00E02E
:100220000050064000400640000001104480044099
:10023000C0000505048004407FBB000014E000E01E
:1002400018E000E010E000E00000202020ED00E0D9
:10025000FFFFFFFFFFFFFFFFFFFFFFFFFFFFFFFFAE
:10026000FFFFFFFFFFFFFFFFFFFFFFFFFFFFFFFF9E
:10027000FFFFFFFFFFFFFFFFFFFFFFFFFFFFFFFF8E
:10028000FFFFFFFFFFFFFFFFFFFFFFFFFFFFFFFF7E
:10029000FFFFFFFFFFFFFFFFFFFFFFFFFFFFFFFF6E
:1002A000FFFFFFFFFFFFFFFFFFFFFFFFFFFFFFFF5E
:1002B000FFFFFFFFFFFFFFFFFFFFFFFFFFFFFFFF4E
:1002C000FFFFFFFFFFFFFFFFFFFFFFFFFFFFFFFF3E
:1002D000FFFFFFFFFFFFFFFFFFFFFFFFFFFFFFFF2E
:1002E000FFFFFFFFFFFFFFFFFFFFFFFFFFFFFFFF1E
:1002F000FFFFFFFFFFFFFFFFFFFFFFFFFFFFFFFF0E
:10030000FFFFFFFFFFFFFFFFFFFFFFFFFFFFFFFFFD
:10031000FFFFFFFFFFFFFFFFFFFFFFFFFFFFFFFFED
:10032000FFFFFFFFFFFFFFFFFFFFFFFFFFFFFFFFDD
:10033000FFFFFFFFFFFFFFFFFFFFFFFFFFFFFFFFCD
:10034000FFFFFFFFFFFFFFFFFFFFFFFFFFFFFFFFBD
:10035000FFFFFFFFFFFFFFFFFFFFFFFFFFFFFFFFAD
:10036000FFFFFFFFFFFFFFFFFFFFFFFFFFFFFFFF9D
:10037000FFFFFFFFFFFFFFFFFFFFFFFFFFFFFFFF8D
:10038000FFFFFFFFFFFFFFFFFFFFFFFFFFFFFFFF7D
:10039000FFFFFFFFFFFFFFFFFFFFFFFFFFFFFFFF6D
:1003A000FFFFFFFFFFFFFFFFFFFFFFFFFFFFFFFF5D
:1003B000FFFFFFFFFFFFFFFFFFFFFFFFFFFFFFFF4D
:1003C000FFFFFFFFFFFFFFFFFFFFFFFFFFFFFFFF3D
:1003D000FFFFFFFFFFFFFFFFFFFFFFFFFFFFFFFF2D
:1003E000FFFFFFFFFFFFFFFFFFFFFFFFFFFFFFFF1D
:1003F000FFFFFFFFFFFFFFFFFFFFFFFFFFFFFFFF0D
:10040000FFFFFFFFFFFFFFFFFFFFFFFFDEF9FFFF23
:1004100010B5064C2378002B07D1054B002B02D0DA
:10042000044800E000BF0123237010BD54FBFF1FF0
:10043000000000003C210000084B10B5002B03D049
:100440000749084800E000BF07480368002B00D1B7
:1004500010BD064B002BFBD09847F9E700000000C9
:1004600058FBFF1F3C21000054FBFF1F0000000051
:1004700037B5012401AD2100280000F0F5FD210071
:10048000280000F07FFD2B780D2B03D121000448BC
:1004900000F078FD00F0CCFD0028EBDC37BDC04655
:1004A000CA20000010B586B000F0CAF900F050F87C
:1004B00000F04AFCE120400200F0E8FC124800F0A5
:1004C00029FD0721114800F05DFD114B02221B6838
:1004D00001AC00936B462000991801F0F5F90D4B23
:1004E00069461B68042202A8009301F0EDF900237D
:1004F0002000237301F0E6F80721074800F042FDD1
:1005000001F0E2FAFCE7C04671040000DE1F0000C3
:100510005C80044060800440E61F0000094B0A4AEA
:100520001B5C1021580609D51068014311601F2279
:10053000134021321343054A136070471068884303
:100540001060F4E7EE1F00000CB0034000B0034061
:1005500038220D4B80211A600C4B353A1A600C4B37
:10056000023A1A600B4B03321A6080220A4B0902CE
:100570000A481960036812061B021B0A1343036032
:10058000074B19607047C04608B003400CB00340E9
:1005900020B0034024B0034080E200E00CE400E01F
:1005A00000E100E043B230B5002B01DA7338C0B28D
:1005B00000231449CB56002B0DD1134B1C78FE2C75
:1005C00009D1023C1C70114B9D3C1C608023104CD7
:1005D00025682B432360102804D101230D4C257876
:1005E0002B432370002A0CD072B60C254C780B1DBF
:1005F00065435B191A60002201345A6018724C700E
:1006000062B630BD70FBFF1FC0F9FF1F00B0034092
:1006100024B0034002D00740F7B5009072B60C2317
:1006200000279C46144E0C36134B5A78974209DB30
:1006300062B6009B102B04D10121104A13788B4322
:100640001370F7BD337800998B420DD161463300AA
:1006500051430B4C0C396118083B019101998B42B5
:1006600005D1054B013A5A7001370C36DCE71C0006
:100670000C3423CC23C3F1E770FBFF1F02D00740EB
:1006800074FBFF1F10B572B60E4B1A78FE2A04D108
:10069000187062B6FFF742FF10BD0B4A13006433B7
:1006A0001B780133DBB2072B00D900231100653121
:1006B0000978994204D0110064326631C85413702D
:1006C00062B6E9E7C0F9FF1F70FBFF1FF8B52E49BE
:1006D00004000E782D4AFC2E4BD12D482D4B1B6863
:1006E00007682D48DB1906682C489B1905682C48BB
:1006F0005B1900682B4D1B189BB22B485B0803430A
:100700009BB22B60294B2A4D1B682D68AC46294DA6
:1007100063442F68284DDB192E68284D9B192D68DE
:10072000FD265B199BB25B08034325489BB203601F
:1007300001230025137072B610001700653064376E
:1007400003783F789F421AD00133DBB2072B14D8CD
:1007500003701000653213786630C05C087062B6B2
:10076000FFF7DCFE1F226B0115401D433000258082
:10077000F8BD144B1D68ADB2DDE70023E8E7FE23AA
:100780000B7062B6EEE7C046C0F9FF1F70FBFF1F9B
:1007900048B003404CB0034044B003403CB0034079
:1007A00038B003402CB003400080FFFF6CB0034022
:1007B00068B0034064B003405CB0034058B00340ED
:1007C00030B0034010B0034010B572B6FE200A4AA4
:1007D0000A4900230870110064310B701100653163
:1007E0000B701F2113705370054A1160054A136086
:1007F000FFF7AEFE62B610BD70FBFF1FC0F9FF1F12
:1008000000B0034024B0034070B572B600250B4E13
:10081000341D73789D4201DB62B670BD6368226847
:100820000133934292411340636004D162B6207A4F
:10083000FFF728FF72B601350C34EAE770FBFF1FA3
:10084000802210B552000021014801F0C0FB10BD0C
:10085000E0FBFF1F72B600230748C25C002A06D1E6
:100860000132C25404309B01C01862B67047013394
:10087000042BF2D10020F8E7E0FBFF1F3F21064ADE
:10088000131DC31AD8170840C018801172B6002370
:10089000135462B67047C046E0FBFF1F43065B0F70
:1008A000032B07D8044A9B009B580F22104080005E
:1008B00018187047014BF8E70020000000D00440F2
:1008C000F7B51600002200243A4B00919A56591CA5
:1008D000944232DB01D1621C1A70002C10D18022AC
:1008E000354B3649D2051A600A60802280271206ED
:1008F000334D1A602B883F043B4313432B600A603F
:10090000304A1018057CABB201936B065B0F032BCA
:1009100019D89B00D318DA6A0F21012329408B4094
:100920000099002911D151699943516173071DD470
:100930008127330718D4802716E00D5DFF2DCCD01A
:100940000134E4B2C4E7204AE6E751690B4353613E
:10095000009B012BEAD1330705D42800FFF79EFF47
:1009600080235B001DE0A0277F0001E00427FF3704
:100970002800FFF793FF009B0760002B12D1303354
:100980001E420FD050331D430195009BF20601D546
:1009900090231B03B20602D5A02212031343026860
:1009A000134303606A46034B1279013320001A5542
:1009B000FEBDC046E4FCFF1F80E200E000E100E075
:1009C0001CE400E00020000000F10F40FF2210B501
:1009D0000E4B01331C5C1A542000FFF75FFF80238D
:1009E0005B0403600F230122234064069A40640FD6
:1009F000032C08D8064BA4001C19E36A9A605969B5
:100A00009143596110BD034BF8E7C046E4FCFF1F5A
:100A10000020000000F10F400B4B01331A5C53061D
:100A20005B0F032B0ED809489B00C318DB6A180024
:100A30000830002900D0181D0F231A400E3B9340A8
:100A400003607047024BF2E7E4FCFF1F0020000048
:100A500000F10F400B4B01331A5C53065B0F032B65
:100A60000DD809499B00CB18DB6A18690F231A407F
:100A70000E3B93401840431E9841C0B27047034B51
:100A8000F3E7C046E4FCFF1F0020000000F10F4028
:100A9000F8B50027802600240B4D7604EF5701356A
:100AA000BC4201DBFF200CE0605D43B2002B09DAA1
:100AB000FFF7F4FE0368334204D003681E43066068
:100AC000E0B2F8BD0134EBE7E4FCFF1F10B50024F1
:100AD00000220D4B9A5694420CDB00221A708022A1
:100AE0000A490B4BD2050A601A60802212060A607E
:100AF0001A6010BD0133E35CFF2B02D0E0B2FFF7B8
:100B000065FF0134E4E7C046E4FCFF1F80E100E03C
:100B100080E200E0024A1368013313607047C04668
:100B20001CFDFF1F70B580258026ED02F6000B4CE2
:100B300023682B4201D000F03BFE2368334201D0F2
:100B400000F0B0FA23681B0501D500F009F823680E
:100B5000DB04ECD500F004F8E9E7C046348004403B
:100B600010B5FFF7DFFF0022014B1A607047C04647
:100B70000081044070470A49030010B50868002B43
:100B80000BD06A46074CC3181219934206D301F0E2
:100B9000EBF90C2303600120404210BD0B60FCE721
:100BA000C4F9FF1F00FEFFFF0020704701204042F4
:100BB000704780239B0100204B60704701207047E5
:100BC000012040427047FEE7FEE70078434258416B
:100BD0007047012303707047EFF31380002821D181
:100BE000EFF31083002B19D1EFF30582002A16D002
:100BF0000F2A0BD91300103B0C499B089B005B1874
:100C000003210A408A401B68D340DBB2EFF3118214
:100C1000002A02D0934200D91300180070478023A5
:100C20005B00F3E701204042F8E7C04600E400E043
:100C300010B5022803D8002802D1052902D910BD19
:100C40000129FCD82424930700D40434044B8000E9
:100C5000C358C9000C31591800230B600C60EEE733
:100C60003C200000F8B509281DD8460000200E4B96
:100C70000E4F9B199C89E50A814208D003232B4023
:100C80005B00F85A01304843094900F0F7FF03239D
:100C9000640B02349C401D40034BAD005B5906378A
:100CA0001C19B8532060F8BD3C20000000FDFF1F58
:100CB000FF7F0000F8B51E4B05004808C01814005F
:100CC00000F0DCFF802200235202904229D8002845
:100CD00000D101300138174E6A0080B290530722CC
:100CE0001340E20721D408220024134F1343AA0023
:100CF000D25914605460906013606300B21D995E15
:100D00004A1C0AD03A000C329B5A0322DB0A1340D9
:100D1000AB4202D1E0B2FFF7A5FF01340A2CECD1BF
:100D2000F8BD0133DBB24008CFE72822DCE7C0463C
:100D3000006CDC0200FDFF1F3C20000010B5022803
:100D400001D8FFF7B7FF10BD1C4870B51422FF2172
:100D50000630F42601F03BF9002200242825760015
:100D600031001000FFF7A6FF154B31001C601D601D
:100D7000144B22001C601D60134B01201C601D6081
:100D8000124B1C601D60124B1C601D60114B1C60DF
:100D90001D60FFF78FFF104B31001C601D600F4B73
:100DA00022001C6002201D60FFF784FF0C4B1C60BA
:100DB0001D600C4B1C601D6070BDC04600FDFF1F18
:100DC0000C800340148003401C80034024800340B7
:100DD0002C800340348003400C9003401490034067
:100DE0000CA0034014A0034010B50400092817D834
:100DF0000021FFF737FF0B496300CB189B895A0688
:100E0000520F920089180F22096A1A4092008A181C
:100E1000E021C9000B4044210B431360200010BDAA
:100E2000FF24FBE73C20000010B50400092816D879
:100E30000021FFF717FF0122094B0A4964005242C3
:100E40000633E2520C19A3895A06520F92008A18EF
:100E50000F21126A0B409B00D31800221A6010BDAC
:100E600000FDFF1F3C20000070B50024064D063534
:100E700063005B5F013302D0E0B2FFF7D5FF0134BE
:100E80000A2CF5D170BDC04600FDFF1F8023174A14
:100E900001001068DB00034310B51360144A154BC2
:100EA000154C1A60154B31321A600023E370A370A1
:100EB000134B4810C01800F06BFFC304DB0E237007
:100EC0002C23C0B26070E3700E4800F09FFE8021BA
:100ED0000D4B49011960FF230C4802689A43BF3B40
:100EE000134303600A4B196010BDC04634800440B0
:100EF0001303000040A0044000A0064044A00440AA
:100F0000C0C62D004D10000080E200E00CE400E0BF
:100F100000E100E0014B18607047C04620FDFF1F54
:100F200010B5104C23685B0502D410BD00F056FECE
:100F30000D4A1379DBB2002BF8D180210B4849010F
:100F400001600B4801600B490B48CB700421FF3155
:100F500001600A4801602168094801402160D3808E
:100F60001381E2E73480044020FDFF1F80E200E0AF
:100F700080E100E000A0064040A0044044A00440FE
:100F8000FFFBFFFFF7B5070006000191019AF31B75
:100F90009A4200DCF7BD80221C4BD2001B68134232
:100FA00016D01B4D6C890134A4B2FF2C00D900244B
:100FB00033780093AB89A3420CD06A462B00127899
:100FC0000E331A550123AC222B71124B6C81DA704F
:100FD0000136DBE7FFF700FE402812DC0D490B79F4
:100FE0005BB2002BE6DAAB8901339BB2FF2B00D951
:100FF0000023074802000E32D25CD2B2CA7183814C
:10100000D8E7FF28D6DD00F0E9FDD3E734800440BF
:1010100020FDFF1F00A0064010B5044B1B79002BDC
:1010200000D110BD00F0DAFDF7E7C04620FDFF1F3C
:10103000054AD38810899BB280B2834201D3181A23
:1010400070470133FF33FAE720FDFF1F10B5FFF7AC
:10105000EFFF002804DD034B1B68002B00D09847EE
:1010600010BDC04620FDFF1F002270B50B4D0C4C7B
:101070000E358A4202DB0A00100070BDE688238923
:101080009BB29E42F8D001339BB2FF2B00D90023C4
:10109000EE5C238186540132EBE7C04620FEFF1F41
:1010A00020FDFF1F10B51E4A13799B060FD51D4961
:1010B000D479CB88E4B201339BB2FF2B00D9002353
:1010C0000889834203D018480E30C454CB80D178AD
:1010D000C9B200290BD013795BB2002B07DA114893
:1010E000448983899BB29C420DD16C23D3704023E9
:1010F000194207D01179194204D00021094B197106
:101100002C23D37010BD01339BB2FF2B00D90023D9
:1011100004000E34E45CE4B2D4718381E7E7C04696
:1011200000A0064020FDFF1F20FEFF1F0223F0B598
:101130000B4A0C4E147809042343DB00F518686051
:10114000882550780D4301004F1EB941890129437C
:10115000F15001235C40434014705370F0BDC04611
:1011600030FFFF1F00F8FF1F084B00209A78D97846
:10117000914208D00132D2B2032A05D89A709A78E7
:1011800092009B18586870470022F7E730FFFF1F56
:10119000F7B5254A0023110007000D20234C1370DA
:1011A0005370143154326160E260214D214E224A65
:1011B000224926606361A260E3612361A361087034
:1011C00023622B75A3626B7523636362E3626363BF
:1011D000E363A36372B60192FFF7C6FF002802D053
:1011E000FFF74CFBF8E762B60523012F00D00300A0
:1011F000134A13702A00002318326264019AAB75F7
:10120000EB7558352664E564A26463652365E36580
:10121000A3650922012F00D01A000A4B1A7001227F
:10122000094B1A70F7BDC04630FFFF1F00F8FF1FC3
:10123000B0FFFF1F88004000C8004000C0200740EA
:10124000C4200740C82007407E000020F0B5860873
:10125000A14DF60077598FB0BF063F0F092F00D17F
:101260000DE10D2F05D0012F00D0BBE09B4B73513A
:10127000B8E0AB195968082299489A4C00F09EFED4
:10128000964B3A00735100262E61AE610125964BB4
:10129000964901A85D7000F091FE0A200222904953
:1012A000684400F011FB0C2101A8FFF76BFE3A0027
:1012B0008F4905A800F082FE14228E4909A800F08B
:1012C0007DFEA38F8C4A934217D8013A934234D2C1
:1012D000822B00D18EE00AD8802B00D386E0072134
:1012E0008648FFF74FFE0F22854B1A7077E0A02249
:1012F000D2009342F3D135004BE090221201934289
:1013000000D196E00AD8803A9342E8D123002E001B
:1013100044331B782376250018353AE0794A9B1828
:10132000012BDCD8A31CDB8F774D042B03D0052BBE
:10133000E1D1754D28352E782BE0210002223E3177
:101340000BA800F0C1FA210031200222403168448C
:1013500000F0BAFA132109A8FFF714FEE28F6B4BD5
:101360009A4204D1A11C6A4BC98F99420DD0A31C8B
:10137000D98F684B5D68002DB1D01888904233D169
:101380005888884230D11E7A03E02500631CDE7F36
:101390002035231DDB8F1F1CB34200D9371CBEB282
:1013A000402E00D94027BFB2F61B28003900B6B244
:1013B000FFF7BCFEED19002E5CD1402F0FD1370096
:1013C0002800B9B2FFF7B2FEBBB2F61AB6B2ED19F9
:1013D000002E01D1402F02D1A5644C342680012279
:1013E0004D4B1A700FB0F0BD0C33C3E7267666760E
:1013F000022690E77F22A31CDB8F13402200453298
:101400001278022A11D0002B00D068E700222500B4
:101410000226227662763A4A9B009B181B78183582
:101420003342B6D001232376B3E7032B00D956E726
:10143000ECE7E38F012B00D951E7270044372A005E
:10144000390007A83B7000F03FFA0C2105A8FFF710
:1014500099FD387803005A1E93412200013345322A
:101460001370FFF795FE204BA6645D7023004C338C
:101470001E8040E73700402EA2D94027A0E7194C34
:10148000A66C002E17D023004C331D882F00402D52
:1014900000D940273000B9B2FFF748FEBBB2ED1AC1
:1014A0002300ADB24C33F6191D80002D02D1402F20
:1014B00000D02E00A664A023A28FDB009A4200D0A9
:1014C00090E7E38F154AD9B21170002B00D089E75D
:1014D0004534237086E7C04600F8FF1FC80040006F
:1014E0006C0000203000002030FFFF1FCC200000E7
:1014F000D9200000E620000081060000C420000082
:10150000C020074040DDFFFFC8F9FF1F03030000B4
:101510000904000070200000942007409820074034
:10152000F8B58408174DE40063599B061B0F092B7F
:1015300014D12C196068FFF7A1F90023636072B61B
:1015400006248022104E377D3C43E4002B59134281
:1015500003D1FFF709FE002801D162B6F8BD2B19AF
:1015600058608823028812041343727D1100481EBC
:10157000814189010B432B5101235A405F40727511
:101580003775DDE700F8FF1FB0FFFF1F10B5094AF0
:10159000D3780133DBB2032B00D900239178994231
:1015A00004D0990051184860D37010BDFFF766F958
:1015B000FBE7C04630FFFF1FF8B5134B45331B78E0
:1015C000022B0CD172B6114904330C7D104D23430C
:1015D000DB005A59120603D5FFF7D8FF62B6F8BDF3
:1015E000EA18506088220688487D360416430200B7
:1015F000571EBA4192013243EA50012358406340DA
:1016000048750B75EAE7C04630000020B0FFFF1FA9
:1016100000F8FF1F024B8008C000C3587047C04647
:1016200000F8FF1F084B002045331B78022B0AD11E
:10163000064B9A7D08231343054ADB009958090697
:1016400001D4D3185868704730000020B0FFFF1F46
:1016500000F8FF1F0A4B45331B78022B0CD1094BB6
:101660009A7D08231343084ADB009958090603D4DE
:1016700098588001800D704701204042FBE7C0462A
:1016800030000020B0FFFF1F00F8FF1F082330B517
:10169000084A907DD17D0343002909D1064C074DAE
:1016A000DB005C51012359404340D175937530BD37
:1016B000034CF4E7B0FFFF1F8800400000F8FF1F55
:1016C000C800400010B504000020FFF761FD0321B1
:1016D000274A931CD9770023E05C591C00283DD190
:1016E000802301324900D177224ADB0211680B4383
:1016F00013608022204B1A701A7852B2002AFBDB4A
:101700001E4A1F48110AC9B20170110C1D48C9B206
:1017100001701D49120E0A70FF221C490A701C49F3
:101720000A701C490A70402118780143197001237E
:10173000002019490B701949087019490B70194993
:101740000B6893431A008023134380220B60164BCF
:1017500052041A601022154B1A7010BD5B00D3188A
:10176000203380B298700020D870CBB2B4E7C04666
:1017700030000020348004400C21074000F8FF1F97
:101780009C200740B0200740B4200740802007403D
:101790008820074010200740942007400021074080
:1017A0008420074018E400E000E100E00821074041
:1017B000F0B585B00423374E34783500E4B21C42CE
:1017C00000D03370082727402BD0334B0C221C78D5
:1017D0006B46E4B2DD1C3149230901A82B7000F0EF
:1017E000EDFB0B2001222900684400F06DF80B216D
:1017F00001A8FFF7C7FB2B78002B05D12000FFF7CE
:1018000025FD08233370D5E7012B03D12000FFF716
:1018100087FEF6E7022BF4D1A408214BE400E3583D
:10182000EFE7E30718D508211E48FFF7ABFB0223BB
:101830001D4A380011780B431370FFF7A9FCFF23F2
:101840001A4A13701A4A2B7017701A4A13709F2283
:10185000194B1A7005B0F0BD63B2002B08DA0721EE
:101860001648FFF78FFB0D22154B1A7080232B7043
:101870000226344208D007211248FFF783FB0B4AA7
:101880001378DBB213702E7010231C42E2D02B7041
:10189000E0E7C04680200740902007400B21000071
:1018A00000F8FF1FFA20000094200740882007401E
:1018B000982007408C20074084200740C420000067
:1018C000C02007400321000070B50F25074C002AF7
:1018D00000D170BD013A92B28B5C1E092B40A65D0F
:1018E000E35C067043700230F1E7C0461721000048
:1018F000F8B507000E0015001C00FEF7ABFF00282E
:1019000009D00C2303800A3B83708780C680058141
:101910004481FFF751FEF8BD70B506000D001400BC
:10192000FEF798FF002813D00E2303800A3B837034
:10193000033B837100238680C37105812378837202
:101940006378C372A3780373E3784373FFF734FEBD
:1019500070BD73B583780400012B00D07BE0038851
:10196000102B25D10379012B34D14679012E15D1C5
:10197000FE22018980250A40807A3140FEF7A0FFCF
:101980006D0022890543ADB20023324202D1FFF738
:1019900061F883B2E288290000202DE0022E0CD1EC
:1019A00082890189807AFEF7FDFD8025FF280CD110
:1019B0000023E288190001201EE0032EF8D1807A6E
:1019C000FFF712FAFF28F3D0C025AD000543ADB2F2
:1019D0000023DFE7022B22D1C088FD3302009A43A7
:1019E000130080225200934209D1C0B2FEF7EEFFED
:1019F0000023E18818000A00FFF77AFF42E0802206
:101A00009200934203D1C0B2FEF706FEF0E7C02277
:101A100092009342CCD1C0B2FFF706FAE8E7032B5D
:101A200006D1FFF753F8FEF7CFFEFFF71DFADFE709
:101A3000042BBDD14379012B05D10289E168807A5D
:101A4000FFF77CF9D4E7022BB2D10289017B807ABF
:101A5000FFF7EEF8CCE7032B14D1002301930388A2
:101A600001AD102B0ED18088EF3302009A43130092
:101A7000A279012A11D1FF32934204D1217BC0B255
:101A8000FEF7CAFF73BDC02292009342FAD10C2325
:101A9000E15EC0B2FFF7E6F8F4E7022AF2D1FE32C7
:101AA000934209D1C0B2FEF7D5FF28706189A088A2
:101AB0002A00FFF731FFE5E7802292009342E1D14F
:101AC000C0B2FEF7DFFDDDE7F8B5234D2B78002B24
:101AD00007D000232B70FEF7F9FFFEF775FEFFF726
:101AE000C3F9FFF7B7FD041E2EDDFFF79BFD0600CF
:101AF0006888002816D06B792A791B0213432218B4
:101B00009A420FDB1B1A9FB2144B310018183A008F
:101B100000F054FA1148FFF71CFF0023E41B24B225
:101B2000F6196B80012C01DC0CD102E03788BC4235
:101B30000BDA6F88281D2200C01931003C1900F013
:101B40003DFA6C80FFF7A2FDF8BD3000E41BFFF703
:101B500000FFF61924B2E5E77E0000208200002095
:101B6000F7B580277F00FEF793FF0400FF280CD015
:101B700000250195FEF76EFF01AE3C433070320048
:101B8000A0B22900FFF7C8FEEDE7F7BD10B5FFF7DB
:101B9000E7FF10BD37B56B469C1C2000FEF796FD95
:101BA000C31CDBB20500012B0DD90020235E802071
:101BB0000021800001AA2843019180B213701B12FA
:101BC0005370FFF7A9FE37BD10B5034A1368013300
:101BD0001360FEF719FE10BD1CFDFF1F70B50A4D06
:101BE0002C78002C07D101232B706B1DDB7F9C42CE
:101BF00002D300232B7070BDA300EB185B68013487
:101C00009847E4B2F1E7C04684020020054B5A1D14
:101C1000D17F89005B185860D37F0133DBB2D37763
:101C20007047C04684020020002330B512494C1D85
:101C3000E57FEDB2E27F93420DD32B00481DC27FBA
:101C4000934203D2C27F013AD2B2C2774C1DE27FE7
:101C5000934208D330BD9A008A1852688242EDD070
:101C60000133DBB2E6E7581C82008A1852689B00F9
:101C7000CB185A60C3B2EAE784020020002243086E
:101C80008B4274D303098B425FD3030A8B4244D344
:101C9000030B8B4228D3030C8B420DD3FF22090286
:101CA00012BA030C8B4202D31212090265D0030B45
:101CB0008B4219D300E0090AC30B8B4201D3CB033B
:101CC000C01A5241830B8B4201D38B03C01A52417D
:101CD000430B8B4201D34B03C01A5241030B8B427F
:101CE00001D30B03C01A5241C30A8B4201D3CB026A
:101CF000C01A5241830A8B4201D38B02C01A52414F
:101D0000430A8B4201D34B02C01A5241030A8B4251
:101D100001D30B02C01A5241CDD2C3098B4201D369
:101D2000CB01C01A524183098B4201D38B01C01AE7
:101D3000524143098B4201D34B01C01A524103095E
:101D40008B4201D30B01C01A5241C3088B4201D30D
:101D5000CB00C01A524183088B4201D38B00C01ABA
:101D6000524143088B4201D34B00C01A5241411AE1
:101D700000D20146524110467047FFE701B50020EE
:101D800000F0F0F802BDC0460029F7D076E77047B2
:101D900003460B437FD4002243088B4274D30309CC
:101DA0008B425FD3030A8B4244D3030B8B4228D36D
:101DB000030C8B420DD3FF22090212BA030C8B4293
:101DC00002D31212090265D0030B8B4219D300E033
:101DD000090AC30B8B4201D3CB03C01A5241830BB8
:101DE0008B4201D38B03C01A5241430B8B4201D368
:101DF0004B03C01A5241030B8B4201D30B03C01A91
:101E00005241C30A8B4201D3CB02C01A5241830A0A
:101E10008B4201D38B02C01A5241430A8B4201D339
:101E20004B02C01A5241030A8B4201D30B02C01A63
:101E30005241CDD2C3098B4201D3CB01C01A5241CA
:101E400083098B4201D38B01C01A524143098B4253
:101E500001D34B01C01A524103098B4201D30B013C
:101E6000C01A5241C3088B4201D3CB00C01A524161
:101E700083088B4201D38B00C01A524143088B4226
:101E800001D34B00C01A5241411A00D201465241BF
:101E9000104670475DE0CA0F00D04942031000D3DE
:101EA0004042534000229C4603098B422DD3030A33
:101EB0008B4212D3FC22890112BA030A8B420CD343
:101EC000890192118B4208D3890192118B4204D36C
:101ED00089013AD0921100E08909C3098B4201D3EC
:101EE000CB01C01A524183098B4201D38B01C01A26
:101EF000524143098B4201D34B01C01A524103099D
:101F00008B4201D30B01C01A5241C3088B4201D34B
:101F1000CB00C01A524183088B4201D38B00C01AF8
:101F20005241D9D243088B4201D34B00C01A5241CF
:101F3000411A00D20146634652415B10104601D35C
:101F40004042002B00D54942704763465B1000D3E6
:101F5000404201B5002000F005F802BD0029F8D08C
:101F600016E770477047C046014B18687047C04677
:101F7000F0FAFF1F70B500260C4D0D4C641BA41029
:101F8000A64209D1002600F0CFF80A4D0A4C641B86
:101F9000A410A64205D170BDB300EB589847013696
:101FA000EEE7B300EB5898470136F2E73421000022
:101FB000342100003421000038210000002310B536
:101FC0009A4200D110BDCC5CC4540133F8E7030041
:101FD0008218934200D1704719700133F9E75354C6
:101FE0004152540D0A0048454C4C4F0D0A00450E15
:101FF00008090D0C46470F0B0004171D1A1E1BFF86
:102000000090044000A0044000B0044000C0044020
:102010001011300102373432332324262725312092
:10202000101113123536212254555E0000F00F4076
:1020300040F00F4080F00F40C0F00F4000800340A0
:102040000090034000A00340011302333484234472
:102050002464100B112B35A4210422240090044089
:1020600000A0044000B0044000C0044000D0044080
:1020700000010000DEFAFF1F120000000002000055
:10208000BEFAFF1F2000000000030000BAFAFF1F85
:102090000400000001030904A6FAFF1F1400000059
:1020A0000203090490FAFF1F16000000EE0300006F
:1020B0007EFAFF1F12000000000000000000000078
:1020C000000000005354414C4C0D0A0073657475B8
:1020D0007020787878780D0A0073657420636667DD
:1020E0002078780D0A00676574206473632078781F
:1020F000787820787878780D0A00555342525354F6
:102100000D0A004552524F520D0A00544F4B444E97
:10211000452078780D0A003031323334353637387F
:1021200039616263646566FFF8B5C046F8BC08BCF7
:082130009E46704739040000CF
:04213800F8B5C046F0
:10213C00FE000000AC02002028000000000104009A
:10214C000100000000000000000157494E555342A9
:10215C000000000000000000000000000000000073
:10216C008E00000000010500010084000000010049
:10217C0000002800440065007600690063006500DB
:10218C0049006E0074006500720066006100630017
:10219C006500470055004900440000004E00000057
:1021AC007B006400300031003000620061003900B7
:1021BC0030002D0030003200350061002D0034005D
:1021CC006300390034002D006200320064006200AC
:1021DC002D00610031003300660032003000350004
:1021EC00640034003300370065007D0000001203EA
:1021FC004D005300460054003100300030002200E6
:10220C00160349004F0045007800740065006E000D
:10221C00640065007200140343006F0064006500E5
:10222C006300720065007400650004030904090270
:10223C00200001010080FA0904000002FF000000E8
:10224C000705810240000007050202400000120150
:10225C000002FF000040C01601270100010203012B
:10226C00F4FAFF1F00000000000000000000000056
:10227C000000000000000000000000000000000052
:10228C000000000000000000000000000000000042
:10229C000000000000000000000000000000000032
:1022AC000000000000000000000000000000000022
:1022BC000000000000000000000000000000000012
:0422CC00000000000E
:00000001FF
