:1000000000800020BD010000251B0000F11A000047
:10001000F11A0000F11A0000F11A0000F11A0000B4
:10002000F11A0000F11A0000F11A0000251B00006F
:10003000251B0000F11A0000251B0000D53300002D
:10004000251B0000251B0000251B0000251B0000B0
:10005000251B0000251B0000251B0000251B0000A0
:10006000251B0000251B0000251B0000251B000090
:10007000251B0000251B0000251B0000251B000080
:10008000251B0000251B0000251B0000251B000070
:10009000251B0000251B0000251B0000251B000060
:1000A000B51A0000BB1A000015280000192800002E
:1000B000251B0000251B0000251B0000251B000040
:1000C000251B0000251B0000251B0000251B000030
:1000D000251B0000251B0000251B0000251B000020
:1000E000251B0000251B0000251B0000251B000010
:1000F000251B0000251B0000251B0000251B000000
:10010000251B0000251B0000251B0000251B0000EF
:10011000251B0000251B0000251B0000251B0000DF
:10012000251B0000790800009F080000251B000027
:10013000251B0000251B0000251B0000251B0000BF
:10014000251B0000251B0000251B0000251B0000AF
:100150002D0A0000251B0000251B0000251B0000A8
:10016000251B0000D12D0000251B0000251B0000D1
:10017000251B0000251B0000251B0000251B00007F
:10018000251B0000251B0000251B0000251B00006F
:10019000251B0000251B0000251B0000310D000061
:1001A000550D0000590D00005D0D0000610D0000AF
:1001B000251B0000251B0000251B0000564B4CF2A0
:1001C000205210B51A804DF628121A8000BF00BFC9
:1001D00001F0ABFC514B4FF010621A60504A9A602C
:1001E000504ADA60504A136813F4807301BF4F49D4
:1001F0000B604FF4A85313604D4B1A78110748BF9A
:100200001A784C4944BF42F008021A704A4B2A221D
:100210001A704A4A4A4B8B4275D34A4B4A4A0021CC
:10022000934275D3494A4A4C0023114654F823009F
:1002300042F8230001336F2BF8D1464B464A802009
:1002400003F8010B9342FBD1444B1960444B8A22C3
:100250001A70A3F5805324225A70A0221A709A793A
:100260009207FCD59A79D406FCD43E4B19469A796C
:1002700002F00C02082AFAD105221A7143225A719F
:100280008B799806FCD5374B9A795106FCD5364ABE
:100290004FF0817111600521516020221A70314A9E
:1002A000937903F00C030C2BFAD1304B304A1A60CF
:1002B000304B314A1A6000225A60072243F8042C5E
:1002C0002E4AC3F80C2D62B6184B1B68DA0705D509
:1002D0002B4801F07FFC2B4B2B4A1A602B4B1B78D1
:1002E0005B0609D5274C284B22689A4204D1244842
:1002F00001F070FC0023236003F074F801F01CFC93
:1003000001F06AFCFEE752F8040F43F8040B82E7A1
:1003100043F8041B84E700BF0E20054030800440F2
:10032000823F04000100002B10D0034014D0034092
:1003300002D00740C485FF1F00E00740703800006E
:10034000BC83FF1FC485FF1FA08AFF1F0082FF1F01
:100350000000000000E400E05FE400E008ED00E0E1
:1003600000500640004006404480044004800440A1
:10037000C010050014E000E03F190100000020203B
:1003800000DD68501CE00340A5C3945A00F007400C
:10039000FFFFFFFFFFFFFFFFFFFFFFFFFFFFFFFF6D
:1003A000FFFFFFFFFFFFFFFFFFFFFFFFFFFFFFFF5D
:1003B000FFFFFFFFFFFFFFFFFFFFFFFFFFFFFFFF4D
:1003C000FFFFFFFFFFFFFFFFFFFFFFFFFFFFFFFF3D
:1003D000FFFFFFFFFFFFFFFFFFFFFFFFFFFFFFFF2D
:1003E000FFFFFFFFFFFFFFFFFFFFFFFFFFFFFFFF1D
:1003F000FFFFFFFFFFFFFFFFFFFFFFFFFFFFFFFF0D
:10040000FFFFFFFFFFFFFFFFFFFFFFFFDEF9FFFF23
:1004100010B5054C237833B9044B13B10448AFF33E
:1004200000800123237010BDC485FF1F0000000061
:10043000743800000C4B43B10C480D4910B5AFF3B4
:1004400000800C48036823B910BD0A48036833B91B
:100450007047094B002BF7D0BDE810401847064BFA
:10046000002BF5D0184700BF0000000074380000D2
:10047000C885FF1FC485FF1F00000000124A12F844
:10048000103012F81020DB0812F0030F43F0400385
:1004900002F004020CD10D4932B10A6842F0100298
:1004A0000A600B4A136070470A6822F01002F7E7EF
:1004B00008492AB10A6842F010020A60064AF1E7C8
:1004C0000A6822F01002F8E7BC83FF1F0CB003405B
:1004D00000B003400CB00B4000B00B400C4B192097
:1004E0000322002110B518605A60996109490A4B2E
:1004F0004FF000740C601C60084C206008480260DB
:10050000084A012010604FF080620A601A6010BD36
:1005100008B0034084E200E004E100E008B00B40D2
:100520000CB00B4020B00B40030644BF6B38C0B288
:10053000182870B527D801BF14490B7843F0010380
:100540000B70134B93F9001079B9124991F83240AE
:10055000FE2C0AD1104C40252560104D5F262E60E0
:1005600087252560FC2481F832406AB159780C4E09
:1005700001EB4104A40035190131325159700022B8
:1005800028726A6070BDFF2070BD00BF02D00740B6
:10059000E085FF1FBC83FF1F24B0034000B0034071
:1005A000E485FF1F2DE9F04F174DA5F1100E804691
:1005B0000027F2460EF1040B4FF00C099EF80140A3
:1005C000A74209DBB8F1180F01BF104A137803F0F6
:1005D000FE031370BDE8F08F15F8043C434509D1C4
:1005E00004FB099CDC442B460C33634505D1013CDC
:1005F0008AF8014001370C35E0E713E90700A3F161
:10060000180686E80700EFE7F085FF1F02D00740D5
:100610001828014618D80D4B93F83220FE2A02D133
:1006200083F832002AE70A4A92F8643092F86500AB
:100630000133DBB2082B28BF002398421EBFD0181D
:1006400082F8643080F86610704700BFBC83FF1FDB
:10065000E085FF1FF8B5544A92F832506B1DDBB2AB
:10066000012B044600F29080FC2D50495BD150488C
:10067000504B1B68076850F8046C50F80C5C10383D
:100680003B44006833442B440344C3F34E034A48BD
:1006900043F400430360494B1B68C76B866B056BD3
:1006A0002C303B44006833442B440344C3F34E03D3
:1006B000434843F400430360424B1F20186004206A
:1006C000586240230B60404B5F20186087230B600B
:1006D000FB2382F8323092F83230FE2B4FF0FD05CA
:1006E0001FD10026394B93F8651093F864008842B7
:1006F00056D00131C9B2072988BF002183F865109F
:1007000093F865100B4493F8660082F83200FFF707
:10071000B5FEF30243EA465343EA460343EA56234F
:1007200023602846F8BD2A482A4B1B68076850F802
:10073000046C50F80C5C10383B44006833442B4484
:100740000344C3F34E03244843F400430360234BA4
:100750001B68C76B866B056B2C303B4400683344C9
:100760002B440344C3F34E031D4843F4004303608A
:10077000154B1F20186004230B60FE2382F83230D3
:10078000124B01211970A6E712F8153013F0030F70
:100790000CBF144914491F230E6841F8103CA1E70F
:1007A000FE2382F83230B4E7BC83FF1F24B00B4035
:1007B00048B003404CB003402CB003406CB0034041
:1007C00030B0034000B0034000B00B40E085FF1F95
:1007D00048B00B404CB00B402CB00B406CB00B4001
:1007E00030B00B4010B0034010B00B400F49104820
:1007F0004FF000730B600F4B1F221A604023036001
:100800004FF0806008600C490A600C4A0C49136084
:100810000C4B0022FE201A7081F8320083F864200D
:1008200083F865205A70FFF759BE00BF84E200E0EC
:1008300024B0034000B0034000B00B4024B00B4094
:10084000BC83FF1FE085FF1F70B50A4C0025261FE3
:1008500073789D4200DB70BD6368226801339A4261
:1008600098BF0023636013B9207AFFF7D1FE0135EA
:100870000C34EDE7E485FF1F07B501A8FFF7EAFE9A
:10088000C31CDBB2012B07D940F40070019B00228E
:10089000012180B202F0B2FB03B05DF804FBFFF768
:1008A000EBBF00BF124900232DE9F0411E460D4663
:1008B0006FF000445A582AB182428BBF121A5C5022
:1008C0005A5001260C33302BF4D100246FF000472E
:1008D000A0462B59BB4205D12B1945F804805A6814
:1008E000986890470C34302CF3D13046BDE8F08145
:1008F0005086FF1F0F4A136B30B5D3B96FF000411C
:10090000D05810B1814228BF01460C33302BF7D1AB
:100910006FF00045A9420CD0074B084C0220216023
:100920001860186840F001001860012351631363D8
:10093000256030BD5086FF1F0871034000710340E1
:10094000084A136843F400031360074B00221A603F
:100950000122C3F80C21054A10231360A2F5C072CE
:10096000136070473C8004400070034088E200E060
:10097000094A136823F001031360084B01221A602F
:10098000074B10221A60074B00221A60DA609A6146
:100990005A625A631A637047087103400C7103402E
:1009A00088E200E05086FF1FF8B51C4C236B012B3A
:1009B00007460D4616461AD1194A136823F001035B
:1009C0001360184B606B1A6812F0010F164A18BFBB
:1009D00000F10040126818BF00F1FF30801A0122B8
:1009E0001A6002232363FFF75DFF002323632420A3
:1009F00078439B288CBF9B38012000230C2101FBEE
:100A000003F2A75837B9A318A0505D609E60BDE8F7
:100A1000F8406FE70133042BF1D1F8E75086FF1F50
:100A2000087103400C7103400471034070B50F4E10
:100A30000F4C706B256800F10040022301383363CE
:100A4000431B1846FFF72EFF2268AB1A15460028F5
:100A5000F7D1084A136823F001031360064B012203
:100A60001A603063BDE8704044E700BF5086FF1F46
:100A700004710340087103400C71034010B5114B21
:100A800093F9002090421CDA03EB40004FF0807491
:100A9000827843786FF30002827003F007010A4AFC
:100AA000DB0852F8212018B242F82040012202FA55
:100AB00003F3064A52F82120516921EA03015161EA
:100AC000936010BD8886FF1FEC350000D83500000C
:100AD0000A4B93F9002090420EDA03EB40035B7857
:100AE000DA0803F0070001239340054A52F820205A
:100AF00009B1536070479360704700BF8886FF1F3D
:100B0000D835000021282DE9F74F8946174600F215
:100B100092804A4D95F900200021CEB296424FEACC
:100B2000460A03DB04BF01322A7005E005EB0A0424
:100B30000131A478E407F0D4AEB9414C414A4FF4F6
:100B40000001216011604FF08071216011604FF051
:100B50000071216011604FF08061216011604FF0E1
:100B6000006121601160384A145C05EB0A0004F052
:100B7000070B4278E4086BF3020264F3C702427089
:100B8000827842F001026FF341024FF00108827057
:100B900008FA04F82D4AB9F1000F0FD152F82B20B2
:100BA000536923EA08035361780741D417F0080F0B
:100BB0000CBF4FF488734FF4897315E01946304623
:100BC0000192FFF785FF019A52F82B205369B9F182
:100BD000010F48EA03035361E6D117F0080F0CBF79
:100BE0004FF482734FF4A273194A24B252F82B20A7
:100BF00042F82430B9F1000F16D117F0300F13D09E
:100C0000554417F0100FAB7843F00203AB700CBFE4
:100C100000234FF41023B90652F8241048BF43F4C0
:100C200020230B4342F82430304603B0BDE8F08F58
:100C300040F21313D8E7FF26F6E700BF8886FF1FB0
:100C400088E200E008E100E084340000D8350000CC
:100C5000EC3500000C4B93F90020904211DA03EBC5
:100C600040030A4A5B7803F00701DB0852F82120B1
:100C70001169012202FA03F30B4214BF104600204F
:100C800070470020704700BF8886FF1FD8350000DE
:100C900070B5114A114E92F900500020A84201DBB4
:100CA000FF2070BD02EB40039978890711D55B786E
:100CB00003F00701DB0856F8214004EB830154F8E8
:100CC0002330DB0105D50B6843F080730B60C0B2A5
:100CD00070BD0130E2E700BF8886FF1FEC350000E1
:100CE00038B5114D002495F900309C4212DB0023E9
:100CF0002B700E4B4FF400021A604FF080721A6096
:100D00004FF000721A604FF080621A604FF000627C
:100D10001A6038BD05EB44039B78DB0702D5E0B2CF
:100D2000FFF7ACFE0134DEE78886FF1F88E100E0B4
:100D300010B5FFF7ADFFFF2804460AD0FFF78AFF82
:100D400044F48074034600220121A0B202F056F957
:100D5000EFE710BDFFF7ECBFFFF7EABFFFF7E8BF13
:100D6000FFF7E6BFFFF7E4BF10B5184C226862B981
:100D700017490B6843F002030B6051F8043C43F041
:100D8000020341F8043C134B1A602268002001233F
:100D900012EA030112D113432360C4B20E4B400187
:100DA00000F180401C7020221C7100F5104003F8F7
:100DB000024C5C7102F045FB204610BD013010284A
:100DC0004FEA4303E4D1FF24F6E700BFD086FF1FBC
:100DD00040800440008000401A800040014B1870A1
:100DE000704700BF1B800040014B1870704700BF68
:100DF0001A800040400100F1804000F51040808BD7
:100E0000C0F3C0107047014B187070471C80004041
:100E1000044B1A68012303FA00F0104214BF18466D
:100E2000002070472C800040014B1870704700BFB5
:100E30001E800040400100F1804000F51040C08A53
:100E400080B2704700F11002094B43F822104111A3
:100E50008B00012200F01F0003F1604302FA00F052
:100E600003F56143034A42F821001860704700BF50
:100E70000082FF1F80E200E04211012300F01F000A
:100E800003FA00F0014B43F82200704780E100E0D4
:100E900010B50446FFF7F0FF124B600100F18040EF
:100EA0001C702022002100F5104002F0CAFA04F163
:100EB000804303F5043300221A700B4B012000FA23
:100EC00004F4186820EA0400186050B9074A13684F
:100ED00023F00203136052F8043C23F0020342F8AB
:100EE000043C10BD1A800040D086FF1F40800440A3
:100EF000014B1870704700BF1F800040400100F197
:100F0000804000F51040838B9BB243F00203838343
:100F10007047400100F1804000F51040838B9BB288
:100F200043F008038383704700F1804000F50430EC
:100F3000002341F08001037001707047400100F10F
:100F4000804000F5104000230122016083808371FE
:100F50008260C3607047400100F1804000F510409E
:100F60000123016000218380817183605342C3604B
:100F7000C283C2827047400100F1804000F51040FA
:100F80000023012201618382C37182608361704703
:100F9000400100F1804000F5104001230161002173
:100FA0008382C171836053428361C283C28270476E
:100FB0000A4B53F820309A78920603D5B4229A70DF
:100FC00000207047D87810F0200001D0062070472C
:100FD000B0229A709B789B06F8D57047A834000021
:100FE0000F49602202FB001210B592F8593092F8B6
:100FF00058409C4212D00133DBB2132B88BF002330
:1010000082F85930602303FB0013182293F85930FB
:1010100002FB0030023051F8200010BD002010BD4E
:10102000D486FF1F30B40F4D602404FB00540246E9
:1010300094F8583094F859000133DBB2142B28BFD0
:101040000023984209D0182000FB0232023284F8B3
:10105000583045F8221030BC7047084630BC00F0CC
:1010600037BE00BFD486FF1F0749602343430246B3
:10107000C81810B4C06D0424CC5400EB40000349E0
:1010800010BCFFF791BC00BFD486FF1FC51800003D
:101090002DE9F04F114E6024444337190546786816
:1010A00085B0B0F80480B0F806908A46934600F008
:1010B0000FFE0020012378603355039002900190C9
:1010C000CDF800B0404653464A46022101F063FF86
:1010D000284605B0BDE8F04FC6E700BFD486FF1F25
:1010E00002792C49602353432DE9F047CC18DFF8EF
:1010F000B0E094F85BC0606006250EF10800CD54A6
:1011000000EB8C0310F82C505B78DFF89880C3F369
:101110004403C5F3C20558F8231058F825A001264A
:1011200006FA03F9C1F80490DAF8141049EA01014B
:10113000CAF8141050F82C1030F82C00C0F38210AC
:10114000C1F3843158F82080D8F814C08E402CEABE
:101150000606C8F81460104E1BB256F825504FF41E
:10116000827C45F823C009B256F820304FF48070D5
:1011700043F821005EF82230E06D002750219F7077
:1011800099711221D97067800449BDE8F047FFF7D3
:101190000BBC00BFD486FF1FEC350000A911000076
:1011A000A8340000D83500002DE9F0433E4E3F4DF5
:1011B000DFF80C81C0B2602202FB0062012492F8C9
:1011C0005B90538835F829C00133CCF3821C9BB265
:1011D000538058F82C1055F829200969C2F384323D
:1011E00004FA02F7394005EB890E474618D1112B56
:1011F00016D89EF80110C1F3440113F0010F58F8FE
:10120000213004FA01F40CBF5C609C60602303FB96
:10121000006602462649F06DBDE8F043FFF7C4BB07
:10122000244B53F8203080249C701224DC7000285A
:10123000214B15F82960214D0CBF4FF080744FF001
:1012400000741C609EF802309EF80140C6F3C2068E
:10125000C3F3C203C4F344041B020FFA84F943F03E
:10126000640855F8263055F82C5043F82980BEF80C
:101270000230C3F3821312B21B0243F0640345F839
:10128000223057F824200123A34057F826409360CA
:101290006269B1FA81F122EA03036361002249091C
:1012A000BDE8F043F4E600BFD486FF1FB034000071
:1012B000A9110000A834000080E200E0EC35000035
:1012C000D8350000F8B50A4F602444433D1906465E
:1012D0006B886868103303804172428101F00AFB19
:1012E00000236B6001233B553046BDE8F840BBE668
:1012F000D486FF1F374B384A2DE9F04153F8207050
:1013000060234343D51812F8038095F85A40B8F18A
:10131000020F0646204633D1FFF76CFD78B1F0236B
:10132000BB702046FFF7E4FD2046FFF76CFD85F813
:1013300001806B681B88113B6B80BDE8F081FB78F6
:1013400013F0100F4FF01203FB70BB7803F0DF03B4
:10135000BB70204608BF4FF00708FFF7C9FD2046C5
:10136000FFF762FD6B6820461D88FFF763FD103DA7
:10137000ADB22A1A4146304692B2BDE8F04187E646
:10138000FFF738FD50B1E823BB702046FFF7B0FDF2
:101390002046FFF738FD02236B70CAE71223FB706B
:1013A000BB7803F0DF03BB702046FFF7A1FD2046AA
:1013B000FFF73AFD6B681D882046FFF73BFD103DA7
:1013C000ADB2013D2D1AAAB230460721BDE8F04169
:1013D00078E700BFA8340000D486FF1F012089E70A
:1013E000002087E72DE9F041244B0779244A53F880
:1013F0002740A37943F05003A371A37903F0DF03DF
:10140000A3711223E37060237B43D5180221D154CA
:101410004FF000080123686006466B70A5F8028053
:101420003846FFF7C5FD014620B142463846BDE8C3
:10143000F0412DE695F85A70FF2F1BD03288103AF4
:1014400092B2032A16D906F110013846FFF783FD40
:101450003846211DFFF78FFD03236B70F123A37026
:1014600095F85A00FFF7BAFCB37A5B00DBB2237140
:10147000BDE8F081F023A370F6E700BFA8340000B8
:10148000D486FF1FF8B5184A60234343D5180C468D
:101490000321D154002701236B706F800646FFF7AC
:1014A00087FD014620B13A463046BDE8F84009E7DD
:1014B00095F85A700D4BFF2F53F826600BD0311D55
:1014C0003846FFF73BFD696831F8102B113A92B2AC
:1014D0003846FFF75DFD640044F00104F023E4B2F8
:1014E000B3703471F8BD00BFD486FF1FA83400006C
:1014F000F0B5103295B285B0064628460F4600F08A
:10150000B5FB044678B90390029001900090052342
:1015100030463A46032101F03EFDF0B2FFF7A4FD4C
:10152000204605B0F0BD0423837003230580868028
:10153000C7800372F4E738B504468088A289E18841
:10154000C5B2FFF7D5FF0C4A602303FB05235860A3
:1015500088B10A4B53F825309A7942F050029A71BB
:101560009A7902F0DF029A711222DA7061892846B4
:10157000BDE8384086E738BDD486FF1FA834000098
:10158000704702282DE9F04100F297804C4D05EBA1
:1015900080006023047A4B4804F007046343C618B4
:1015A000C15C002940F089800127C7544648474B59
:1015B000B3FBF2F3F3650768002C0CBF40238023D4
:1015C00043EA070355F8247003604FF020037B7152
:1015D00039703F4BF9713F4914BF9846884608EB74
:1015E00052034721B3FBF2F205F1140092B201F06D
:1015F0007DFC05EB8000384A037D7B70374B384813
:1016000098458CBF4FF004084FF00308802387F8FB
:101610000680002CBB704FF01203FB700CBF4FF024
:1016200080734FF000731360A2F5C0720835136029
:1016300096F85B2015F8223005EB8201C3F3C20354
:101640004F7850F823E08B78C3F3C203C7F3440705
:101650001B0243F064034EF8273035F8223055F86A
:101660002220C3F38213C2F3843250F823004B8844
:10167000C3F382131B0243F0640340F82230FFF7E8
:1016800073FBFF28054686F85A0013D0FFF741FC8C
:10169000144B15492846002C18BF1946FFF7D2FBFA
:1016A0002846FFF72BFC002C0CBF162117212846DB
:1016B000FFF73AFC2046BDE8F081FF24FAE700BFBF
:1016C000A8340000D486FF1F3480044040420F003D
:1016D00000A24A040051250280E200E0FF6BDC0218
:1016E000EC350000DD130000E113000001282DE9B6
:1016F000F041044672D86023394D4343EA18EB5C4D
:10170000002B6BD0374E92F85B70062B06EB8708E8
:1017100013D198F801203449C2F3440201239340C5
:1017200051F82220936016F82720C2F3C20251F824
:1017300022104A6922EA03034B61602363430021BC
:10174000EA18E9548C42294B51700CBF4FF080715C
:101750004FF00071196092F85A00FF2801D0FFF78E
:1017600097FB16F8272098F801302149C2F3C202EE
:10177000C3F3440351F822204FF0000842F82380BD
:1017800036F8272056F82730C2F38212C3F3843389
:1017900051F8222042F82380164B53F8243050226F
:1017A00083F802809A711222DA70602303FB0455D9
:1017B000686800F08DFA104AC5F804801368444543
:1017C0000CBF6FF040016FF080010B4013602046AA
:1017D000FFF706FC10B100F07BFAF8E7BDE8F081F6
:1017E000D486FF1FB0340000D835000080E100E04F
:1017F000EC350000A83400003480044008B5002017
:10180000FFF774FF0120BDE80840FFF76FBF0379C1
:10181000012B10B4014602D910BC00F059BA602265
:101820005A43054CA25C012A03D0184610BCFFF7AE
:10183000F9BB10BCD6E500BFD486FF1F70B5057993
:10184000012D044617D860236B430B4AD35C012B50
:101850000ED0008800F00AFA064660B121462288C0
:1018600001F0E4FD31462846BDE87040FFF7DABBE1
:10187000BDE870405FE670BDD486FF1F104B70B5A9
:101880006024054604FB00342378012B00D070BD92
:101890002846FFF7A5FB06460028F8D0037A042B5C
:1018A00005D1FFF748FE304600F012FAECE7062BB0
:1018B00002D1FFF715FCE7E7FFF794FDE4E700BF6F
:1018C000D486FF1FC2B260230D49534310B4CC5CD1
:1018D000042C01EB03000DD10524CC54094BC06D41
:1018E00053F822308021997000EB8000064910BC2B
:1018F000FFF75AB80120C85410BC1046FFF7BEBF0E
:10190000D486FF1FA8340000C51800002DE9F84F49
:101910000646664BDFF8989153F820404FF0600878
:1019200008FB06F8E07819F8081009EB0805022909
:10193000C0B295F801E04F465BD1C3060DD410F05C
:1019400001021CD0BEF1010F4DD0BEF1030F4CD1EE
:101950006B88002B14BF042103211223FF29E3709D
:1019600000F0A280A37803F0DF03A370602303FBE1
:10197000067730467A88BDE8F84FFFF789BBBEF19D
:10198000010F686804D1037C69702371FF21E4E7CB
:101990006B88B0F800E00133AEF1100E9BB21FFA75
:1019A0008EFE73456B8002D203441B7CEDE7037A05
:1019B000032B1CD0E170B0F806A0B0F80CB08788FB
:1019C000448900F085F9012309F808305A46514648
:1019D0003846FFF78DFD6860002865D02146304607
:1019E000BDE8F84F4EE50321B7E70421B5E71146FE
:1019F000B3E7032956D1D5F804C0BCF80030BEF1D6
:101A0000010FA3F110039BB21ED110F0100245D1BB
:101A1000C00745D4032B0BD995F85A00FF2807D0EF
:101A2000E1236970A370FFF7D9F92379FF2123E03F
:101A30006022012B02FB06724FF002018CBFE023F3
:101A4000E8235170A370F0E76A88991E8A4208BFA4
:101A5000E82103F1FF3308BFA1709A4202F10101AE
:101A60004FF06003624413D103FB06939020A070F3
:101A700059802379137400211223FF29E37013D0B6
:101A8000602303FB067730467A88BDE8F84F19E4F7
:101A900003FB0693598023791374C7E70221EBE710
:101AA0001146E9E71223E370BDE8F88FA83400007F
:101AB000D486FF1F0020FFF729BF0120FFF726BFB4
:101AC0000379012B10B4014602D910BC00F000B913
:101AD00060225A43054CA25C012A03D0184610BC70
:101AE000FFF7A0BA10BCFFF7FBBA00BFD486FF1FF8
:101AF00008B50B4D2C462B68580301D501F068F949
:101B00002368590501D500F00DF823681A0501D5A1
:101B100000F008F82368DB04EDD500F003F8EAE7ED
:101B20003480044008B5FFF7E3FF024B10221A800F
:101B3000704700BF0020054070470A4908B50B6890
:101B400068B16A461844A2F58052904206D301F06B
:101B500043FC0C2303604FF0FF3008BD08601846BB
:101B600008BD00BFF083FF1F002070474FF0FF301B
:101B700070474FF400534B600020704701207047BE
:101B80004FF0FF307047FEE7FEE70078B0FA80F0D4
:101B900040097047012303707047EFF31380A0B929
:101BA000EFF310839BB9EFF305825AB10F2A01D9E5
:101BB000074BD35CEFF3118212B1934228BF134657
:101BC000184670474FF48073F4E74FF0FF307047CA
:101BD000F0E300E07047FFFF7FB50021084600F00A
:101BE00029F8FEF7ADFE00F041F9FEF777FCFFF7AC
:101BF000C7FC0E4B022206AC1B6844F8183D0DEBE7
:101C0000020101A801F085F9094B02A81B680093A5
:101C10000422214601F07DF9002301A88DF810303F
:101C200001F07EF801F05DFBFCE700BF5C80044042
:101C30006080044010B50C4658B989B96C46094B10
:101C40001968641AA4F5825424F00704204601F0B0
:101C500001FC00234360044B04601C60586010BD0D
:101C60000060FFDEF083FF1F9487FF1F174BC21C2D
:101C700022F00302586870B54FF0FF31151D0024A3
:101C8000C8B94B1C16D0636802F1100081422DBF09
:101C9000196859686160491B2CBF5C181C4604F127
:101CA000040428BF1960204628BF5D50002101F0C0
:101CB000C8FB204670BD0668B54203D8B14284BF58
:101CC0001C46314603464068DAE700BF9487FF1F91
:101CD00030B5E8B150F8042C0E4B041F596809B117
:101CE0008C4212D8A5188D4204BF0D684968016066
:101CF00004BF521940F8042C19685D18AC4206D193
:101D00000A441A6002685A6030BD0B46E6E75C6020
:101D100030BD00BF9487FF1F044B5B68002003B9F0
:101D200070471A685B681044F9E700BF9487FF1F8B
:101D3000054B5B68002003B970471A685B689042E6
:101D400038BF1046F7E700BF9487FF1F032812D85B
:101D500010B9072902D9704701290CD8064B53F84E
:101D6000203012F0020F03EBC10114BF24222822FD
:101D70000023CB60CA607047003600000B2810B506
:101D80001CD80F4B0F4A03EB80035B7842F82010FE
:101D90000914C3F3C1044FEA531308D002EB440201
:101DA000128E02FB011147F6FF7291FBF2F1064A17
:101DB00052F82420013302EBC303996010BD00BF29
:101DC000F483FF1F9C87FF1F00360000F8B505460F
:101DD0002048042947F6122332BF02240346012477
:101DE000002003EB5103B3FBF1F1B1F5803FC3B227
:101DF00000F101002CD80029174E184F08BF01210F
:101E000006EB4500013989B20186D007144A03F078
:101E1000070352F8252043EAC40348BF43F02003D8
:101E20000024146054609160136056F824104A1C1A
:101E30004FEA840308D03B445B78C3F3C1039D425F
:101E400002D1E0B2FFF79AFF01340C2CEDD1F8BDBE
:101E50004908CAE7005125029C87FF1FF483FF1F32
:101E600000360000032800D8B0E7704738B53022AC
:101E7000FF21194801F0E5FA002210464FF4F471F1
:101E8000FFF7A4FF154B00242825DC602246DD6007
:101E90004FF4F4715C6101205D61DC61DD615C62C5
:101EA0005D62DC62DD625C635D63DC63DD635C6438
:101EB0005D64FFF78BFF0A4B2246DC604FF4F47140
:101EC000DD6002205C615D61FFF780FF054BDC6037
:101ED000DD605C615D6138BD9C87FF1F0080034051
:101EE0000090034000800B40F8B5114E002406EB33
:101EF0008407BB78834215D1E5B22846FFF73EFF41
:101F000016F8243003F00701DA080A4B53F82110C1
:101F10007B7803F007031B0243F0040341F82230EF
:101F20002846F8BD01340C2CE1D1FF25F8E700BFAD
:101F3000F483FF1FEC3500000B2810B512D80A4BB4
:101F40000A4A13F8203003F00701DB0852F8212079
:101F5000002142F82310FFF711FF054B4FF0FF322D
:101F600043F8202010BD00BFF483FF1FEC350000B4
:101F70009C87FF1F38B5064D002455F824300133E7
:101F800002D0E0B2FFF7D8FF01340C2CF5D138BDF8
:101F90009C87FF1F0D49602202FB001210B5537A87
:101FA000147A9C4210D00133DBB2132B88BF00237C
:101FB0005372602303FB001318225B7A02FB00308C
:101FC000043051F8200010BD002010BDD487FF1F41
:101FD00030B40D4D602404FB00540246237A607A2D
:101FE0000133DBB2142B28BF0023984208D01820FD
:101FF00000FB02320432237245F8221030BC7047D5
:10200000084630BCFFF764BED487FF1F2DE9F84FA8
:102010000546807AFF2802D00021FEF759FD2F796E
:10202000354E60237B43F2180221F550002392F8CD
:102030000AB011739380D38092F80BA02A88BBF169
:10204000FF0FA2F110091FFA89F904D0B9F1030FAB
:1020500094BF00230123294C2949E162216821F022
:102060000101216005F1100863B3113A92B205F144
:1020700011015846FEF76FFF22495846FEF77BFFD5
:1020800021495046FEF75AFF4A4641465046FEF760
:102090007FFF4FF4403323632B7C6363602303FB98
:1020A00007660123B3805046FEF798FE5846FEF7B8
:1020B00095FE236B43F0407323634FF00073E3629C
:1020C000BDE8F88F4FF4003222634FF000714B45AA
:1020D00006DAE26A920109D4226B42F000722263AE
:1020E000602202FB0766B380BDE8F88F18F8012B69
:1020F00062630133E162EAE7D487FF1F00C0024058
:1021000000000A9A34C0024038C002407FB504463D
:10211000017B0079FEF7DCFCE688A5882046FFF706
:10212000D7FD0023039302930193009332460421C9
:10213000284600F030FF04B070BD2DE9FF47602352
:1021400043431D4C54F803A005469AF80A00BAF818
:102150000460BAF80670FF288846914602D0012133
:10216000FEF7B6FC5046FFF7B3FD60226A4300233A
:10217000A118A35001220A738B80CB803A460393A7
:1021800002930193CDF8009043460221304600F0BF
:1021900002FF2846FFF7FEFE58B1037A032B03D156
:1021A00004B0BDE8F04731E7012BF2D1FFF7AEFFF5
:1021B000EFE704B0BDE8F087D487FF1FF0B56023D8
:1021C0004343204EF758F2183988D3881E4A1039F5
:1021D00089B24FF400358B421EDB602202FB0062A5
:1021E0004FF0007ED3809488174A8C421FDB602515
:1021F00005FB0065A2B28B42AA8022D1A34220D166
:10220000114B124C196841F001011960002119634A
:10221000DC62BDE8F04090E7D46AA403DDD5FC1889
:10222000D2F838E084F810E00133D562D3E7D56AFC
:10223000AD01DCD53D1901342D7C5563C2F82CE08D
:10224000D3E7F0BDD487FF1F00C0024000000A9A08
:1022500070472DE9F84FC4B20E2C00F027810D2CE9
:1022600014BFFF240024FF2C00F01D814FF0000B51
:10227000040A072C00F01D810B2C14BFFF2400243E
:10228000FF2C00F010810027974E4FEA8B0906EBD8
:1022900009004FEA8708847806EB0800C4F341047C
:1022A000807AC0F34100A04240F01081CDB2FF2DF2
:1022B00012D0082D00F0FF800C2D14BFFF25002543
:1022C000FF2D00F00381002506EB8501897CC1F319
:1022D0004101A14240F0FA808448602101FB0401E1
:1022E000824691F80CE0BEF1000F40F0EF80012033
:1022F00008737F488F73002C076881F80DB0CD7389
:102300000CBF4FF480514FF40051394302F00C02DE
:10231000784F0160082A7849396000F0CE800C2A95
:1023200040F0DB804FF0705242F00072FA60734A66
:10233000734802EB53023D21B2FBF3F292B200F07C
:10234000D5FD06EB8000028BF86812F04001C2F365
:10235000011302F00F0242EA0347334418BF40F072
:102360000040012A47EA000793F80C3100F2A880E8
:10237000022000FA02F25A4301B15208342192B20B
:10238000604800F0B3FD06EB8000B901B0F81031F1
:10239000C3F3011203F00F034CBF47EA032747EAD8
:1023A0000337544B4CBF47EA025747EA8257DF6076
:1023B00036F82B30544AC3F38213B14452F8230049
:1023C00099F8011056F82B30B044C1F34401C3F31F
:1023D00082331B0240F82130B8F8083098F8091011
:1023E000C3F38213C1F3440152F82300D8F8083034
:1023F000C3F382331B02FF2D40F821300FD006EBD0
:1024000085052B8A687CC3F38213C0F3440052F81D
:1024100023202B69C3F382331B0242F82030002CA7
:102420003A4A0CBF4FF080634FF000631360A2F58F
:10243000C0721360FEF798FC602303FB04AAFF2818
:1024400005468AF80A0043D0FEF763FD304B314958
:102450002846002C18BF1946FEF7F4FC2846FEF764
:102460004DFD002C0CBF112113212846FEF75CFD09
:10247000FEF77AFCFF2805468AF80B0013D0FEF71A
:1024800048FD254B25492846002C18BF1946FEF764
:10249000D9FC2846FEF732FD002C0CBF102112217A
:1024A0002846FEF741FD2046BDE8F88F4FF0010BAE
:1024B000DEE60127E8E6012506E74FF0705235E732
:1024C000022A01D0012054E7062254E7FF24EAE75C
:1024D000FEF7DEFC8AF80A50E5E7042A4FF0605266
:1024E0003FF422AF22E700BF10360000D487FF1F61
:1024F0003C80044000C00240010C008000512502D5
:102500002836000020370000EC35000080E200E0B3
:102510005D27000063270000092800000F28000045
:1025200010B40279084C602303FB024301461B7B75
:1025300013B910BCFFF7CCBB012B02D0104610BC66
:1025400046E510BC62E500BFD487FF1F10B4827A55
:10255000084C602303FB024301461B7B13B910BCEC
:10256000FFF7B6BB012B02D0104610BC30E510BC03
:10257000CCE500BFD487FF1F012870B504466FD893
:10258000384D602303FB00531A7B002A68D0364A7B
:102590001168002041F00101187311603349116086
:1025A0003349D1621063987AFF2801D0FEF770FC9E
:1025B000602303FB0453D87AFF2801D0FEF768FCA0
:1025C000002C2C4B0CBF4FF080624FF000621A6061
:1025D00060236343EE5866B1B07AFF2802D0012130
:1025E000FEF776FA3046FFF773FB60236343002261
:1025F000EA50602303FB04551F4B6A7B1F4833F8E6
:10260000221003EB8202C1F38211527850F821604C
:10261000C2F34402002146F82210AA7B03EB820297
:102620001689527AC6F38216C2F3440250F8266025
:1026300046F82210EA7BFF2A0BD003EB82031A8AAA
:102640005B7CC2F38212C3F3440350F8222042F8A9
:1026500023102046FFF79EFC10B1FFF739FBF8E787
:1026600070BD00BFD487FF1F00C00240010C008076
:1026700000000A9A80E100E010360000EC3500000E
:1026800010B5094C227B12B10020FFF775FF94F8BA
:102690006C3013B10120FFF76FFF044A136823F475
:1026A0004053136010BD00BFD487FF1F3C8004401F
:1026B0002DE9F041DFF8A0806025454308EB0507D0
:1026C0000646BC7AFF2C40D02046FEF7A1FB70B333
:1026D00058F805301D882046FEF7ACFB103DADB222
:1026E00001352D1A2046FEF79FFBFF7AFF2F08D0F9
:1026F0003846FEF779FB3846FEF796FB3846FEF77C
:10270000F7FB134B1A6842F001021A6000221A63A9
:10271000104ADA620721AAB23046FFF70EFD2046C2
:10272000FEF762FB2046BDE8F041FEF7E1BB204624
:10273000FEF760FB0028F5D0054A136B23F04073C9
:1027400013632046FEF75FFBE9E7BDE8F08100BFB9
:1027500000C0024000000A9AD487FF1F0120FFF743
:10276000A7BF0020FFF7A4BF2DE9F843234A602349
:10277000434302EB0309074699F80B40FF2C3BD07B
:10278000D35820461D88FEF755FB80462046FEF7AD
:102790003FFB0646204686B1FEF746FB99F80A60E5
:1027A000FF2E08D03046FEF71FFB3046FEF7A0FB99
:1027B0003046FEF739FB072605E0FEF71BFBD8B1D4
:1027C0002046FEF720FB0E4B1A6842F001021A6009
:1027D00000221A630B4ADA622046FEF705FB204608
:1027E000FEF786FBA5F11002A2EB0802314638463F
:1027F00092B2BDE8F843A0E4BDE8F883D487FF1F98
:1028000000C0024000000A9A0120FFF7ADBF00207F
:10281000FFF7AABF0020D1E40120CFE470B50D4A34
:102820000D4D147844F0020605EBC60384F0010454
:10283000586050781470002814BF4023002343EAE6
:10284000014180F0010041F08801507045F83610D8
:1028500070BD00BF9488FF1F0080FF1FF0B5194BAB
:10286000DFF864E09A889C795E889F68B11A44F02A
:10287000060C89B20EEBCC00402907EB020528BFFD
:10288000402145601D7B0A4492B2002D14BF4020B8
:10289000002096429A8098BF03EB840240EA0140F0
:1028A0009EBF176100229A6084F001029A711A7E1D
:1028B00085F00101013240F0880019731A764EF854
:1028C0003C00F0BD9488FF1F0080FF1F084B5A7E1C
:1028D000997E91420AD00132D2B2272A88BF0022C3
:1028E0005A765A7E03EB8203D869704700207047FE
:1028F0009488FF1F10B4114A92F8BC30022B014695
:102900000FD1137E012B11D9937E547E0133DBB29C
:10291000282B28BF00239C4205D002EB830093762E
:10292000C16110BC704710BCFFF7D2B90388538057
:1029300010BC90600023938090E700BF9488FF1F35
:1029400008B5FFF7C3FF10B1FFF7C2F9F9E708BDFB
:10295000F8B52C4C2C4E04F1C00272602B4A326048
:1029600004F58072F2602A4AB2602A4A00250D21DD
:1029700035612570B56165707561F5611170074647
:1029800020693562A571B562257335637562F5629C
:102990007563F563B56310B1FFF79AF92561606956
:1029A00018B1FFF795F900236361A06818B1FFF72C
:1029B0008FF90023A36000252576FFF7C1FF012FC3
:1029C000154B0CBF05222A461A70144B736403F191
:1029D0004003F3640E4B0D4A3264B36403F17F533A
:1029E00003F5E4230CBF09222A46356584F84051DB
:1029F00084F841517565F565B5651A70084B01227B
:102A00001A70F8BD9488FF1F0080FF1F88004000E7
:102A1000C8004000C0200740C4200740D889FF1FDD
:102A2000908AFF1F80088B4B53F83020C2F383023B
:102A3000092A2DE9F04100F0DD800D2A06D0012A97
:102A400002D1854A43F83020BDE8F08103EBC00293
:102A5000824C51680A68C4F8E8214A68C4F8EC213D
:102A60007D4A43F830200025B4F8E8211D619D61BE
:102A700040F2816301269A42667010D8B2F5D06F99
:102A800029D2822A7AD005D8802A71D2744B0F229B
:102A90001A7066E0B2F5A06FF8D12B4639E0B2F5B6
:102AA000106F00F08A800AD8B2F5086FEED194F862
:102AB000F03184F8C431334604F5E27529E0A2F51B
:102AC0000B52012AE2D8B4F8EC31042B40F08B8091
:102AD000644D2B781DE0B4F8EA2140F203339A42AA
:102AE00005D1B4F8EC1140F2094399420DD0B4F885
:102AF000EC115D4B5D68002DC8D01888904235D12F
:102B00005888884232D11B7A03E094F8CC3104F51E
:102B1000E675B4F8EE619E4228BF1E46402E374649
:102B200028BF4027F61B28463946B6B2FFF776FE87
:102B30003D440EB9402F14D1402E374628BF4027C0
:102B40001FFA87F8A6EB080641462846B6B2FFF7FB
:102B500065FE0EB9402F04D13D44C4F8F451A4F8E9
:102B6000F861424B01221A70BDE8F0810C33C1E7D5
:102B700084F8C451022384F8C5519DE794F8BC2021
:102B800094F8EC31022A03F07F0312D0002B7FF47B
:102B90007DAF002284F8C42184F8C521304A12F8A0
:102BA00023309B0702D5012384F8C4310223304D22
:102BB000AFE7032B3FF66AAFEBE7B4F8EA31012B3E
:102BC0003FF664AF002BD8B20CBF0123022384F878
:102BD000F00184F8BC30FFF7BBFE6670C4F8F45116
:102BE000A4F8F85159E7052B7FF457AF1D4D15F8A0
:102BF000283F8EE7194CD4F8F451BDB1B4F8F86110
:102C0000402E374628BF40271FFA87F8A6EB080654
:102C100028464146B6B2FFF701FE3D44A4F8F861EC
:102C200016B9402F18BF0025C4F8F451B4F8E831A4
:102C3000B3F5A06F7FF408AF0E4B94F8EA211A7039
:102C4000B4F8EA310BB984F8BC300023A4F8E831B9
:102C5000BDE8F0810080FF1FC80040009488FF1F7E
:102C6000C02007402484FF1FF03700009420074055
:102C7000588AFF1F98200740094B93F8BC20022A6E
:102C80000CD193F8403143F00802064B53F8321050
:102C9000090603D403EBC20358687047002070474D
:102CA0009488FF1F0080FF1F0A4B93F8BC20022A64
:102CB0000DD193F84031084A43F0080352F833101D
:102CC000090604D452F83300C0F3094070474FF0AE
:102CD000FF3070479488FF1F0080FF1F30B50C4BFA
:102CE0000C4C93F8402193F841110B4842F0080531
:102CF000002908BF204682F00102084C83F84021D9
:102D000081F0010183F8411144F8350030BD00BF66
:102D10009488FF1F88004000C80040000080FF1F0B
:102D2000234A032310B5002182F8CD31CBB2013103
:102D3000C45C002C36D101335B0082F8CC311D4AD3
:102D4000136843F4802313601B4B80221A701A7897
:102D50001206FCD4194A1A49C2F307200870C2F3BC
:102D60000740120E08750A76FF2201F81C2C01F8A4
:102D7000142C01F88C2C1A7842F040021A70114A77
:102D800001230021137082F86C1002F8103C0E4AE7
:102D90004FF400731360A2F5C07213600B4B102246
:102DA0001A7010BD02EB4303A3F8CE41BEE700BF8B
:102DB0009488FF1F348004400C2107400080FF1FCF
:102DC0009C2007409420074088E200E0082107404B
:102DD0002DE9F0473D4E3E4F35463378DBB25C0778
:102DE00044BF0422327013F0080842D03878C0B2D1
:102DF000030904D1FFF716FE08232B70EDE7012B22
:102E000030D18408334850F83430C3F38303092B9E
:102E10008146F1D1DFF8D08004F0010A08EB8A0A7C
:102E2000DAF8100020B1FEF753FF0023CAF8103083
:102E300009EBC4000023436098F81830D8F8084024
:102E4000013B88F8183054B9FFF740FD0028D3D073
:102E50000388C8F80800A8F80230A8F80440FFF773
:102E6000FDFCC9E7022B02BF80081A4B53F8303033
:102E7000C2E7D80715D5184C237843F00203237016
:102E80004046FFF765FD154AFF2313702B7082F84B
:102E900010801371124B9F221A7001232370BDE81A
:102EA000F087190604D50F4A0D21117080222A706F
:102EB0009A0705D509490A78D2B20A7002222A7007
:102EC000DB0644BF10232B70BDE8F087802007404D
:102ED000902007400080FF1F942007408820074073
:102EE00084200740C02007409488FF1F70B5013937
:102EF00000240225A14201DC88B270BD0B1993FBAE
:102F0000F5F300EB83067688964234BF5C1C1946C5
:102F1000F0E730B5084C023002B930BD013A92B248
:102F20008B5C1D0903F00F03655DE35C00F8025C38
:102F300000F8013CEFE700BF5038000008B5FDF78E
:102F400017FDFDF7CDFEFDF751FCFFF713F8FEF777
:102F500055FCFFF795FBBDE80840FFF7F1BC2DE9F4
:102F6000F84381461020884617461E46089DFEF706
:102F70007DFE70B11023038002238370A0F80890B7
:102F8000A0F80480C7804681C560BDE8F843FFF71C
:102F9000B1BCBDE8F8832DE9F74FBDF83C60019363
:102FA00006F11005ADB28246904628460D9ABDF84E
:102FB000309000928B460E9FFEF758FE0446D0B12B
:102FC0000421019B009A05808170A0F804A080F87C
:102FD00008B04372A0F80A90C260A0F8068026B13B
:102FE00032463946103000F021FA204603B0BDE8E1
:102FF000F04FFFF77FBC03B0BDE8F08F1FB5002492
:1030000001930394029400942346FFF7C4FF04B095
:1030100010BD37B50B7804461BB100230B7003B00D
:1030200030BD03681888FEF721FE2168054620B1EF
:103030000A8800F0FBF92560F1E78B78CA88888858
:10304000012B06D1014600952B460220FFF787FF92
:10305000F1E702230521FFF7D1FFECE730B58378D4
:1030600085B0012B04468DF80B1040F0BA80038820
:10307000142B60D1037A012B52D1437A012B16D144
:10308000018A037B807A01F0FE0201F00101FDF765
:1030900039FD238A40F48075DB07ADB219D4FDF702
:1030A000D9FD83B20020E2880090294694E0022BEB
:1030B00011D18289018A807AFDF736FAFF2805D17D
:1030C00001200023E288A188009385E040F400708D
:1030D00085B20023E6E7032B09D1B0F90C10807A02
:1030E000FEF702FFFF28EBD040F44070F0E7042B1E
:1030F00009D1C268018A807AFEF743FAFF28DFD03F
:1031000040F48060E4E7052BDAD1C368028A418A83
:103110004089FFF79EF8FF28D2D040F40060D7E73F
:10312000022B26D1808800F47F43B3F5807F04D141
:10313000C0B2FDF7A3FC0020C3E7B3F5007F03D1C5
:10314000C0B2FDF72FFAF6E7B3F5407F03D1C0B266
:10315000FEF7F2FEEFE7B3F5806F03D1C0B2FEF7E2
:10316000C5FAE8E7B3F5006FAAD1C0B2FFF704FAD9
:10317000E1E7032B02D1FFF7E1FEDCE7042B10D1DE
:10318000437A012B05D1028AC168807AFEF76AFE74
:10319000D1E7022B94D1028A017B807AFEF7D6FD1B
:1031A000C9E7052B8CD1437A012B03D1FEF7B4FD7F
:1031B00000250CE0022B02D1FEF7BAFDF8E7032B45
:1031C0000DD0042B0BBF5020002000250125E288E4
:1031D000A188009000232846FFF7C1FE16E00220D8
:1031E000E6E7032B12D1038803900F2B0ED9027A46
:1031F0008588012A05F47F4326D1B3F5807F1BD152
:1032000043895BB9017BE8B2FDF762FC9DF80B30A6
:1032100013B12046FEF75CFD05B030BD03F47F43DB
:10322000B3F5006FF2D103A80DF10B01FFF7F1FE2A
:103230000398FFF78BF9E9E7B3F5407FE6D1C16862
:10324000E8B2FEF79BFDE1E7022A14D1B3F5807FD7
:103250000AD1E8B2FDF7FEFC039D0346EA88A88880
:103260000121FFF7CBFED1E7B3F5007FCED1E8B265
:10327000FDF7CEF9CAE7032A17D1B3F5806F08D15D
:1032800003A80DF10B01FFF7C4FE0398FEF7BFFA88
:10329000BCE7B3F5006FB9D103A80DF10B01FFF73F
:1032A000B8FE0398FFF73CF9B0E7042A05D1B3F55F
:1032B000806FABD1FEF7C2FAA8E7052A03D1B3F5B8
:1032C000806FA3D1DCE7062AA0D1B3F5806F9DD132
:1032D00003A80DF10B01FFF79CFE0398FEF7F0FB2E
:1032E00094E72DE9F84F3A4C23782BB10023237053
:1032F00072B6FFF723FE62B6FFF7D6FC051E4FDD60
:1033000072B6FFF7B9FC63880746002B39D0012B52
:103310000BD10378A08800EB032080B2A080FEF7D9
:10332000A5FCA06008B1A3880380B4F802A0B4F89B
:103330000490D4F808801FFA85FB55444D45C6BF5C
:10334000A9EB0A06B6B25E46B8F1000F05D03246C8
:10335000394608EB0A0000F069F8ABEB0605374484
:103360005644B6B2B1452DB266800AD1B8F1000F0D
:1033700003D001214046FFF771FE00236380A38044
:10338000A360012D04DC08D13B786580A38004E0B4
:103390003E88B5420EDB072E04D8FFF79FFC62B6CD
:1033A000BDE8F88F38460021AD1BFFF757FE3744C4
:1033B0002DB2E6E73046A680FEF758FC6580A06097
:1033C0000028EAD02A46394600F030F8E5E700BF89
:1033D000908AFF1FFDF738BA014B1868704700BF8D
:1033E0006085FF1F70B50D4E0D4CA41BA410002569
:1033F000A54209D10B4E0C4C00F032FAA41BA410CC
:103400000025A54205D170BD56F8253098470135F5
:10341000EEE756F8253098470135F2E76C380000A2
:103420006C3800006C3800007038000010B5431E86
:103430000A44914200D110BD11F8014B03F8014F2D
:10344000F7E702440346934200D1704703F8011B9B
:10345000F9E7FFFF024B0146186800F003B800BF10
:103460006085FF1F38B5064C0023054608462360DB
:10347000FEF763FB431C02D1236803B12B6038BD08
:103480009C8AFF1F81890360683B23131B1A223229
:103490003A2A0B02010919112B330A1228990C4AF6
:1034A00042525A049120FFFF00600640007006401F
:1034B0004840900048C4900091D49200000015004C
:1034C000010017000200190003001B0008001D0086
:1034D00005001F0009002100060023000A00260045
:1034E00007002A000C002E000D00320043003600B9
:1034F0000E003A0045003E00120042000F00460058
:1035000013004C001400540015005C001900640006
:1035100016006C001A00740085007C0017008400FF
:103520004F008C001C0098001D00A8005500B8003A
:103530001E00C8005600D8002200E8001F00F80056
:10354000230008018F0018012400300125005001DC
:1035500095007001260090019600B0012A00D0016C
:103560002700F0012B001F022C005F022D00BD027E
:103570002E003E0332009F032F00DF0333003E0482
:103580003400BE0435007A0536007B063A003F075A
:103590003700BF073B007C083C007D093D00F40A72
:1035A0003E00F60C7A007E0E3F007E0F7B00F81086
:1035B0007C00F9127D00E9157E00EC19BA00FC1CB4
:1035C0007F00FC1EBB00F121BC00F325BD00D12B08
:1035D000BE00AA35BF00000000F00F4040F00F40D1
:1035E00080F00F40C0F00F4000F10F400090044009
:1035F00000A0044000B0044000C0044000D00440DB
:10360000008003400090034000800B4000900B407E
:103610008D8A0000CE8200008B8C0000C7840000E1
:103620008C8E0000C886000040000200500003009D
:103630000000040060000500100006007000070094
:10364000010008005200090020000B0011000D00CD
:1036500030000E0062000F00030011001200130082
:10366000210014007200160013001A0031001D0022
:1036700022001F00040024002300290032002D0036
:103680001400340033003C000500480024005800BA
:10369000150068003400780006008F002500AF0098
:1036A0001600CF003500EF0007001E0126005F0165
:1036B00017009F013600DF0108003C022700BD0211
:1036C00018003E033700BE030900790428007A057C
:1036D00019007B0638007C070A00F2082900F40A6A
:1036E0001A00F60C3900F70E0B00E3112A00E91559
:1036F0001B00EC193A00EF1D0C00C7232B00D12B47
:103700001C00D9333B00DE3B0D008E472C00A35735
:103710001D00B1673C00BC770E00000002030507E6
:10372000000004000100080010000C00020010005E
:10373000200014001100180030001C0003002000BD
:103740002100280012003000310038000400400041
:10375000220050001300600032007000050080005D
:103760002300A0001400C0003300E00006000001A8
:1037700024004001150080013400C0010700000250
:1037800025008002160000033500800308000004B5
:103790002600000517000006360000070900000893
:1037A0002700000A1800000C3700000E0A00001065
:1037B00028000014190000183800001C0B0000201D
:1037C000290000281A000030390000380C00D047CA
:1037D0002A0000501B0000603A0000700D000080BD
:1037E0002B0000A01C0070D73B0000E00E00000082
:1037F000000100004E85FF1F1200000000020000C3
:103800002E85FF1F20000000010200002E85FF1FF3
:1038100020000000000300002A85FF1F04000000B4
:1038200001030904FE84FF1F2C00000002030904A9
:10383000EC84FF1F12000000EE030000DA84FF1F7B
:103840001200000000000000000000000000000066
:103850003031323334353637383961626364656606
:10386000F8B500BFF8BC08BC9E46704735040000A0
:04387000F8B500BFE8
:103874002C007000400048006800600034003C00E8
:10388400780024000000980018009900B80029006E
:103894002D00250035003D002100B000D000F000CF
:1038A400D800FE00A08AFF1F600B0300682B0400F1
:1038B4003BE40500238406001A44090022640A003C
:1038C4002BA4140033C415000A0416001224170094
:1038D400993319009113200028000000000104000E
:1038E4000100000000000000000157494E555342FA
:1038F40000000000000000000000000000000000C4
:103904008E00000000010500010084000000010099
:10391400000028004400650076006900630065002B
:1039240049006E0074006500720066006100630067
:103934006500470055004900440000004E000000A7
:103944007B00640030003100300062006100390007
:1039540030002D0030003200350061002D003400AD
:103964006300390034002D006200320064006200FC
:103974002D00610031003300660032003000350054
:10398400640034003300370065007D00000012033A
:103994004D00530046005400310030003000220036
:1039A400120357006900720065006B00690074001F
:1039B40065002C034D0061006E00750065006C000D
:1039C400200042006C006500690063006800650027
:1039D4006E00620061006300680065007200040309
:1039E40009040902200001010080FA090400000210
:1039F400FF000000070581024000000705020240A5
:103A0400000012010002FF00004009127E31500044
:103A1400010203016485FF1F000000000000000094
:103A24000000000000000000000000000000000092
:103A34000000000000000000000000000000000082
:103A44000000000000000000000000000000000072
:103A54000000000000000000000000000000000062
:103A64000000000000000000000000000000000052
:083A740000000000000000004A
:00000001FF
