:1000000000180020C100000021160000E5150000C6
:10001000E5150000E5150000E5150000E5150000F8
:10002000E5150000E5150000E515000021160000AB
:1000300021160000E515000021160000AD27000084
:1000400021160000211600002116000021160000D4
:1000500021160000211600002116000021160000C4
:10006000551400005F140000211600002116000046
:10007000351C00002116000021160000AD0700000D
:100080002116000021160000211600002116000094
:100090002116000021160000211600002116000084
:1000A00091220000211600002116000021160000F8
:1000B0002116000021160000510A0000970A0000D6
:1000C000F8B501F0B0FA454A454B1A60454A464B2F
:1000D0001A60464A464B1A600823464A117819426C
:1000E00002D011780B4313702A22434B43481A70F5
:1000F00000234349434C1A188A4268D30021424BDB
:10010000424A934267D30023414C424A99581951BD
:100110000433C02BFAD1403B00220327FF269C4624
:1001200093083D4910009B005B1831003840C00027
:1001300081401D6801328D43290065468540294371
:100140001960202AECD1354B6A321C60344B1A708E
:10015000344B663A5A707C321A709E3A9979114241
:10016000FCD0102299791142FCD10C219A790A40D5
:10017000082AFBD1053A1A713D325A71203A997911
:100180001142FCD0402299791142FCD02649274ADD
:10019000116020220C211A709A790A400C2AFBD196
:1001A000234A244B1A60244A244B1A600022244B11
:1001B0001A60244B07321A60234A244B1A6062B635
:1001C00002F07AFC01F036FA01F092FAFEE7E55807
:1001D000043315608FE702C393E7C046300004F094
:1001E00034800440823F0000388004400100000F4A
:1001F0003C80044002D0074000E00740C0F9FF1FE8
:10020000B0FBFF1F3C2D0000B0FBFF1FF0000020E3
:1002100000F9FF1F0000000000E400E008ED00E02E
:100220000050064000400640000001104480044099
:10023000C0000505048004407FBB000014E000E01E
:1002400018E000E010E000E00000202020ED00E0D9
:10025000FFFFFFFFFFFFFFFFFFFFFFFFFFFFFFFFAE
:10026000FFFFFFFFFFFFFFFFFFFFFFFFFFFFFFFF9E
:10027000FFFFFFFFFFFFFFFFFFFFFFFFFFFFFFFF8E
:10028000FFFFFFFFFFFFFFFFFFFFFFFFFFFFFFFF7E
:10029000FFFFFFFFFFFFFFFFFFFFFFFFFFFFFFFF6E
:1002A000FFFFFFFFFFFFFFFFFFFFFFFFFFFFFFFF5E
:1002B000FFFFFFFFFFFFFFFFFFFFFFFFFFFFFFFF4E
:1002C000FFFFFFFFFFFFFFFFFFFFFFFFFFFFFFFF3E
:1002D000FFFFFFFFFFFFFFFFFFFFFFFFFFFFFFFF2E
:1002E000FFFFFFFFFFFFFFFFFFFFFFFFFFFFFFFF1E
:1002F000FFFFFFFFFFFFFFFFFFFFFFFFFFFFFFFF0E
:10030000FFFFFFFFFFFFFFFFFFFFFFFFFFFFFFFFFD
:10031000FFFFFFFFFFFFFFFFFFFFFFFFFFFFFFFFED
:10032000FFFFFFFFFFFFFFFFFFFFFFFFFFFFFFFFDD
:10033000FFFFFFFFFFFFFFFFFFFFFFFFFFFFFFFFCD
:10034000FFFFFFFFFFFFFFFFFFFFFFFFFFFFFFFFBD
:10035000FFFFFFFFFFFFFFFFFFFFFFFFFFFFFFFFAD
:10036000FFFFFFFFFFFFFFFFFFFFFFFFFFFFFFFF9D
:10037000FFFFFFFFFFFFFFFFFFFFFFFFFFFFFFFF8D
:10038000FFFFFFFFFFFFFFFFFFFFFFFFFFFFFFFF7D
:10039000FFFFFFFFFFFFFFFFFFFFFFFFFFFFFFFF6D
:1003A000FFFFFFFFFFFFFFFFFFFFFFFFFFFFFFFF5D
:1003B000FFFFFFFFFFFFFFFFFFFFFFFFFFFFFFFF4D
:1003C000FFFFFFFFFFFFFFFFFFFFFFFFFFFFFFFF3D
:1003D000FFFFFFFFFFFFFFFFFFFFFFFFFFFFFFFF2D
:1003E000FFFFFFFFFFFFFFFFFFFFFFFFFFFFFFFF1D
:1003F000FFFFFFFFFFFFFFFFFFFFFFFFFFFFFFFF0D
:10040000FFFFFFFFFFFFFFFFFFFFFFFFDEF9FFFF23
:1004100010B5064C2378002B07D1054B002B02D0DA
:10042000044800E000BF0123237010BDB0FBFF1F94
:10043000000000003C2D0000084B10B5002B03D03D
:100440000749084800E000BF07480368002B00D1B7
:1004500010BD064B002BFBD09847F9E700000000C9
:10046000B4FBFF1F3C2D0000B0FBFF1F000000008D
:1004700010B50A4B4000C15CC45AC908084B102291
:10048000600707D5186802431A604023054A0B43EA
:10049000136010BD186890431860F6E7C0F9FF1F9D
:1004A0000CB0034000B0034038220B4B80211A608F
:1004B0000A4B353A1A600A4B023A1A608022094BFD
:1004C000090209481960036812061B021B0A13433C
:1004D0000360064B1960704708B003400CB003403E
:1004E00020B0034080E200E00CE400E000E100E026
:1004F00043B270B5002B01DA7338C0B2102827D888
:1005000004D1012313490C7823430B7000231249B3
:10051000CB56002B0ED1114B0333DC7FFE2C09D1BF
:1005200040255F260E4C25600E4D2E6087252560E8
:10053000FC24DC77002A0AD00C254C780B1D65437F
:100540005B191A60002201345A6018724C7070BD39
:10055000FF20FCE702D00740CCFBFF1FC0F9FF1FC4
:1005600024B0034000B003400C23F7B59C4600279D
:10057000144E00900C36134B5A78974208DB009BC0
:10058000102B04D10121104A13788B431370F7BD4F
:10059000337800998B420DD16146330051430B4CA7
:1005A0000C396118083B019101998B4205D1054B2B
:1005B000013A5A7001370C36DDE71C000C3423CCAD
:1005C00023C3F1E7CCFBFF1F02D00740D0FBFF1F86
:1005D00010B50E4B0333DA7FFE2A03D1D877FFF72D
:1005E00047FF10BD0A4A130064331B780133DBB2A6
:1005F000072B00D900231100653109789942F0D00A
:10060000110064326631C8541370EAE7C0F9FF1F65
:10061000CCFBFF1FF8B5344A0400D31CDE7F3349FE
:10062000731DDBB2012B54D83148324B1B6807686D
:100630003148DB19066831489B19056830485B1959
:100640000068304D1B189BB22F485B0803439BB2D8
:100650002B602E4B2E4D1B682D68AC462D4D6344F0
:100660002F682D4DDB192E682C4D9B192D68FD260A
:100670005B199BB25B08034329489BB203601F23AD
:100680000B6004210025274B1960274B0339197093
:10069000254908000F006530643703783F789F4292
:1006A0001ED00133DBB2072B18D803700800653168
:1006B0000B786630C05C0332D077FFF7D9FEEA02D0
:1006C0006B0513436A0013436D0A1D433000256018
:1006D000F8BD164B1D681F230B60D9E70023E4E724
:1006E000FE230332D377EAE7C0F9FF1F00B00340CF
:1006F00048B003404CB0034044B003403CB003401A
:1007000038B003402CB003400080FFFF6CB00340C2
:1007100068B0034064B003405CB0034058B003408D
:1007200030B0034024B00340CCFBFF1F10B00340A7
:1007300080220D4B120210B51A601F22FE200B4BB7
:100740000B491A600B4B21321A600B4B0331C877EF
:100750001900002264310A70190065311A700A709C
:100760005A70FFF7A1FE10BD80E200E000B0034028
:10077000C0F9FF1F24B00340CCFBFF1F70B500255C
:10078000094E341D73789D4200DB70BD636822689A
:100790000133934292411340636002D1207AFFF704
:1007A00017FF01350C34EDE7CCFBFF1F07B501A89F
:1007B000FFF730FFC31CDBB20200012B08D98020F9
:1007C0008000104380B2019B0022012101F04AFE0B
:1007D00007BD10B5FFF7EAFF10BDC04630B50D4BA1
:1007E0004000C25C181801234178540799434170B6
:1007F0000949E00E4558D20894002C1980259340F1
:1008000009184A696D0425605169994351619360E3
:1008100030BDC0463AFCFF1F5C2B00000122084B94
:100820004000C35C5807DB089A40064BC00E1B18FB
:100830005B69002901D05A6070479A60FCE7C046A6
:100840003AFCFF1F5C2B0000F0B587B00D001600CE
:100850000593FF241A2800D989E036210024464B4D
:1008600059568C4244DB02D13633621C1A70002C7C
:1008700013D18022414B4249D2051A600A6080227E
:10088000404F12061A603B88190080231B0419434D
:100890000B0013433B603A4B1A603B4F6100381822
:1008A0002830037802205A07DB080293029B520F7C
:1008B000DB0013430192304A8B5413000122591874
:1008C0004B78134383434B70029B9A40019B0392E6
:1008D00083400493002D13D1FF187A69039953695B
:1008E0008B43536173071FD4330743D5892317E024
:1008F00062009A185278D207B9D50134E4B2B0E751
:1009000005992000FFF78AFF049B0399FF187A6975
:10091000536919435161012DE4D1330702D5A22354
:100920005B0003E08223FBE71423FF33019A1648A0
:100930009100029A095892008A181360002D16D16E
:1009400030231E4213D00C4963008C4602216344BD
:10095000587801435970F30601D590252D03B3064D
:1009600002D5A0231B031D4313681D4315602000FF
:1009700007B0F0BD8823D3E73AFCFF1F80E200E018
:1009800000E100E01CE400E05C2B0000084B4000AC
:10099000C35C084A5907C90E52185269DB0810692E
:1009A00001229A401040431E9841C0B27047C04691
:1009B0003AFCFF1F5C2B000070B53624802100201C
:1009C0000E4A0F4D14574904A04201DBFF2012E0EC
:1009D0004300D6187678B6070ED5D35C5E07F60EC0
:1009E0007659DB089B00F3181E680E4204D01A6883
:1009F000C0B21143196070BD0130E5E73AFCFF1F3A
:100A00005C2B000010B500240E4B00211A0036327A
:100A100051568C420CDB0023137080220A490B4B89
:100A2000D2050A601A60802212060A601A6010BDA0
:100A300062009B185B78DB0702D5E0B2FFF7CEFEC1
:100A40000134E1E73AFCFF1F80E100E080E200E0D2
:100A500070B580256D00FFF7AFFF0400FF2809D0B7
:100A6000FFF794FF2C4303000022A0B2012101F004
:100A7000F9FCF0E770BD10B5FFF7EAFF10BD10B547
:100A8000FFF7E6FF10BD10B5FFF7E2FF10BD10B590
:100A9000FFF7DEFF10BD10B5FFF7DAFF10BDC0464F
:100AA000154810B50368002B0AD1144A01331168A8
:100AB000FF330B4313600223114A11680B43136089
:100AC00000230122016814000C400ED10A43026089
:100AD0000C4AD8B21B019B18802252049A608022D3
:100AE0009205DA601C605C6010BD01335200042B7B
:100AF000E9D1FF20F8E7C04674FCFF1F40800440A6
:100B00003C80044000810040104A03019B18802271
:100B100052049A6080229205DA6000221A605A60BC
:100B20000B4BC3181A70012383400A4A116899437A
:100B300011600AD1084A094913680B401360084A3A
:100B400004311368FF318B4313607047008100400C
:100B50000010024074FCFF1F40800440FFFEFFFFB6
:100B60003C800440044B0001C0188023C268DB05B0
:100B70001343C3607047C04600810040034B00012F
:100B8000C018C368024A1340C36070470081004028
:100B9000FFFFFFBF034B0001C0188068C001C00FFA
:100BA0007047C04600810040054B0001C018E0239B
:100BB0008068DB051840431E9841C0B27047C046AC
:100BC00000810040034B0001C01880680002000A49
:100BD0007047C046008100400300074A10339B0065
:100BE00099504311054A9B009B181F2210401E3A42
:100BF00082401A607047C04600F9FF1F00E100E024
:100C00004311044A9B009B181F2210401E3A824049
:100C10001A60704780E100E0034B0001C018802398
:100C20005B0483607047C0460081004010B5FFF749
:100C3000F3FF10BD10B5FFF7EFFF10BD044B00012F
:100C4000C0188023C2681B061343C3607047C046A8
:100C500000810040034B0001C0188023C268134389
:100C6000C360704700810040084A03019B1880223E
:100C700010B5DC6892052243DA60054BC0180023EA
:100C8000037080331943017010BDC04600810040DD
:100C900000100240054B0001C0180160C368044AFF
:100CA0001A4080235B031343C360704700810040F8
:100CB000FF0F8EF0064B0001C0180160C3680549A4
:100CC0001940A023DB030B43C36082607047C0461A
:100CD00000810040FF0F8EF0054B0001C0184160FD
:100CE000C368044A1A4080239B021343C3607047C1
:100CF00000810040FFF0F0F0064B0001C018416099
:100D0000C36805491940A0231B030B43C3608260DD
:100D10007047C04600810040FFF0F0F0202110B580
:100D20000D4B8200D25893780B4204D0B4239370B9
:100D30000023180010BDD3780B4006D03C230122BD
:100D40005843064BC2540623F3E7B02494709278BC
:100D50000A42F3D0EDE7C046A02B000078FCFF1F4D
:100D6000F0B5103295B285B0070028000E0000F0F3
:100D700009FD041E0CD10390029001900090052300
:100D800032000321380001F03CFB200005B0F0BD2B
:100D900004238370013B0580878046818371F4E7DB
:100DA0007047FF23F7B594460093022800D9A3E0CB
:100DB0003C21614E8300F218147A604A6407640F84
:100DC00061438D5C002D00D096E001358D545218A2
:100DD0003B3200941070002C00D08FE04022584924
:100DE000086802430A60E027A200B5582022F318E1
:100DF000187A597A8006400F8000301889064069B9
:100E0000C90E89004118987AFF00400138406427D4
:100E10006A71002238432A70EA71086019891A0041
:100E2000C905490F9B68890076185B037169DB0E61
:100E30009B00CB18E02108325288C90092000A407A
:100E400017431F60002C60D03E4E6346580880193F
:100E5000614601F0B5FC83B20193372700239F421E
:100E600055DC372B63D0002B0FD0334A5F1EB900FF
:100E700051189A009446304A498D6244528D80B28E
:100E8000411A101A814200DA3B002B4A9B0028329B
:100E90009B5C04206B702B4B9E4203D02A49300090
:100EA00001F08EFC8023C0B2A871AB706E3BEB707A
:100EB000002C3ED0EF33FF33244A1360FFF7F0FDE0
:100EC0003C2262431D4B05009B183A331870FF28E3
:100ED00012D0FFF7BFFE1E49002C00D01D4928008C
:100EE000FFF77AFE2800FFF7A9FE21004C1EA14162
:100EF00028001631FFF7B8FE0098FEBD012C00D087
:100F000071E70F49802208686BE7134E9DE7F918D7
:100F100049108A009446084A94446246528D944689
:100F2000019A624501D94B1C99E70F0097E73623D8
:100F3000ABE780235B00BFE7A02B000078FCFF1F1E
:100F400034800440006CDC02001BB70000E100E0CC
:100F5000D7110000CD11000000366E0170473C2310
:100F60004343104A30B5D3181C00383339341D7848
:100F7000217800238D420FD00131C9B20B290DD841
:100F800021703C234343D318393319780F23584336
:100F90004018023080001358180030BD0023237021
:100FA000EFE7C04678FCFF1F10B5FFF7D8FF041E1F
:100FB00007D08379042B05D100F048F9200000F018
:100FC00011FC10BD00F028F8FBE7F0B53C244443C9
:100FD000104E89B03719050078680691079283880A
:100FE00004934389059300F0FDFB002301227B60FD
:100FF000A255039302930193079B059A0093022144
:10100000069B049801F0FDF92800FFF7CDFF09B019
:10101000F0BDC04678FCFF1FF7B50779224BBA0038
:10102000D4585023A279060013432022A371A37938
:1010300038009343A3711223E370FFF76FFE011E84
:1010400004D000223800FFF7C0FFF7BD3C20022388
:101050007843164D43552D182B0069703A336E6056
:1010600069801F780193FF2F1AD03288103A92B20C
:10107000032A15D9310038001031FFF71BFE380064
:10108000211DFFF729FE02236B70F123A370019B42
:101090001878FFF767FD33895B00DBB22371D4E773
:1010A000F023A370F7E7C046A02B000078FCFF1FD9
:1010B000F8B53C244443094F06003D196B88686825
:1010C0001033C1710281038000F0EAFF00236B60DE
:1010D0000133E3553000FFF767FFF8BD78FCFF1FD1
:1010E000384BF7B58200D5583C234343364A0700B6
:1010F000D61831003A310C789B5C20000193022B0A
:1011000032D1FFF747FD002811D02000FFF784FD02
:101110002000FFF78FFD0123737073681B88113B5C
:101120007380F023AB706B461B79EB701BE0736828
:1011300020001E88FFF746FD103EB6B2361A20008A
:10114000FFF76AFD2000FFF771FDEB78DB0601D4A5
:10115000072301931223EB706E33AB70B2B2019987
:101160003800FFF732FFF7BDFFF714FD00280FD05E
:101170002000FFF751FD2000FFF75CFD0123737095
:1011800073681B88113B7380E823AB70E63BCCE7A8
:10119000736820001E88FFF715FD103EB6B2013EB1
:1011A000361A2000FFF738FD2000FFF73FFD12231D
:1011B000EB706E33AB70B2B207213800FFF778FFE7
:1011C000D1E7C046A02B000078FCFF1F10B501201E
:1011D000FFF786FF10BD10B50020FFF781FF10BD9F
:1011E000F8B53C24032200274443164B0E00E2547A
:1011F0001C19677067800500FFF790FD0100B84279
:1012000004D03A002800FFF753FFF8BD0E4BAD00A5
:10121000ED5823003A331F78FF2F0BD0291D3800DB
:10122000FFF738FD616838000A881031113A92B230
:10123000FFF762FD0121F02376000E43F6B2AB709A
:101240002E71E2E778FCFF1FA02B000070B50400B0
:101250008088A2896189C5B2FFF782FD3C226A437A
:101260000B4B9B185860002810D00A4BAA00D3588B
:101270005022997928000A4320219A719A798A4349
:101280009A711222DA702189FFF7AAFF70BDC04659
:1012900078FCFF1FA02B0000F7B5820005003C2062
:1012A0006A4B6843D6586A4BF278C15C1C18D2B2BC
:1012B000677802295ED110239C461A4213D004227B
:1012C000634BC25463467C32F370B2700222F270F8
:1012D000FF2948D03A326A435D4B28009B185A8850
:1012E000FFF773FE3FE001231A400FD08021042254
:1012F000574BB170C2547D39002FE7D01100022F37
:10130000E4D161884A1E91410331DFE76068002F14
:1013100004D16370027CFF213271D7E763880788AC
:101320009C46103FBFB27B1E9C451DD167808779CC
:10133000032F03D18021B1701100C7E7F1704389F9
:101340008788009303898689019300F04BFA320065
:1013500000993800FFF704FD6060002803D0019970
:101360002800FFF73DFFF7BD6246013292B262806E
:101370008018CFE7032966D1636819889C46103925
:1013800089B2002F3DD110239C461A4215D0042269
:101390002F4B0237C2546346F3708023B37002238D
:1013A000F370FF2FDFD03C226A43294B39009B1892
:1013B0005A882800FFF77CFED5E7D30705D504221D
:1013C000234BC2548023B370E9E703290DD92300CE
:1013D0003A331878FF2808D002236370DF33B370E4
:1013E000FFF7C0FB3379FF27D9E73C226A43184B4C
:1013F0009B1801225A70E023914200D80833B37041
:10140000F0E760888A1E904201D1E822B2706346FC
:1014100001393C22441C1F1888420DD1B0216A4377
:101420000B4BB1709B185C8033793B741427C0461A
:10143000013F002FFBD1C5E76A43054B9B185C8039
:1014400033793B74CFE70223F3708CE7A02B0000C5
:1014500078FCFF1F10B50020FFF71EFF10BD10B570
:101460000120FFF719FF10BD3C231A00424370B55D
:101470000D4C0500A218383212780132D2B20B2A74
:1014800000D900226B43E318180039300678002099
:10149000964208D00F3068438018023080002150F7
:1014A000012038331A7070BD78FCFF1F3C2310B543
:1014B00004000079084A43439B5C012B08D02100BB
:1014C000FFF7D2FF002802D1200000F08BF910BDF9
:1014D0002000FFF7A1FDFAE778FCFF1F3C2370B561
:1014E00006790E4A73439B5C0400012B12D00088DE
:1014F00000F048F9051E0CD02100228801F000FB05
:1015000029003000FFF7B0FF002802D1280000F0CA
:1015100069F970BDFFF79AFEFBE7C04678FCFF1F34
:1015200010B504002000FFF71AFD002802D000F0DB
:1015300059F9F7E710BD70B50400012832D83C23F3
:101540004343194D5A5D002A2CD000225A55EB18FE
:101550003A331878FF2801D0FFF7D6FA3C236343CB
:10156000ED183B352A78114992008A18137A507A7F
:101570009B065B0F9B00CB188006C00E5B6980004A
:101580001B18002018601389DB055B0F9B00C9182E
:1015900093684A695B03DB0E9B00D3181860200038
:1015A000FFF7BEFF70BDC04678FCFF1FA02B0000F8
:1015B00010B50A4C2378002B02D00020FFF7BBFFA8
:1015C0003C342378002B02D00120FFF7B4FFC02168
:1015D000034A13688B43136010BDC04678FCFF1F9D
:1015E0003480044070B580258026ED02F6000B4C57
:1015F00023682B4201D000F04BFE2368334201D018
:1016000000F018FB23681B0501D500F009F82368DA
:10161000DB04ECD500F004F8E9E7C0463480044070
:1016200010B5FFF7DFFF0022014B1A607047C0467C
:101630000081044070470A49030010B50868002B78
:101640000BD06A46074CC3181219934206D301F017
:101650002DFA0C2303600120404210BD0B60FCE713
:10166000E4F9FF1F00FEFFFF002070470120404209
:10167000704780239B0100204B607047012070471A
:10168000012040427047FEE7FEE7007843425841A0
:101690007047012303707047EFF31380002821D1B6
:1016A000EFF31083002B19D1EFF30582002A16D037
:1016B0000F2A0BD91300103B0C499B089B005B18A9
:1016C00003210A408A401B68D340DBB2EFF311824A
:1016D000002A02D0934200D91300180070478023DB
:1016E0005B00F3E701204042F8E7C04600E400E079
:1016F000002110B5080086B000F024F800F038F999
:10170000FEF7D2FEFFF74CFB0C4B02221B6801AC2C
:1017100000936B462000991800F048FE084B02A881
:101720001B6804226946009300F040FE002320005D
:10173000237300F03BFD00F0B8FFFCE75C80044041
:101740006080044010B50C0000280CD1002910D195
:101750006B46094A14681C1B084BE41807239C437A
:10176000200001F0DFF900234360054B046058605E
:1017700010BD0060FFDEC046E4F9FF1FC0FDFFFFA3
:10178000F0FCFF1F0323012170B50025C21C9A4302
:10179000134B141D58684942002810D14B1C0DD022
:1017A000100010306B68814213D2180059686960CC
:1017B000041D0021200001F0ACF9200070BD066876
:1017C000B44203D8B14201D91D0031000300406882
:1017D000E2E71968091B581819600460E8E7C04679
:1017E000F0FCFF1F10B5043802680D4B5968002942
:1017F00001D0884210D884188C4203D10C68496803
:1018000012190260416019685C18A04206D1521892
:101810001A6042685A6010BD0B00E7E75860FAE7AB
:10182000F0FCFF1F0020044B5B68002B00D17047C9
:101830001A685B688018F8E7F0FCFF1F0020054B72
:101840005B68002B00D170471A68904200D21000EC
:101850005B68F6E7F0FCFF1F10B5022803D80028EC
:1018600002D1052902D910BD0129FCD824249307EF
:1018700000D40434044B8000C358C9005918002315
:10188000CB60CC60EFE7C046A42C000070B50928FF
:101890001BD80E4B80001B185C780D4BE506C15021
:1018A0000020AD0F64090914814207D06A009B181B
:1018B000188D01304843074901F00CF8064BAD0084
:1018C000EB580134E4001C19A06070BDE8F9FF1F5B
:1018D000F8FCFF1FFF7F0000A42C00001D4B70B51B
:1018E00004004808C018160000F06AFF8022002398
:1018F0005202904228D8002800D10130164D0138FC
:101900006200AA1880B2108507221340F2071FD484
:10191000082200261343114AA1008A581660566017
:1019200090601360B200A9584B1C09D00C4B9B1857
:101930005B78DB069B0F9C4202D1F0B2FFF7A6FF5B
:1019400001360A2EEED170BD0133DBB24008D0E77C
:101950002822DEE7006CDC02F8FCFF1FA42C00004C
:10196000E8F9FF1F10B5022801D8FFF7B7FF10BD37
:1019700070B52822FF211748F42601F0CAF800228A
:1019800000242825760031001000FFF7A7FF124B36
:101990003100DC602200DD6001205C615D61DC61A2
:1019A000DD615C625D62DC62DD625C635D63FFF78A
:1019B00095FF0A4B3100DC602200DD6002205C6193
:1019C0005D61FFF78BFF064BDC60DD605C615D6194
:1019D00070BDC046F8FCFF1F00800340009003402C
:1019E00000A00340F8B500240F4EA700F519AB780E
:1019F000834214D1E4B22000FFF748FFBB5D0B4ADD
:101A00005907C90E52180421D268DB089B00D3186D
:101A10006A785207520D0A431A602000F8BD01345B
:101A20000A2CE2D1F534F8E7E8F9FF1FA42C0000F6
:101A300010B5092812D80A4B8400E35C094A5907FB
:101A4000C90E52180021D268DB089B00D318196018
:101A5000FFF71CFF0122044B5242E25010BDC0466A
:101A6000E8F9FF1FA42C0000F8FCFF1F10B50024AC
:101A7000054BA200D358013302D0E0B2FFF7D8FFE4
:101A800001340A2CF4D110BDF8FCFF1F0C4B1B686D
:101A90005B0513D50B4A138801339BB2FF2B00D98A
:101AA00000235188994209D0D118C0B20871012091
:101AB000054908711380AC22044BDA707047C046A8
:101AC000348004402CFDFF1F2CFEFF1F00A00640A9
:101AD0008023154A01001068DB00034310B5136032
:101AE000124A134B134C1A60134B31321A60002305
:101AF000E370A370114B4810C01800F0EBFEC30454
:101B0000DB0E23702C238021C0B26070E3700C4B7D
:101B100049011960FF230B4802689A437F3B134336
:101B20000360094B196010BD3480044013030000AA
:101B300040A0044000A0064044A00440C0C62D00C0
:101B400080E200E00CE400E000E100E00D4A1368F0
:101B50005B0515D580230C495B010B600B490C48D4
:101B60000B6000230B49CB700421FF3101600A4850
:101B700001601168094801401160094AD38013814E
:101B80007047C0463480044080E200E080E100E01D
:101B900040A0044000A0064044A00440FFFBFFFF1B
:101BA0002CFEFF1F70B505000E000400631B9E4253
:101BB00000DC70BD2078FFF769FF0134F6E710B54F
:101BC00004000134631E1878002806D10D30FFF799
:101BD0005DFF0A20FFF75AFF10BDFFF757FFF0E740
:101BE000054AD38810899BB280B2834201D3181A68
:101BF00070470133FF33FAE72CFEFF1F70B50C4C22
:101C0000002225000A358A4202DB0A00100070BD5E
:101C1000E68823899BB29E42F8D001339BB2FF2B0A
:101C200000D90023EE5C238186540132EBE7C046E5
:101C30002CFEFF1F10B51D4A13799B060FD51C49BA
:101C4000D079CB88C0B201339BB2FF2B00D90023DF
:101C50000C89A34203D00C000A34E054CB80D17825
:101C6000C9B200290BD013795BB2002B07DA1148F7
:101C7000048843889BB29C420DD16C23D3704023CF
:101C8000194207D01179194204D00021084B19716B
:101C90002C23D37010BD01339BB2FF2B00D900233E
:101CA000C4182479E4B2D4714380E8E700A0064068
:101CB0002CFEFF1F2CFDFF1F0223F0B50B4A0C4E1C
:101CC00014780F042343DB00F51868605078050092
:101CD000691E8D418821AD0139432943F15001230B
:101CE0005C40434014705370F0BDC04638FFFF1F86
:101CF00000F8FF1FF7B51B4843880093009A8388BC
:101D0000D21A92B2111C402A00D9402184680622BE
:101D1000A44666468579144F2A43D200BC18F618AB
:101D20006660047B89B22600701E8641B001019076
:101D300088200E043043019E5B183043B850009950
:101D4000084A9BB29380994205D86146AB00D318EC
:101D500019610023936001235D405C409571147309
:101D6000F7BDC04638FFFF1F00F8FF1F084B0020DB
:101D70001A7E597E914208D00132D2B2132A05D878
:101D80001A761A7E92009B18D86970470022F7E7EE
:101D900038FFFF1FF7B52F4E2F4C33006C336360B5
:101DA0003300002507000D20AC332C4AE3602C499A
:101DB0002C4B22603570A360757025616561A5614B
:101DC000E561087030692562B571A56235732563D8
:101DD0006562E5626563E563A56300920193A842CD
:101DE00002D0FFF7FFFC35617069002803D0FFF7D0
:101DF000F9FC002373610023B360FFF7B7FF0028ED
:101E000002D0FFF7EFFCF8E70523012F00D0030015
:101E1000154A1370154A002311006C310B70110024
:101E200070326264009A6D312264114A0B70303254
:101E3000E264019A6365A264E36523650922A365F0
:101E4000012F00D01A000B4B1A7001220A4B1A7096
:101E5000F7BDC04638FFFF1F00F8FF1F8800400095
:101E6000C0200740C8004000C4200740B8FFFF1F43
:101E700038000020C8200740E0000020F7B58508A2
:101E8000794EED00AB599B061B0F092B00D1C3E027
:101E90000D2B04D0012B50D1744BAB514DE0744C41
:101EA0007319200059680822143000F029FE6F4B86
:101EB000704FAB5100253561B5610126A38A6E4A8A
:101EC0007E70934212D8013A934244D2822B00D1C1
:101ED00062E005D8802B59D20F22684B1A7029E096
:101EE000A022D2009342F7D12F000DE090221201E0
:101EF000934200D16CE021D8803A9342ECD1350076
:101F00005F4F237F70373B70628B161CAA4200D94B
:101F10002E1CB5B2402D00D94026B6B23800310093
:101F2000AD1BFFF7C9FEADB2BB1901932F1E5FD1E8
:101F3000402E60D00122534B1A70F7BD524A9B18B5
:101F4000012BC9D8238B514F042B1BD0052BCBD190
:101F50004E4F283716E0E28A4D4B9A4203D14D4B43
:101F6000218B99420CD0218B4B4B5F68002FB3D053
:101F70001888904208D15888884205D11D7AC3E755
:101F80003F4F78373D78BFE70C33EEE73C4F703773
:101F90003D707D700225B7E77F22238B1340627F5F
:101FA000022A11D0002B00D096E700220225344FE0
:101FB0009B0070373A707A70304A9B181A782A4220
:101FC000A2D001223A709FE7032B00D984E7ECE707
:101FD000E38A012B00D97FE7D8B25A1E934101331F
:101FE00020776377FFF7D6FE7E702562A5847BE7B6
:101FF000402D00D94027BEB2AD1B31000198ADB2D3
:10200000FFF75AFE002D02D1402F00D092E7019B2E
:10201000A584DF1927628DE7154D2E6A002E13D097
:10202000AC8C2700402C00D940273000B9B2FFF714
:1020300043FEBBB2E41AA4B2F619AC84002C02D160
:10204000402F00D026002E62A023AA8ADB009A42ED
:1020500000D072E7EB8A114AD9B21170002B00D17F
:102060006B770023AB8268E700F8FF1FC8004000D1
:10207000B800002038FFFF1F81060000C020074085
:10208000380000209420074040DDFFFF10FAFF1FBA
:102090000303000009040000C42C0000982007403E
:1020A00010B5134B5B7F022B16D1124A0433917982
:1020B0000B431149DB005B5880210B4010D0537E4D
:1020C0000133DBB2132B00D90023117E994204D0D7
:1020D00099005118C861537610BDFFF783FBFBE7E9
:1020E0000188906051809380FFF704FEF4E7C046BA
:1020F000B800002038FFFF1F00F8FF1F084B00202A
:102100005B7F022B0BD1074B6C331A7808231343E8
:10211000054ADB009958090601D4D318586870475E
:10212000B8000020B8FFFF1F00F8FF1F0A4B5B7FBD
:10213000022B0DD1094B6C331A7808231343084A3C
:10214000DB009958090603D498588001800D704728
:1021500001204042FBE7C046B8000020B8FFFF1F47
:1021600000F8FF1F0D4B30B51A0019006C321078C3
:1021700008226D310978024300290CD1084C094D21
:10218000D20054511C0001226D3451406C33424046
:1021900021701A7030BD044CF1E7C046B8FFFF1F34
:1021A0008800400000F8FF1FC8004000284A30B5F2
:1021B0001500032378356B700023C45C591C002C78
:1021C0003DD18023783249001170224ADB02116828
:1021D0000B4313608022204B1A701A7852B2002AE7
:1021E000FBDB1E4A1E48110AC9B20170110C1D48C2
:1021F000C9B201701C49120E0A70FF221B490A70F5
:102200001B490A701B490A70402118780143197054
:102210000123002018490B701849087018490B70E9
:1022200018490B6893431A008023134380220B60E4
:10223000154B52041A601022144B1A7030BD5B000B
:10224000EB18A4B29C700024DC70CBB2B5E7C0469A
:1022500038000020348004400C21074000F8FF1FA4
:102260009C200740B0200740B42007408020074052
:102270008820074010200740942007400021074095
:102280008420074018E400E000E100E00821074056
:10229000F8B504223B4E33783400DBB2134200D051
:1022A000327008251D4040D0374B1878C0B2040961
:1022B00004D1FFF7E3FD08233370EAE7012C2DD1A9
:1022C0008008324BC700FB589B061B0F092BF2D12D
:1022D00004402F4DA4002C192069002803D0FFF7DB
:1022E00081FA00232361294BDF1900237B60062735
:1022F000AB79264A3B43DB00D35880221342DAD124
:10230000AC68002C07D1FFF731FD0028D3D003883B
:10231000A8606B80AC80FFF7EDFCE9E7022CCAD126
:1023200080081A4BC000C358C5E70126334214D0B9
:102330000223184F28003A7813433B70FFF72AFD19
:10234000FF23154A1370154A23701570144A137031
:102350009F22144B1A703E70F8BD5AB2002A04DA5C
:102360000D21114A11708022227002210B4204D0EB
:1023700009480278D2B20270217010221342EBD0C9
:102380002270E9E7802007409020074000F8FF1FF7
:1023900038FFFF1F942007408820074098200740FF
:1023A0008C20074084200740C020074070B50F25CF
:1023B000074C002A00D170BD013A92B28B5C1E0915
:1023C0002B40A65DE35C067043700230F1E7C04627
:1023D000182D0000F8B5070010200E0015001C0095
:1023E000FFF7D0F900280BD0102303800E3B837039
:1023F000069B8780C68005814481C360FFF750FE3D
:10240000F8BDF0B585B002930AAB1B8807000393B3
:102410000DAB1E88009135001035ADB22800019239
:10242000FFF7B0F9041E1BD0042383706B461B78A2
:10243000058083716B461B7A8780C3716B469B89CD
:1024400003810B9BC3606B469B884381002E04D0A5
:1024500032000C99103000F053FB2000FFF720FEF3
:1024600005B0F0BD1FB51C00002301940393029337
:102470000093FFF7C6FF1FBDF7B5857804000E0077
:10248000012D00D0B6E00388142B08D000250023CE
:1024900028002289E1880093FFF79CFFBEE00379C2
:1024A000012B40D14779012F17D1FE22018A037BEE
:1024B0000A40807A39408025FEF7C6F96D00228AED
:1024C0000543ADB200233A4202D1FEF75FFA83B270
:1024D0000020228900902900DEE7022F0CD182899A
:1024E000018A807AFEF704F88025FF28CED0AD005F
:1024F0000543ADB20023EBE7032F08D10C23C15EE7
:10250000807AFFF76FFAFF28C0D0C025EFE7042FCD
:10251000BCD1018AE268807AFEF743FCFF28B5D07F
:102520008025ED00E4E7022B24D1C088FD330200B2
:102530009A43130080225200934203D1C0B2FEF7A7
:102540004DF9A3E780229200934203D1C0B2FEF777
:102550000BF89BE7C0229200934203D1C0B2FFF771
:1025600067FA93E78022D200934290D1C0B2FEF77F
:10257000E2FF8BE7032B08D1FEF744FAFEF7D8F809
:10258000FFF774FAFFF714F880E7042B11D14379B1
:10259000012B05D1028AE168807AFFF7E3F975E73C
:1025A000022B00D072E7028A017B807AFFF754F990
:1025B0006CE7052B00D069E74379012B03D1FFF7C6
:1025C00031F900250AE0022B02D1FFF737F9F8E7CD
:1025D000032B0BD0042B0BD0002001250090228967
:1025E000E18800232800FFF7F5FE50E70120E8E727
:1025F0004020E6E7032D11D100880F280ED9A388CB
:10260000FF22190091430A00A179012915D1FF3158
:102610008A4209D1217BD8B2FEF700F9002E36D0CC
:102620002000FFF7DFF832E0C02189008A42F5D1AF
:10263000D8B2E168FFF72AF9F0E7022914D1FE3198
:102640008A4209D1D8B2FEF7A1F9628903000121BB
:10265000A088FFF707FFE1E7802189008A42DDD1EA
:10266000D8B2FDF7B5FFD9E7032911D18023DB00EC
:102670009A42D3D12500002E06D1FFF783F8228895
:102680002100050000F03CFA2800FEF70FFFF7BD1F
:10269000042907D18023DB009A42BFD12000FEF736
:1026A0001DFFBBE70529B9D1E0E7F0B53E4C85B089
:1026B0002378002B0BD00023237072B6FEF7A2F90B
:1026C000FEF736F8FFF7D2F9FEF772FF62B6FFF7B2
:1026D0002DFD0600051E50DD72B6FFF70FFD638865
:1026E0000700002B3AD0012B0AD10078A388000202
:1026F000C01880B2A080FFF745F8A388A0600380CF
:102700006388B5B20193A3880393019B039A9B1935
:102710002E00934203DD1300019A9E1AB6B2A368FD
:102720000293002B05D0019A39009818320000F06E
:10273000E7F9019BAD1BBF19F618039BB6B22DB28A
:102740006680B3420AD1029B002B03D001211800FE
:10275000FFF792FE00236380A380A360012D04DCB9
:1027600008D13B786580A38004E03E88B5420EDB4B
:10277000072E04D8FFF7F6FC62B605B0F0BD3800AE
:102780000021AD1BFFF778FEBF192DB2E6E7300040
:10279000A680FEF7F7FF6580A0600028EAD02A0037
:1027A000390000F0ADF9E5E7E000002010B5034A7C
:1027B000136801331360FDF7E1FF10BD28FDFF1F13
:1027C000002243088B4274D303098B425FD3030A70
:1027D0008B4244D3030B8B4228D3030C8B420DD383
:1027E000FF22090212BA030C8B4202D31212090211
:1027F00065D0030B8B4219D300E0090AC30B8B424F
:1028000001D3CB03C01A5241830B8B4201D38B03FC
:10281000C01A5241430B8B4201D34B03C01A5241A1
:10282000030B8B4201D30B03C01A5241C30A8B42E4
:1028300001D3CB02C01A5241830A8B4201D38B02CF
:10284000C01A5241430A8B4201D34B02C01A524173
:10285000030A8B4201D30B02C01A5241CDD2C309E5
:102860008B4201D3CB01C01A524183098B4201D361
:102870008B01C01A524143098B4201D34B01C01A4C
:10288000524103098B4201D30B01C01A5241C308C4
:102890008B4201D3CB00C01A524183088B4201D333
:1028A0008B00C01A524143088B4201D34B00C01A1F
:1028B0005241411A00D20146524110467047FFE78B
:1028C00001B5002000F0F0F802BDC0460029F7D0A5
:1028D00076E7704703460B437FD4002243088B42C0
:1028E00074D303098B425FD3030A8B4244D3030B97
:1028F0008B4228D3030C8B420DD3FF22090212BA5C
:10290000030C8B4202D31212090265D0030B8B42D7
:1029100019D300E0090AC30B8B4201D3CB03C01AC1
:102920005241830B8B4201D38B03C01A5241430B9C
:102930008B4201D34B03C01A5241030B8B4201D38C
:102940000B03C01A5241C30A8B4201D3CB02C01AF7
:102950005241830A8B4201D38B02C01A5241430A6F
:102960008B4201D34B02C01A5241030A8B4201D35E
:102970000B02C01A5241CDD2C3098B4201D3CB0105
:10298000C01A524183098B4201D38B01C01A5241B4
:1029900043098B4201D34B01C01A524103098B42B8
:1029A00001D30B01C01A5241C3088B4201D3CB00A3
:1029B000C01A524183088B4201D38B00C01A524186
:1029C00043088B4201D34B00C01A5241411A00D236
:1029D00001465241104670475DE0CA0F00D049429F
:1029E000031000D34042534000229C4603098B420F
:1029F0002DD3030A8B4212D3FC22890112BA030A97
:102A00008B420CD3890192118B4208D38901921118
:102A10008B4204D389013AD0921100E08909C3099D
:102A20008B4201D3CB01C01A524183098B4201D39F
:102A30008B01C01A524143098B4201D34B01C01A8A
:102A4000524103098B4201D30B01C01A5241C30802
:102A50008B4201D3CB00C01A524183088B4201D371
:102A60008B00C01A5241D9D243088B4201D34B008C
:102A7000C01A5241411A00D20146634652415B10CE
:102A8000104601D34042002B00D5494270476346AF
:102A90005B1000D3404201B5002000F005F802BDF4
:102AA0000029F8D016E770477047C046014B1868F8
:102AB0007047C0464CFBFF1F70B500260C4D0D4CF7
:102AC000641BA410A64209D1002600F02DF90A4D7E
:102AD0000A4C641BA410A64205D170BDB300EB588C
:102AE00098470136EEE7B300EB5898470136F2E716
:102AF000342D0000342D0000342D0000382D00004E
:102B0000002310B59A4200D110BDCC5CC4540133EF
:102B1000F8E703008218934200D17047197001331F
:102B2000F9E7FFFF10B5034B0100186800F004F847
:102B300010BDC0464CFBFF1F002370B5064C0500BE
:102B400008002360FEF777FD431C03D12368002BA8
:102B500000D02B6070BDC046EC0000200090044007
:102B600000A0044000B0044000C0044000D0044075
:102B700000F00F4040F00F4080F00F40C0F00F40D9
:102B800000F10F4081890308103B23131B1A2232E6
:102B90003A2A0B02010919112B330A12A4ACF4FFD3
:102BA00000600640007006404840900048C4900015
:102BB000918290000090044000A0044000B00440C6
:102BC00000C0044000D004400000140001001600C2
:102BD0000200180003001A0004001C0005001E007B
:102BE00009002000060022000A0024000700280037
:102BF0000C002C000D003000430034000E003800A3
:102C000045003C00120040000F0044001300480043
:102C100014005000150058001900600016006800EC
:102C20001A007000170080004F0088001C00900000
:102C30001D00A0005500B0001E00C0002200E000F2
:102C40001F00F000230000012400200125004001A6
:102C500095006001260080012700E0012A00C001E4
:102C60002B0000022C0040022D0080022E000003E9
:102C7000320080032F00C0033300000434008004BE
:102C80003500000536000006370080073A000007CF
:102C90003B0000083C0000093D00000A3E00000C1B
:102CA0003F00000F008003400090034000A003405D
:102CB0000090044000A0044000B0044000C0044064
:102CC00000D00440000100003AFBFF1F120000008A
:102CD000000200001AFBFF1F20000000000300009C
:102CE00016FBFF1F0400000001030904EAFAFF1F9E
:102CF0002C00000002030904D8FAFF1F1200000094
:102D0000EE030000C6FAFF1F1200000000000000E2
:102D10000000000000000000303132333435363717
:102D20003839616263646566F8B5C046F8BC08BCB2
:082D30009E46704739040000C3
:042D3800F8B5C046E4
:102D3C002C007000400048006800600034003C002B
:102D4C007800580000002000B800E800D000F00027
:102D5C00D800FE00F000002008130300103304001C
:102D6C00238406001A44090022640A00010B100097
:102D7C00092B11002BA414000A04160012241700AE
:102D8C002800000000010400010000000000000009
:102D9C00000157494E55534200000000000000004E
:102DAC0000000000000000008E0000000001050083
:102DBC0001008400000001000000280044006500B0
:102DCC00760069006300650049006E0074006500C0
:102DDC007200660061006300650047005500490001
:102DEC00440000004E0000007B0064003000310005
:102DFC00300062006100390030002D0030003200DC
:102E0C00350061002D0034006300390034002D00C2
:102E1C0062003200640062002D006100310033005A
:102E2C006600320030003500640034003300370097
:102E3C0065007D00000012034D0053004600540055
:102E4C00310030003000220012035700690072007C
:102E5C0065006B006900740065002C034D00610077
:102E6C006E00750065006C00200042006C0065006F
:102E7C0069006300680065006E0062006100630019
:102E8C0068006500720004030904090220000101B6
:102E9C000080FA0904000002FF000000070581020F
:102EAC004000000705020240000012010002FF0072
:102EBC000040C016012740000102030150FBFF1F18
:102ECC0000000000000000000000000000000000F6
:102EDC0000000000000000000000000000000000E6
:102EEC0000000000000000000000000000000000D6
:102EFC0000000000000000000000000000000000C6
:102F0C0000000000000000000000000000000000B5
:102F1C0000000000000000000000000000000000A5
:00000001FF
