:1000000000800020BD0100000D170000D91600007F
:10001000D9160000D9160000D9160000D916000024
:10002000D9160000D9160000D91600000D170000DF
:100030000D170000D91600000D1700006D280000F4
:100040000D1700000D1700000D1700000D17000020
:100050000D1700000D1700000D1700000D17000010
:100060000D1700000D1700000D1700000D17000000
:100070000D1700000D1700000D1700000D170000F0
:100080000D1700000D1700000D1700000D170000E0
:100090000D1700000D1700000D1700000D170000D0
:1000A0005D150000631500000D1700000D1700001E
:1000B0000D1700000D1700000D1700000D170000B0
:1000C0000D1700000D1700000D1700000D170000A0
:1000D0000D1700000D1700000D1700000D17000090
:1000E0000D1700000D1700000D1700000D17000080
:1000F0000D1700000D1D00000D1700000D1700006A
:100100000D1700000D1700000D1700000D1700005F
:100110000D1700000D1700000D1700000D1700004F
:100120000D17000085080000AB0800000D17000047
:100130000D1700000D1700000D1700000D1700002F
:100140000D1700000D1700000D1700000D1700001F
:100150000D1700000D1700000D1700000D1700000F
:100160000D1700004D2300000D1700000D170000B3
:100170000D1700000D1700000D1700000D170000EF
:100180000D1700000D1700000D1700000D170000DF
:100190000D1700000D1700000D170000A90B00003F
:1001A000CD0B0000D10B0000D50B0000D90B0000D7
:1001B0000D1700000D1700000D170000564B4CF2F4
:1001C000205210B51A804DF628121A8000BF00BFC9
:1001D00001F09FFA514B4FF010621A60504A9A603A
:1001E000504ADA60504A136813F4807301BF4F49D4
:1001F0000B604FF4A85313604D4B1A78110748BF9A
:100200001A784C4944BF42F008021A704A4B2A221D
:100210001A704A4A4A4B8B4275D34A4B4A4A0021CC
:10022000934275D3494A4A4C0023114654F823009F
:1002300042F8230001336F2BF8D1464B464A802009
:1002400003F8010B9342FBD1444B1960444B8A22C3
:100250001A70A3F5805324225A70A0221A709A793A
:100260009207FCD59A79D406FCD43E4B19469A796C
:1002700002F00C02082AFAD105221A7143225A719F
:100280008B799806FCD5374B9A795106FCD5364ABE
:100290004FF0817111600521516020221A70314A9E
:1002A000937903F00C030C2BFAD1304B304A1A60CF
:1002B000304B314A1A6000225A60072243F8042C5E
:1002C0002E4AC3F80C2D62B6184B1B68DA0705D509
:1002D0002B4801F073FA2B4B2B4A1A602B4B1B78DF
:1002E0005B0609D5274C284B22689A4204D1244842
:1002F00001F064FA0023236002F0C6FA01F010FA5C
:1003000001F05EFAFEE752F8040F43F8040B82E7AF
:1003100043F8041B84E700BF0E20054030800440F2
:10032000823F04000100002B10D0034014D0034092
:1003300002D00740C485FF1F00E00740102B0000DB
:10034000BC83FF1FC485FF1F188BFF1F0082FF1F88
:100350000000000000E400E05FE400E008ED00E0E1
:1003600000500640004006404480044004800440A1
:10037000C010050014E000E03F190100000020203B
:1003800000DD68501CE00340A5C3945A00F007400C
:10039000FFFFFFFFFFFFFFFFFFFFFFFFFFFFFFFF6D
:1003A000FFFFFFFFFFFFFFFFFFFFFFFFFFFFFFFF5D
:1003B000FFFFFFFFFFFFFFFFFFFFFFFFFFFFFFFF4D
:1003C000FFFFFFFFFFFFFFFFFFFFFFFFFFFFFFFF3D
:1003D000FFFFFFFFFFFFFFFFFFFFFFFFFFFFFFFF2D
:1003E000FFFFFFFFFFFFFFFFFFFFFFFFFFFFFFFF1D
:1003F000FFFFFFFFFFFFFFFFFFFFFFFFFFFFFFFF0D
:10040000FFFFFFFFFFFFFFFFFFFFFFFFDEF9FFFF23
:1004100010B5054C237833B9044B13B10448AFF33E
:1004200000800123237010BDC485FF1F0000000061
:10043000142B00000C4B43B10C480D4910B5AFF321
:1004400000800C48036823B910BD0A48036833B91B
:100450007047094B002BF7D0BDE810401847064BFA
:10046000002BF5D0184700BF00000000142B00003F
:10047000C885FF1FC485FF1F00000000124A12F844
:10048000103012F81020DB0812F0030F43F0400385
:1004900002F004020CD10D4932B10A6842F0100298
:1004A0000A600B4A136070470A6822F01002F7E7EF
:1004B00008492AB10A6842F010020A60064AF1E7C8
:1004C0000A6822F01002F8E7BC83FF1F0CB003405B
:1004D00000B003400CB00B4000B00B40104B114873
:1004E00030B50322192400211C605A6099610E4B1B
:1004F0004FF0007580216FF44D7C056019706344E6
:100500001D600A4D2C600A4C22600A4A01241460C6
:100510004FF08062026080F8B6111A6030BD00BFF3
:1005200008B0034084E200E039E400E008B00B408A
:100530000CB00B4020B00B40030644BF6B38C0B278
:10054000182870B527D801BF14490B7843F0010370
:100550000B70134B93F9001079B9124991F832409E
:10056000FE2C0AD1104C40252560104D5F262E60D0
:1005700087252560FC2481F832406AB159780C4EF9
:1005800001EB4104A40035190131325159700022A8
:1005900028726A6070BDFF2070BD00BF02D00740A6
:1005A000E085FF1FBC83FF1F24B0034000B0034061
:1005B000E485FF1F2DE9F04F174DA5F1100E804681
:1005C0000027F2460EF1040B4FF00C099EF8014093
:1005D000A74209DBB8F1180F01BF104A137803F0E6
:1005E000FE031370BDE8F08F15F8043C434509D1B4
:1005F00004FB099CDC442B460C33634505D1013CCC
:100600008AF8014001370C35E0E713E90700A3F150
:10061000180686E80700EFE7F085FF1F02D00740C5
:100620000D4B93F83220FE2A014602D183F83200A6
:1006300024E70A4A92F8643092F865000133DBB28D
:10064000082B28BF002398421EBFD01882F86430C0
:1006500080F86610704700BFBC83FF1FE085FF1F56
:10066000F8B5544A92F832506B1DDBB2012B0446A8
:1006700000F29080FC2D50495BD15048504B1B68D4
:10068000076850F8046C50F80C5C10383B44006864
:1006900033442B440344C3F34E034A4843F400431A
:1006A0000360494B1B68C76B866B056B2C303B4462
:1006B000006833442B440344C3F34E03434843F4DC
:1006C00000430360424B1F201860042058624023FF
:1006D0000B60404B5F20186087230B60FB2382F880
:1006E000323092F83230FE2B4FF0FD051FD100263C
:1006F000394B93F8651093F86400884256D0013165
:10070000C9B2072988BF002183F8651093F86510E6
:100710000B4493F8660082F83200FFF7AFFEF30255
:1007200043EA465343EA460343EA562323602846F6
:10073000F8BD2A482A4B1B68076850F8046C50F82B
:100740000C5C10383B44006833442B440344C3F32F
:100750004E03244843F400430360234B1B68C76BDC
:10076000866B056B2C303B44006833442B440344B8
:10077000C3F34E031D4843F400430360154B1F2091
:10078000186004230B60FE2382F83230124B0121E3
:100790001970A6E712F8153013F0030F0CBF1449B7
:1007A00014491F230E6841F8103CA1E7FE2382F88C
:1007B0003230B4E7BC83FF1F24B00B4048B0034085
:1007C0004CB003402CB003406CB0034030B0034049
:1007D00000B0034000B00B40E085FF1F48B00B4065
:1007E0004CB00B402CB00B406CB00B4030B00B4009
:1007F00010B0034010B00B400F49104B10B44FF035
:1008000000701F220E4C08601A60402323600860AD
:100810000C490A600C4A0D4913600D4B0022FE2062
:100820001A7081F8320083F8642083F865205A70CA
:1008300010BCFFF753BE00BF84E200E000B00340ED
:1008400024B0034000B00B4024B00B40BC83FF1F1A
:10085000E085FF1F70B50A4C0025261F73789D4266
:1008600000DB70BD6368226801339A4298BF0023A1
:10087000636013B9207AFFF7D3FE01350C34EDE73E
:10088000E485FF1F07B501A8FFF7EAFEC31CDBB232
:10089000012B07D940F40070019B0022012180B296
:1008A00001F049FE03B05DF804FBFFF7EBBF00BFAA
:1008B00030B5104A104912F8103002EB400003F036
:1008C00007044278DB086FF30002427051F82420DD
:1008D00018B201EB84014FF0807542F820500122DC
:1008E00002FA03F34A69516921EA030151619360F5
:1008F00030BD00BF4E86FF1F28290000084B13F8AB
:100900001020D30802F0070001229A40054B800016
:1009100003445B6909B15A6070479A60704700BF31
:100920004E86FF1F2829000021282DE9F74F8B460E
:100930001746194600F2B9805D4C94F94430002501
:10094000EEB29E424FEA460204DB04BF013384F854
:10095000443007E004EB020E01359EF801E01EF082
:10096000010FEDD17EBBDFF850E1524DDFF84C8135
:1009700080234FF4000CCEF800C0A5F24F3585F867
:100980004F33C5F800C04FF0807CCEF800C088F827
:100990000030C5F800C04FF0007CCEF800C088F8E9
:1009A0000130C5F800C04FF0806CCEF800C088F868
:1009B0000230C5F800C04FF0006CCEF800C08EF8D1
:1009C000D331C5F800C0DFF8F880404404EB020ED4
:1009D00090F8285014F8160005F0070363F302009E
:1009E000ED0865F3C70004F816009EF8010040F01A
:1009F00001006FF341004FF001098EF8010009FA80
:100A000005F94FEA830ABBF1000F10D1C244DAF8AE
:100A10001400416921EA09014161790742D417F0C4
:100A2000080F0CBF4FF488704FF4897017E0C24470
:100A3000304601920093FFF761FFDAF81400009B43
:100A40004169019A49EA0101BBF1010F4161E4D119
:100A500017F0080F0CBF4FF482704FF4A2702DB244
:100A600058F8231041F82500BBF1000F16D117F0FC
:100A7000300F13D0144417F0100F637843F00203C3
:100A800063700CBF00234FF41023BA0651F82520E1
:100A900048BF43F42023134341F82530304603B0C8
:100AA000BDE8F08F40F21310D9E7FF26F6E700BF4C
:100AB0004E86FF1F57E400E088E200E058E400E0C3
:100AC00028290000094B0A4A13F8103003F00701E7
:100AD00002EB8102DB0852691169012202FA03F379
:100AE0000B4214BF10460020704700BF4E86FF1F08
:100AF0002829000070B5114B114E93F94450002085
:100B0000A84201DBFF2070BD03EB40025278910741
:100B100012D513F8102002F00701D20856F8214030
:100B200004EB820154F82220D20105D50B6843F072
:100B300080730B60C0B270BD0130E1E74E86FF1FCD
:100B40002829000038B5154D002495F944309C4201
:100B500019DB002385F84430114A124B4FF4000191
:100B6000116019604FF08071116019604FF00071D1
:100B7000116019604FF08061116019604FF00061E1
:100B80001160196038BD05EB44035B78DB0702D5C3
:100B9000E0B2FFF78DFE0134D7E700BF4E86FF1F9E
:100BA00088E100E088E200E010B5FFF7A3FFFF282E
:100BB00004460AD0FFF786FF44F4807403460022FF
:100BC0000121A0B201F0B7FCEFE710BDFFF7ECBFC9
:100BD000FFF7EABFFFF7E8BFFFF7E6BFFFF7E4BFA5
:100BE00010B5184C226862B917490B6843F002032C
:100BF0000B6051F8043C43F0020341F8043C134BF2
:100C00001A6022680020012312EA030112D1134363
:100C10002360C4B20E4B400100F180401C702022C2
:100C20001C7100F5104003F8024C5C7101F05BFE92
:100C3000204610BD013010284FEA4303E4D1FF24C1
:100C4000F6E700BF9486FF1F40800440008000400C
:100C50001A800040134B10B504461870400100F193
:100C600080402022002100F5104001F03CFE04F1FC
:100C7000804303F5043300221A700B4B012000FA65
:100C800004F4186820EA0400186050B9074A136891
:100C900023F00203136052F8043C23F0020342F8ED
:100CA000043C10BD1A8000409486FF1F4080044021
:100CB000014B1870704700BF1B800040014B18703B
:100CC000704700BF1A800040400100F1804000F5ED
:100CD0001040808BC0F3C0107047014B18707047F4
:100CE0001C800040044B1A68012303FA00F01042F4
:100CF00014BF1846002070472C800040014B18702C
:100D0000704700BF1E800040400100F1804000F5A8
:100D10001040C08A80B2704700F11002074B43F8C0
:100D2000221043119B0003F1604303F5614300F07F
:100D30001F00012202FA00F0186070470082FF1FB6
:100D40004211012300F01F0003FA00F0014B43F8A9
:100D50002200704780E100E0014B1870704700BF2F
:100D60001F800040400100F1804000F51040838B5F
:100D70009BB243F0020383837047400100F180403F
:100D800000F51040838B9BB243F0080383837047C8
:100D900000F1804000F50430002341F08001037031
:100DA00001707047400100F1804000F510400023C1
:100DB00001220160838083718260C36070474001BB
:100DC00000F1804000F51040012301600021838084
:100DD000817183605342C360C283C2827047400105
:100DE00000F1804000F51040002301220161838260
:100DF000C371826083617047400100F1804000F55B
:100E000010400123016100218382C171836053423C
:100E10008361C283C28270470D4B53F820209378C0
:100E2000990603D5B423937000207047D37813F04C
:100E3000200306D03C235843064B01221A540620B7
:100E40007047B021917092789306EDD4F2E700BF1D
:100E5000742900009886FF1FF0B5103295B285B056
:100E6000074628460E4600F0F3FC044660B903909E
:100E7000029001900090052332460321384601F08C
:100E800027FB204605B0F0BD0423837003230580B3
:100E9000878046818371F4E7704702282DE9F04787
:100EA00000F2C7806449654F4FEA800E01EB0E03E4
:100EB0003C251C7A04F0070465437B197E5DBA4625
:100EC000002E40F0B6804FF0010C264607F805C012
:100ED00083F83B00002C40F094805948036843F0AD
:100EE0004003036001EB0E0051F8245090F808E035
:100EF00090F809C08768CEF3C20E01EB8E0E202356
:100F0000DEF8148090F80AE06B71CEF3C20ECCF3D9
:100F1000440C4FEA0E2E00234EF0640E2B70EB7142
:100F200048F82CE0B0F808E04089CEF3821E01EBCF
:100F30008E0EC0F38210C7F3843CDEF814E000028A
:100F400040F064004EF82C00DFF80CE13D489C4274
:100F500008BF704600EB520E4FF0370CBEFBF2F2AA
:100F60001FFA82F89C4554DC372B60D08BB103F11B
:100F7000FF3801EB880E92B2BEF82AC001EB830E57
:100F8000A2EB0C0CBEF82AE0AEEB02029445B8BF0F
:100F9000434601EB830393F828306B702A4B984249
:100FA0008CBF042003208023A871AB701223EB7048
:100FB000002C264B0CBF4FF080724FF000721A606D
:100FC000FFF70EFE3C2303FB04A7FF28054687F826
:100FD0003A0013D0FFF7D1FE1D4B1E492846002CC6
:100FE00018BF1946FFF798FE2846FFF7BBFE002CF6
:100FF0000CBF162117212846FFF7CAFE3046BDE870
:10100000F087012C7FF46EAF0D48036843F0800336
:1010100067E70CEB030E4FEA6E0E01EB8E09B9F891
:101020002A90C8458CBF0EF10103F4469AE7362397
:10103000AFE7FF26E2E700BF742900009886FF1F94
:101040003480044000A24A04FF6BDC0200E100E0AF
:10105000DD120000E1120000005125027047104926
:101060003C2202FB001210B592F8393092F8384059
:101070009C4212D00133DBB20B2B88BF002382F8D5
:1010800039303C2303FB0013C0EB001093F83930D8
:101090001844023051F8200010BD002010BD00BFE0
:1010A0009886FF1F10B5FFF7DAFF044660B1837919
:1010B000042B06D100F04AF92046BDE8104000F0AC
:1010C000F9BBBDE8104029E010BD2DE9F04F124EEC
:1010D0003C24444337190546786885B0B0F804804D
:1010E000B0F80A908A46934600F0E4FB0020012302
:1010F00078603355039002900190CDF800B04046DF
:1011000053464A46022101F0E3F9284605B0BDE8FE
:10111000F04FFFF7C7BF00BF9886FF1F2DE9F041D2
:10112000224B057953F82540A37943F05003A3716E
:10113000A37903F0DF03A37112230646E370284668
:10114000FFF76AFE014620B128460022BDE8F041C3
:10115000BBE7174B3C2068431D18022795F83A80DF
:101160001F54B8F1FF0F69706E6069801AD0328821
:10117000103A92B2032A15D906F110014046FFF742
:101180001EFE4046211DFFF72AFEF1236F70A3705B
:1011900095F83A00FFF78CFD337A5B00DBB22371E0
:1011A000BDE8F081F023A370F6E700BF74290000CA
:1011B0009886FF1FF8B50B4F3C2444433D19064663
:1011C0006B88686810330380C171028100F0E4FF0E
:1011D00000236B6001233B553046BDE8F840FFF724
:1011E00061BF00BF9886FF1F3A4B3B4A2DE9F04193
:1011F00053F820603C234343D51812F8038095F838
:101200003A40B8F1020F0746204634D1FFF75CFDA3
:1012100088B12046FFF7A0FD2046FFF75EFD0123C1
:101220006B706B681B88113B6B80F023B37086F882
:101230000380BDE8F0816B6820461D88FFF764FDE0
:10124000103DADB22D1A2046FFF786FD2046FFF770
:1012500055FDF37813F0100F4FF01203F3704FF0B9
:101260008003B370AAB218BF4146384608BF0721B1
:10127000BDE8F04129E7FFF727FD88B12046FFF7D9
:101280006BFD2046FFF729FD01236B706B681B88FF
:10129000113B6B80E823B3700223F370BDE8F0814B
:1012A0006B681D882046FFF72FFD103DADB2013D54
:1012B0002D1A2046FFF750FD2046FFF71FFD122391
:1012C000F3708023B370AAB238460721BDE8F0411D
:1012D00070E700BF742900009886FF1F012083E794
:1012E000002081E7F8B5174A3C234343D51800276F
:1012F0000C460321D1546F706F800646FFF78CFDBA
:10130000014620B13A463046BDE8F84052E795F82C
:101310003A700D4BFF2F53F826600BD0311D384625
:10132000FFF740FD696831F8102B113A92B2384648
:10133000FFF762FD640044F00104F023E4B2B370EF
:101340003471F8BD9886FF1F7429000038B5044633
:101350008088A2896189C5B2FFF77EFD0C4A3C23D3
:1013600003FB0523586088B10A4B53F825309A795E
:1013700042F050029A719A7902F0DF029A711222B9
:10138000DA7021892846BDE83840ABE738BD00BF98
:101390009886FF1F742900002DE9F84307466D4B1E
:1013A0006D4D53F820404FF03C0E0EFB07FEE078E9
:1013B00015F80E1005EB0E060229C0B273785FD146
:1013C000C20613D5042305F80E301023E3708023E2
:1013D000A3700223FF29E37000F0BA803C2303FBD3
:1013E000075538466A88BDE8F8436EE610F00102FA
:1013F0000DD00421802205F80E10A270002B3DD0E4
:10140000022BE6D17388002B08BF0321E1E7706847
:101410002BB901237370037C2371FF21D9E7B0F846
:1014200000E07388AEF1100E1FFA8EFE0EF1FF3C45
:1014300063451ED18379A6F802E0032B03D18023F4
:10144000A3701146C5E7E170B0F80A80B0F80C90BF
:101450008588048900F02EFA4A4641462846FFF75F
:10146000FBFC7060002873D021463846BDE8F84385
:1014700038E701339BB273801844CCE70321A8E717
:10148000032963D1D6F804C0BCF80020103A92B208
:10149000002B38D1C10614D5042305F80E301023D3
:1014A000E3708023A37002230222FF2BE2704FD04F
:1014B0003C2202FB075519466A883846BDE8F843C6
:1014C00078E6C10705D5042205F80E208022A27017
:1014D000EAE7032A0CD996F83A00FF2808D002233D
:1014E0007370E123A370FFF7E3FB2379FF23DBE7AE
:1014F0003C2303FB075301218A4259708CBFE02330
:10150000E823A370F1E77188931E994208BFE8238E
:1015100002F1FF3208BFA37091424FF03C0301F18A
:1015200001000CEB01020BD103FB0753B021A170AA
:10153000588023791374142300BF013BFCD1C5E705
:1015400003FB0753588023791374CFE70223E3701A
:10155000BDE8F883742900009886FF1F0020FFF77C
:101560001BBF0120FFF718BF30B50D4C3C2202FB1A
:10157000004292F8383092F839500133DBB20C2B2C
:1015800028BF00239D421FBFC0EB0010C0180230CF
:1015900082F838301ABF44F820100120002030BDF6
:1015A0009886FF1F10B502790A493C23534304462D
:1015B000CB5C012B09D001461046FFF7D5FF38B9A7
:1015C0002046BDE8104000F075B9BDE81040A5E523
:1015D00010BD00BF9886FF1F70B506790E4A3C23E8
:1015E00073430446D35C012B12D0008800F030F91D
:1015F000054680B12146228801F06AF92946304625
:10160000FFF7B2FF38B92846BDE8704000F052B984
:10161000BDE870409AE670BD9886FF1F10B504467D
:101620002046FFF71CFD10B100F044F9F8E710BDAB
:10163000012838B5054631D83C22194C4243A1183F
:10164000A05C58B391F83A000023FF28A35401D0BE
:10165000FFF700FB3C2303FB0543124A93F83B30A2
:1016600002EB83030024197A587AC1F3C20102EB1A
:101670008101C0F34400496941F8204019899B6801
:10168000C1F3821102EB8102C3F38433526928460D
:1016900042F82340BDE83840FFF7C0BF38BD00BF67
:1016A0009886FF1F7429000010B5094C227812B1EA
:1016B0000020FFF7BDFF94F83C3013B10120FFF785
:1016C000B7FF044A136823F0C003136010BD00BFC6
:1016D0009886FF1F3480044008B50B4D2C462B68BC
:1016E000580301D500F032FE2368590501D500F0FA
:1016F0000DFB23681A0501D500F008F82368DB0408
:10170000EDD500F003F8EAE73480044008B5FFF7B0
:10171000E3FF024B10221A80704700BF00200540F3
:1017200070470A4908B50B6868B16A461844A2F5C3
:101730008052904206D301F0A1F80C2303604FF0D1
:10174000FF3008BD0860184608BD00BFF083FF1FCA
:10175000002070474FF0FF3070474FF400534B604C
:1017600000207047012070474FF0FF307047FEE7C0
:10177000FEE70078B0FA80F040097047012303705B
:101780007047EFF31380A0B9EFF310839BB9EFF329
:1017900005825AB10F2A01D9074BD35CEFF31182AE
:1017A00012B1934228BF1346184670474FF4807316
:1017B000F4E74FF0FF307047F0E300E07047FFFFC1
:1017C0007FB50021084600F027F800F03FF9FEF74A
:1017D00085FEFFF761FB0E4B022206AC1B6844F846
:1017E000183D0DEB020101A800F042FE094B02A8D2
:1017F0001B6800930422214600F03AFE002301A852
:101800008DF8103000F048FD00F0B2FFFCE700BF9B
:101810005C8004406080044010B50C4658B981B922
:101820006C46094B1968641AA4F5825424F0070425
:10183000204601F061F800234360044B04605860C7
:1018400010BD0060FFDE00BFF083FF1F1087FF1F89
:10185000174BC21C22F00302586870B54FF0FF31DD
:10186000151D0024C8B94B1C16D0636802F1100086
:1018700081422DBF196859686160491B2CBF5C18F3
:101880001C4604F1040428BF1960204628BF5D509F
:10189000002101F028F8204670BD0668B54203D843
:1018A000B14284BF1C46314603464068DAE700BFB8
:1018B0001087FF1F50F8042C0E4B30B5041F5968D9
:1018C00009B18C4214D8A5188D4204BF0D6849682F
:1018D000016004BF521940F8042C19685D18AC422D
:1018E00001BF52181A6002685A6018BF5C6030BDB0
:1018F0000B46E4E71087FF1F044B5B68002003B929
:1019000070471A685B681044F9E700BF1087FF1F33
:10191000054B5B68002003B970471A685B6890420A
:1019200038BF1046F7E700BF1087FF1F032812D803
:1019300010B9072902D9704701290CD8064B53F872
:10194000203012F0020F03EBC10114BF2422282221
:101950000023CB60CA607047782A00000B2810B5BE
:101960001CD80F4B0F4A03EB80035B7842F8201022
:101970000914C3F3C1044FEA531308D002EB440225
:10198000128E02FB011147F6FF7291FBF2F1064A3B
:1019900052F82420013302EBC303996010BD00BF4D
:1019A000F483FF1F1887FF1F782A0000F8B505464B
:1019B0002048042947F6122332BF0224034601249B
:1019C000002003EB5103B3FBF1F1B1F5803FC3B24B
:1019D00000F101002CD80029174E184F08BF012133
:1019E00006EB4500013989B20186D007144A03F09D
:1019F000070352F8252043EAC40348BF43F02003FD
:101A00000024146054609160136056F824104A1C3E
:101A10004FEA840308D03B445B78C3F3C1039D4283
:101A200002D1E0B2FFF79AFF01340C2CEDD1F8BDE2
:101A30004908CAE7005125021887FF1FF483FF1FDA
:101A4000782A0000032800D8B0E7704738B5302264
:101A5000FF21194800F047FF002210464FF4F471AF
:101A6000FFF7A4FF154B00242825DC602246DD602B
:101A70004FF4F4715C6101205D61DC61DD615C62E9
:101A80005D62DC62DD625C635D63DC63DD635C645C
:101A90005D64FFF78BFF0A4B2246DC604FF4F47164
:101AA000DD6002205C615D61FFF780FF054BDC605B
:101AB000DD605C615D6138BD1887FF1F00800340F9
:101AC0000090034000800B40F8B5114E002406EB57
:101AD0008407BB78834216D1E5B22846FFF73EFF64
:101AE00016F824300B4903F0070201EB8201DA08F3
:101AF0007B78096903F007031B0243F0040341F8F4
:101B000022302846F8BD01340C2CE0D1FF25F8E73F
:101B1000F483FF1F782A00000B2810B513D80A4B56
:101B20000A4A13F8203003F0070102EB8102DB08B8
:101B30001269002142F82310FFF710FF044B4FF009
:101B4000FF3243F8202010BDF483FF1F782A0000E5
:101B50001887FF1F38B5064D002455F8243001338F
:101B600002D0E0B2FFF7D8FF01340C2CF5D138BD1C
:101B70001887FF1F0D4B1B685B0515D50C4A138892
:101B8000518801339BB2B3F5807F28BF002389B20F
:101B9000994209D0D118C0B20871012182F804110C
:101BA0001380044BAC22DA70704700BF34800440CD
:101BB0005487FF1F00A00640154A136843F4806352
:101BC0001360144B40F213321A604FF451725A6092
:101BD000114B124A002103EB600393FBF0F0C0F3BA
:101BE0004433D170917011741370C0F34713537064
:101BF00000F01F002C239072D370094A4FF4005359
:101C00008021136082F8A911A2F5C0721360704799
:101C10003480044040A004400044950800A00640E1
:101C200084E200E00E4A13685B0517D50D490E48A3
:101C30004FF400530B60A1F580710B600B4900233A
:101C4000CB7040F2031101604160116821F48061A2
:101C50001160074AA2F80631A2F80831704700BFA8
:101C60003480044084E200E040A0044000A006402C
:101C70005487FF1F70B505460E460446631B9E42FF
:101C800000DC70BD14F8010BFFF774FFF6E710B528
:101C9000441E14F8010F30B90D20FFF76BFF0A2026
:101CA000BDE8104066E7FFF765FFF2E7064AB2F8C5
:101CB000060183B2B2F8080180B2834238BF03F54F
:101CC0008073181A704700BF5487FF1F30B50E4C41
:101CD00000228A4202DB0A46104630BDB4F80651A3
:101CE000B4F80831ADB29BB29D42F5D001339BB23E
:101CF000B3F5807F28BF0023E51895F80A51855475
:101D0000A4F808310132E4E75487FF1F10B5224BD5
:101D10001A79940615D5214AD979B2F80631B2F864
:101D2000080101339BB2B3F5807F28BF002380B246
:101D3000834218BFD018C9B21CBF80F80A11A2F89C
:101D400006311549CB7803F0FF045BB10B79180617
:101D500008D5124A1088538880B29BB298420ED19F
:101D60006C23CB70610609D50B4B1A79520605D549
:101D70000A4A002182F804112C22DA7010BD0133C6
:101D80009BB2B3F5807F28BF0023D0180079C0B282
:101D9000C8715380E6E700BF00A006405487FF1FCC
:101DA00070B50D4A0D4D147844F0020605EBC603DC
:101DB00084F00104586050781470002814BF402348
:101DC000002343EA014180F0010041F08801507096
:101DD00045F8361070BD00BF6089FF1F0080FF1FEF
:101DE000F0B51849DFF860E08B888C794E888F68F1
:101DF000F21A44F0060C92B20EEBCC00402A07EB2C
:101E0000030528BF402245600D7B13449BB2002D83
:101E100014BF402000209E428B8098BF01EB8403BA
:101E200040EA02409EBF1F6100238B6085F00102E3
:101E300084F0010340F088000A738B714EF83C0077
:101E4000F0BD00BF6089FF1F0080FF1F084B1A7E96
:101E5000597E91420AD00132D2B2132A88BF0022A1
:101E60001A761A7E03EB8203D86970470020704708
:101E70006089FF1FF8B52A4E2A4D06F16C01696092
:101E80002949296006F1AC01E9602849A96028497F
:101E9000002407460D202C613470AC6174706C61B5
:101EA000EC61087030692C62B471AC6234732C63DD
:101EB0006C62EC626C63EC63AC6310B1FFF7FAFC2C
:101EC0003461706918B1FFF7F5FC002373610023DA
:101ED000B360FFF7BBFF10B1FFF7ECFCF9E7012F90
:101EE000144A154B0CBF052100211170134A6A6476
:101EF00002F14002EA640C490C4A2964AA640CBF4E
:101F000009220022286586F8EC0086F8ED00686555
:101F1000E865A8651A700A4B01221A70F8BD00BF67
:101F20006089FF1F0080FF1F88004000C80040003C
:101F3000C0200740C4200740C8200740508AFF1F28
:101F4000088BFF1F80088B4B53F83020C2F38302AD
:101F5000092A2DE9F04100F0DD800D2A06D0012A82
:101F600002D1854A43F83020BDE8F08103EBC0027E
:101F7000824C51680A68C4F894214A68C4F89821D0
:101F80007D4A43F830200025B4F894211D619D61FD
:101F900040F2816301269A42667010D8B2F5D06F84
:101FA00029D2822A7AD005D8802A71D2744B0F2286
:101FB0001A7066E0B2F5A06FF8D12B4639E0B2F5A1
:101FC000106F00F08A800AD8B2F5086FEED194F84D
:101FD0009C3184F87031334604F5B87529E0A2F5D8
:101FE0000B52012AE2D8B4F89831042B40F08B80D0
:101FF000644D2B781DE0B4F8962140F203339A42E9
:1020000005D1B4F8981140F2094399420DD0B4F8C3
:1020100098115D4B5D68002DC8D01888904235D16D
:102020005888884232D11B7A03E094F8783104F55D
:10203000BC75B4F89A619E4228BF1E46402E3746B2
:1020400028BF4027F61B28463946B6B2FFF7A8FE40
:102050003D440EB9402F14D1402E374628BF4027AB
:102060001FFA87F8A6EB080641462846B6B2FFF7E6
:1020700097FE0EB9402F04D13D44C4F8A051A4F8F6
:10208000A461424B01221A70BDE8F0810C33C1E714
:1020900084F87051022384F871519DE794F89D21D2
:1020A00094F89831022A03F07F0312D0002B7FF4BA
:1020B0007DAF002284F8702184F87121304A12F833
:1020C00023309B0702D5012384F870310223304D61
:1020D000AFE7032B3FF66AAFEBE7B4F89631012B7D
:1020E0003FF664AF002BD8B20CBF0123022384F863
:1020F0009C0184F89D31FFF7BDFE6670C4F8A051C5
:10210000A4F8A45159E7052B7FF457AF1D4D15F8DE
:10211000283F8EE7194CD4F8A051BDB1B4F8A461A2
:10212000402E374628BF40271FFA87F8A6EB08063F
:1021300028464146B6B2FFF733FE3D44A4F8A461F9
:1021400016B9402F18BF0025C4F8A051B4F8943137
:10215000B3F5A06F7FF408AF0E4B94F896211A7078
:10216000B4F896310BB984F89D310023A4F894316A
:10217000BDE8F0810080FF1FC80040006089FF1F9C
:10218000C02007402484FF1F9C2A000094200740A1
:10219000D08AFF1F9820074010B4134A92F89D314F
:1021A000022B014615D19379104C43F0060354F8E5
:1021B000333013F0800311D0537E147E0133DBB231
:1021C000142B28BF00239C4205D002EB83005376DA
:1021D000C16110BC704710BCFFF76CBB018810BC1C
:1021E000906051809380FBE56089FF1F0080FF1F96
:1021F000094B93F89D21022A0CD193F8EC3043F05F
:102200000802064B53F83210090603D403EBC2034D
:1022100058687047002070476089FF1F0080FF1FCB
:102220000A4B93F89D21022A0DD193F8EC30084A0D
:1022300043F0080352F83310090604D452F833006F
:10224000C0F3094070474FF0FF3070476089FF1FAF
:102250000080FF1F30B50C4B0C4C93F8EC2093F82A
:10226000ED100B4842F00805002908BF204682F017
:102270000102084C83F8EC2081F0010183F8ED1095
:1022800044F8350030BD00BF6089FF1F8800400062
:10229000C80040000080FF1F254A032310B500211D
:1022A00082F87931CBB20131C45C002C3BD10133CF
:1022B0005B0082F878311F4A136843F4802313606F
:1022C0001D4B80221A701A781006FCD41B4A1C4938
:1022D000C2F307200870C2F30740120E08750A7691
:1022E000FF2201F81C2C01F8142C01F88C2C1A7810
:1022F00042F040021A70134A01230021137082F841
:102300006C1002F8103C104B80226FF450711A7060
:102310000B444FF400721A6003F1C04303F5C82365
:1023200010221A7010BD02EB4303A3F87A41B9E7FB
:102330006089FF1F348004400C2107400080FF1F8C
:102340009C2007409420074049E400E02DE9F04735
:102350003F4E404F35463378DBB25A0744BF042224
:10236000327013F0080845D03878C0B2030904D1A0
:10237000FFF7E8FD08232B70EDE7012B33D1364A38
:102380008408924652F83430C3F38303092BF1D109
:10239000324B04F0010903EB89099846D9F8100083
:1023A00020B1FFF787FA0023C9F810300AEBC40008
:1023B0000023436098F8063043F006035AF83330A0
:1023C0001C06D7D4D8F8084054B9FFF73FFD0028C1
:1023D000D0D00388C8F80800A8F80230A8F8044054
:1023E000FFF7FEFCE6E7022B02BF80081A4B53F80A
:1023F0003030BFE7D80715D5194C237843F00203D6
:1024000023704046FFF736FD164AFF2313702B70EA
:1024100082F810801371144B9F221A7001232370CD
:10242000BDE8F087190604D5104A0D2111708022ED
:102430002A709A0705D50B490A78D2B20A7002228F
:102440002A70DB0644BF10232B70BDE8F08700BF65
:1024500080200740902007400080FF1F6089FF1FF9
:10246000942007408820074084200740C020074070
:1024700030B5084C023002B930BD013A92B28B5CE3
:102480001D0903F00F03655DE35C00F8025C00F8D2
:10249000013CEFE7F02A00002DE9F84381461020C7
:1024A000884617461E46089DFFF7D2F970B11023E3
:1024B000038002238370A0F80490A0F806800781AF
:1024C0004681C560BDE8F843FFF766BEBDE8F88306
:1024D0002DE9F74FBDF83C60019306F11005ADB250
:1024E0008246904628460D9ABDF8309000928B4661
:1024F0000E9FFFF7ADF90446D0B10421019B009A6D
:1025000005808170A0F804A080F806B0C371A0F81F
:102510000890C260A0F80A8026B1324639461030D1
:1025200000F0D6F9204603B0BDE8F04FFFF734BE07
:1025300003B0BDE8F08F1FB500240193039402940B
:1025400000942346FFF7C4FF04B010BD73B585782F
:10255000012D04460E4640F0B0800388142B08D0AD
:10256000002500232289E18800932846FFF794FF85
:10257000B5E00379012B3FD14379012B16D1018AB4
:10258000037B807A01F0FE0201F00101FEF7CCF935
:10259000238A40F48075DB07ADB213D4FEF792FABC
:1025A00083B20020228900902946DFE7022B0BD15D
:1025B0008289018A807AFDF7BFFFFF28D0D040F4DE
:1025C000007085B20023ECE7032B09D1B0F90C10A1
:1025D000807AFFF779FAFF28C2D040F44070F0E724
:1025E000042BBDD1C268018A807AFEF756FCFF2811
:1025F000B6D040F48060E4E7022B1ED1C08800F41E
:102600007F43B3F5807F03D1C0B2FEF751F9A7E74E
:10261000B3F5007F03D1C0B2FDF7CCFFA0E7B3F55F
:10262000407F03D1C0B2FFF777FA99E7B3F5806F27
:1026300097D1C0B2FEF7FCFF92E7032B08D1FEF75B
:1026400081FAFEF7D9F8FFF785FAFFF72DF887E74B
:10265000042B11D14379012B05D1028AC168807AFC
:10266000FFF7F0F97CE7022B7FF47AAF028A017B57
:10267000807AFFF75BF973E7052B7FF471AF43793D
:10268000012B03D1FFF738F900250CE0022B02D112
:10269000FFF73EF9F8E7032B0DD0042B0BBF4020CA
:1026A00000200025012500902289E188002328468A
:1026B000FFF7F2FE55E70220E6E7032D0FD1018870
:1026C0000F290CD982798588012A05F47F4316D118
:1026D000B3F5807F0BD1017BE8B2FEF70FF9002E36
:1026E00044D0204602B0BDE87040FFF7E3B8B3F530
:1026F000407FF4D1C168E8B2FFF730F9EFE7022A72
:1027000013D1B3F5807F09D1E8B2FEF7DBF9628916
:1027100003460121A088FFF70EFFE0E7B3F5007F35
:10272000DDD1E8B2FDF77CFFD9E7032A11D1B3F57B
:10273000806FD4D1C6B90846FFF78AF822882146AF
:1027400000F0C6F80346184602B0BDE87040FEF738
:1027500029BF042A05D1B3F5806FC0D1FEF73CFF35
:10276000BDE7052ABBD1E2E72346ECE702B070BD26
:102770002DE9F84F3C4C23785BB10023237072B6EF
:10278000FEF7E0F9FEF738F8FFF7E4F9FEF78CFF03
:1027900062B6FFF745FD051E4EDD72B6FFF728FD58
:1027A00063880746002B38D0012B0AD10378A08814
:1027B00000EB032080B2A080FFF74AF8A388A06056
:1027C0000380B4F802A0B4F80490D4F808801FFA8B
:1027D00085FB55444D45C6BFA9EB0A06B6B25E4619
:1027E000B8F1000F05D03246394608EB0A0000F078
:1027F0006FF8ABEB060537445644B6B2B1452DB27F
:1028000066800AD1B8F1000F03D001214046FFF7DE
:102810009DFE00236380A380A360012D04DC08D10A
:102820003B786580A38004E03E88B5420EDB072E2E
:1028300004D8FFF70FFD62B6BDE8F88F38460021D7
:10284000AD1BFFF783FE37442DB2E6E73046A68086
:10285000FEF7FEFF6580A0600028EAD02A463946D0
:1028600000F036F8E5E700BF088BFF1F024A136847
:1028700001331360FDF7EEBF5087FF1F014B18684F
:10288000704700BF6085FF1F70B50D4E0D4CA41B37
:10289000A4100025A54209D10B4E0C4C00F030F9D4
:1028A000A41BA4100025A54205D170BD56F8253003
:1028B00098470135EEE756F8253098470135F2E79D
:1028C0000C2B00000C2B00000C2B0000102B000028
:1028D00010B5431E0A44914200D110BD11F8014BBE
:1028E00003F8014FF7E702440346934200D17047D3
:1028F00003F8011BF9E7FFFF024B0146186800F0DF
:1029000003B800BF6085FF1F38B5064C002305469D
:1029100008462360FEF705FF431C02D1236803B17C
:102920002B6038BD148BFF1F0090044000A00440B2
:1029300000B0044000C0044000D0044000F00F404C
:1029400040F00F4080F00F40C0F00F4000F10F400A
:1029500081890308103B23131B1A22323A2A0B02E7
:10296000010919112B330A1228990C4A42525A04B0
:102970009120FFFF00600640007006404840900034
:1029800048C4900091D492000090044000A00440FC
:1029900000B0044000C0044000D004400000140017
:1029A000010016000200180003001A0004001C00B9
:1029B00005001E0009002000060022000A00240075
:1029C000070028000C002C000D00300043003400EC
:1029D0000E00380045003C00120040000F0044008B
:1029E0001300480014005000150058001900600042
:1029F000160068001A007000170080004F00880061
:102A00001C0090001D00A0005500B0001E00C0007A
:102A10002200E0001F00F00023000001240020013C
:102A20002500400195006001260080012700E0019B
:102A30002A00C0012B0000022C0040022D00800261
:102A40002E000003320080032F00C0033300000477
:102A5000340080043500000536000006370080078A
:102A60003A0000073B0000083C0000093D00000A56
:102A70003E00000C3F00000F008003400090034028
:102A800000800B4000900B400090044000A00440E8
:102A900000B0044000C0044000D004400001000029
:102AA0004E85FF1F12000000000200002E85FF1F50
:102AB00020000000000300002A85FF1F0400000022
:102AC00001030904FE84FF1F2C0000000203090417
:102AD000EC84FF1F12000000EE030000DA84FF1FE9
:102AE00012000000000000000000000000000000D4
:102AF0003031323334353637383961626364656674
:102B0000F8B500BFF8BC08BC9E467047350400000D
:042B1000F8B500BF55
:102B14002C007000400048006800600034003C0055
:102B2400780024000000980018009900B8002900DB
:102B34002D00250035003D002100B000D000F0003C
:102B4400D800FE00188BFF1F600B0300682B0400E5
:102B54003BE40500238406001A44090022640A00A9
:102B64002BA4140033C415000A0416001224170001
:102B7400993319009113200028000000000104007B
:102B84000100000000000000000157494E55534267
:102B94000000000000000000000000000000000031
:102BA4008E00000000010500010084000000010007
:102BB4000000280044006500760069006300650099
:102BC40049006E00740065007200660061006300D5
:102BD4006500470055004900440000004E00000015
:102BE4007B00640030003100300062006100390075
:102BF40030002D0030003200350061002D0034001B
:102C04006300390034002D00620032006400620069
:102C14002D006100310033006600320030003500C1
:102C2400640034003300370065007D0000001203A7
:102C34004D005300460054003100300030002200A3
:102C4400120357006900720065006B00690074008C
:102C540065002C034D0061006E00750065006C007A
:102C6400200042006C006500690063006800650094
:102C74006E00620061006300680065007200040376
:102C840009040902200001010080FA09040000027D
:102C9400FF00000007058102400000070502024012
:102CA400000012010002FF000040C016012740008E
:102CB400010203016485FF1F000000000000000002
:102CC4000000000000000000000000000000000000
:102CD40000000000000000000000000000000000F0
:102CE40000000000000000000000000000000000E0
:102CF40000000000000000000000000000000000D0
:102D040000000000000000000000000000000000BF
:082D14000000000000000000B7
:00000001FF
