:1000000000800020BD010000E11A0000AD1A0000D0
:10001000AD1A0000AD1A0000AD1A0000AD1A0000C4
:10002000AD1A0000AD1A0000AD1A0000E11A000080
:10003000E11A0000AD1A0000E11A0000853300004B
:10004000E11A0000E11A0000E11A0000E11A0000C4
:10005000E11A0000E11A0000E11A0000E11A0000B4
:10006000E11A0000E11A0000E11A0000E11A0000A4
:10007000E11A0000E11A0000E11A0000E11A000094
:10008000E11A0000E11A0000E11A0000E11A000084
:10009000E11A0000E11A0000E11A0000E11A000074
:1000A000711A0000771A0000B9270000BD27000070
:1000B000E11A0000E11A0000E11A0000E11A000054
:1000C000E11A0000E11A0000E11A0000E11A000044
:1000D000E11A0000E11A0000E11A0000E11A000034
:1000E000E11A0000E11A0000E11A0000E11A000024
:1000F000E11A0000E11A0000E11A0000E11A000014
:10010000E11A0000E11A0000E11A0000E11A000003
:10011000E11A0000E11A0000E11A0000E11A0000F3
:10012000E11A0000590800007F080000E11A0000F1
:10013000E11A0000E11A0000E11A0000E11A0000D3
:10014000E11A0000E11A0000E11A0000E11A0000C3
:100150001D0A0000E11A0000E11A0000E11A000087
:10016000E11A00006D2D0000E11A0000E11A000004
:10017000E11A0000E11A0000E11A0000E11A000093
:10018000E11A0000E11A0000E11A0000E11A000083
:10019000E11A0000E11A0000E11A0000210D000040
:1001A000450D0000490D00004D0D0000510D0000EF
:1001B000E11A0000E11A0000E11A0000564B4CF26F
:1001C000205210B51A804DF628121A8000BF00BFC9
:1001D00001F089FC514B4FF010621A60504A9A604E
:1001E000504ADA60504A136813F4807301BF4F49D4
:1001F0000B604FF4A85313604D4B1A78110748BF9A
:100200001A784C4944BF42F008021A704A4B2A221D
:100210001A704A4A4A4B8B4275D34A4B4A4A0021CC
:10022000934275D3494A4A4C0023114654F823009F
:1002300042F8230001336F2BF8D1464B464A802009
:1002400003F8010B9342FBD1444B1960444B8A22C3
:100250001A70A3F5805324225A70A0221A709A793A
:100260009207FCD59A79D406FCD43E4B19469A796C
:1002700002F00C02082AFAD105221A7143225A719F
:100280008B799806FCD5374B9A795106FCD5364ABE
:100290004FF0817111600521516020221A70314A9E
:1002A000937903F00C030C2BFAD1304B304A1A60CF
:1002B000304B314A1A6000225A60072243F8042C5E
:1002C0002E4AC3F80C2D62B6184B1B68DA0705D509
:1002D0002B4801F05DFC2B4B2B4A1A602B4B1B78F3
:1002E0005B0609D5274C284B22689A4204D1244842
:1002F00001F04EFC0023236003F04CF801F0FAFB00
:1003000001F048FCFEE752F8040F43F8040B82E7C3
:1003100043F8041B84E700BF0E20054030800440F2
:10032000823F04000100002B10D0034014D0034092
:1003300002D00740C485FF1F00E0074020380000BE
:10034000BC83FF1FC485FF1FA08AFF1F0082FF1F01
:100350000000000000E400E05FE400E008ED00E0E1
:1003600000500640004006404480044004800440A1
:10037000C010050014E000E03F190100000020203B
:1003800000DD68501CE00340A5C3945A00F007400C
:10039000FFFFFFFFFFFFFFFFFFFFFFFFFFFFFFFF6D
:1003A000FFFFFFFFFFFFFFFFFFFFFFFFFFFFFFFF5D
:1003B000FFFFFFFFFFFFFFFFFFFFFFFFFFFFFFFF4D
:1003C000FFFFFFFFFFFFFFFFFFFFFFFFFFFFFFFF3D
:1003D000FFFFFFFFFFFFFFFFFFFFFFFFFFFFFFFF2D
:1003E000FFFFFFFFFFFFFFFFFFFFFFFFFFFFFFFF1D
:1003F000FFFFFFFFFFFFFFFFFFFFFFFFFFFFFFFF0D
:10040000FFFFFFFFFFFFFFFFFFFFFFFFDEF9FFFF23
:1004100010B5054C237833B9044B13B10448AFF33E
:1004200000800123237010BDC485FF1F0000000061
:100430002438000008B5034B1BB103490348AFF350
:10044000008008BD00000000C885FF1F24380000A0
:10045000124A12F8103012F81020DB0812F0030FC5
:1004600043F0400302F004020CD10D4932B10A6896
:1004700042F010020A600B4A136070470A6822F0CB
:100480001002F7E708492AB10A6842F010020A6030
:10049000064AF1E70A6822F01002F8E7BC83FF1F62
:1004A0000CB0034000B003400CB00B4000B00B4058
:1004B0000C4B19200322002110B518605A60996175
:1004C00009490A4B4FF000740C601C60084C206016
:1004D00008480260084A012010604FF080620A60FC
:1004E0001A6010BD08B0034084E200E004E100E0BF
:1004F00008B00B400CB00B4020B00B40030644BFCB
:100500006B38C0B2182870B527D801BF14490B78D2
:1005100043F001030B70134B93F9001079B91249A2
:1005200091F83240FE2C0AD1104C40252560104D28
:100530005F262E6087252560FC2481F832405AB161
:1005400059780C4E01EB4104A400351932510131A8
:1005500000226A602872597070BDFF20FCE700BF5E
:1005600002D00740E085FF1FBC83FF1F24B003407B
:1005700000B00340E485FF1F2DE9F04F184F84467B
:100580000026B9464FF00C0E07F1040807F1100AD7
:100590007C78A64209DBBCF1180F01BF114A137821
:1005A00003F0FE031370BDE8F08F0EFB06F308EBBB
:1005B00003020136127A6245EAD10C3343441EFB32
:1005C00004AB0C335B4503D1013C89F80140DFE704
:1005D00013E90700A3F1180585E80700F1E700BF5C
:1005E000E085FF1F02D007401828014618D80D4BA0
:1005F00093F83220FE2A02D183F8320028E70A4A13
:1006000092F8643092F865000133DBB2082B28BF02
:10061000002398421EBFD01882F8643080F866101C
:10062000704700BFBC83FF1FE085FF1FF8B5544A29
:1006300092F832506B1DDBB2012B044600F2908021
:10064000FC2D50495BD15048504B1B68076850F84F
:10065000046C50F80C5C10383B44006833442B4465
:100660000344C3F34E034A4843F400430360494B39
:100670001B68C76B866B056B2C303B4400683344AA
:100680002B440344C3F34E03434843F40043036045
:10069000424B1F2018600420586240230B60404BDF
:1006A0005F20186087230B60FB2382F8323092F8BA
:1006B0003230FE2B4FF0FD051FD10026394B93F849
:1006C000651093F86400884256D00131C9B20729F9
:1006D00088BF002183F8651093F865100B4493F8E8
:1006E000660082F83200FFF7B3FEF30243EA465396
:1006F00043EA460343EA562323602846F8BD2A48C6
:100700002A4B1B68076850F8046C50F80C5C1038D2
:100710003B44006833442B440344C3F34E03244852
:1007200043F400430360234B1B68C76B866B056B68
:100730002C303B44006833442B440344C3F34E0342
:100740001D4843F400430360154B1F201860042329
:100750000B60FE2382F83230124B01211970A6E79C
:1007600012F8153013F0030F0CBF144914491F235E
:100770000E6841F8103CA1E7FE2382F83230B4E75E
:10078000BC83FF1F24B00B4048B003404CB0034073
:100790002CB003406CB0034030B0034000B00340C5
:1007A00000B00B40E085FF1F48B00B404CB00B4041
:1007B0002CB00B406CB00B4030B00B4010B003407D
:1007C00010B00B400F4910484FF000730B600F4BF7
:1007D0001F221A60402303604FF0806008600C49BC
:1007E0000A600C4A0C4913600C4B0022FE201A7060
:1007F00081F8320083F8642083F865205A70FFF78F
:1008000057BE00BF84E200E024B0034000B00340C4
:1008100000B00B4024B00B40BC83FF1FE085FF1FDE
:10082000F8B50C4C0025261F2F467378AB4200DC30
:10083000F8BD6368226801339A4204D86760207A61
:10084000FFF7D2FE02E06360002BF8D001350C34D4
:10085000EBE700BFE485FF1F07B501A8FFF7E6FE41
:10086000C31CDBB2012B07D940F40070019B0022AE
:10087000012180B202F090FB03B05DF804FBFFF7AA
:10088000EBBF00BF002314492DE9F0411D460C26A3
:100890006FF0004706FB03F462582AB182428BBF17
:1008A000121A6750625001250133042BF2D10A4C11
:1008B0006FF0004704F130064FF000082368BB4298
:1008C00004D1C4F80080D4E9013098470C34A64222
:1008D000F4D12846BDE8F0815086FF1F114B196BFB
:1008E00030B5E9B96FF000420C2404FB01F0185850
:1008F00010B1824228BF024601310429F5D16FF0C0
:100900000045AA420CD00849084C02202260086029
:10091000086840F0010008605A6301221A632560EC
:1009200030BD00BF5086FF1F0871034000710340B7
:10093000084A136843F400031360074B00221A604F
:100940000122C3F80C21054A10231360A2F5C072DE
:10095000136070473C8004400070034088E200E070
:10096000094A136823F001031360084B01221A603F
:10097000074B10221A60074B00221A60DA609A6156
:100980005A62C3E90C227047087103400C7103409E
:1009900088E200E05086FF1FF8B51C4C236B012B4A
:1009A00007460D4616461AD1194A136823F001036B
:1009B0001360184B606B1A6812F0010F164A18BFCB
:1009C00000F10040126818BF00F1FF30801A0122C8
:1009D0001A6002232363FFF755FF002323632420BB
:1009E00078439B288CBF9B38012000230C2101FBFE
:1009F00003F2A75837B9A318C3E90156A050BDE8C0
:100A0000F8406BE70133042BF1D1F8E75086FF1F64
:100A1000087103400C7103400471034070B50F4E20
:100A20000F4C706B256800F10040022301383363DE
:100A3000431B1846FFF726FF2268AB1A154600280D
:100A4000F7D1084A136823F001031360064B012213
:100A50001A603063BDE8704040E700BF5086FF1F5A
:100A600004710340087103400C71034010B5114B31
:100A700093F9002090421CDA03EB40004FF08074A1
:100A8000827843786FF30002827003F007010A4A0C
:100A9000DB0852F8212018B242F82040012202FA65
:100AA00003F3064A52F82120516921EA03015161FA
:100AB000936010BD8886FF1F9C35000088350000BC
:100AC0000A4B93F9002090420EDA03EB40035A7868
:100AD0000123D008834002F00702054850F8222085
:100AE00009B1536070479360704700BF8886FF1F4D
:100AF0008835000021282DE9F74F8846174600F277
:100B000092804A4D95F900200021CEB296424FEADC
:100B1000460903DB04BF01322A7005E005EB090436
:100B20000131A478E407F0D4AEB9414C414A4FF406
:100B30000001216011604FF08071216011604FF061
:100B40000071216011604FF08061216011604FF0F1
:100B5000006121601160384A05EB0901145C4A7894
:100B600004F0070B6BF30202E40864F3C7024A7057
:100B70008A7842F001026FF341028A702F49012204
:100B8000A24051F82BA0B8F1000F0FD1DAF81430C1
:100B900023EA0202CAF81420780741D417F0080F9C
:100BA00014BF4FF489724FF4887215E0194630462D
:100BB0000192FFF785FFDAF81430019AB8F1010FBE
:100BC00042EA0302CAF81420E6D117F0080F14BF56
:100BD0004FF4A2724FF48272194B24B253F82B30A7
:100BE00043F82420B8F1000F16D117F0300F13D0BE
:100BF0004D4417F0100FAA7842F00202AA700CBF01
:100C000000214FF41021BA0653F8242048BF41F4C4
:100C100020210A4343F82420304603B0BDE8F08F7A
:100C200040F21312D8E7FF26F6E700BF8886FF1FC1
:100C300088E200E008E100E034340000883500007C
:100C40009C3500000C4B93F90020904211DA03EB25
:100C500040030A4A5B7803F00701DB0852F82120C1
:100C60001169012202FA03F30B4214BF104600205F
:100C700070470020704700BF8886FF1F883500003E
:100C800070B5114A114E92F900500020854201DCE6
:100C9000FF2015E002EB40039978890711D55B78B6
:100CA00003F00701DB0856F8214004EB830154F8F8
:100CB0002330DB0105D50B6843F080730B60C0B2B5
:100CC00070BD0130E2E700BF8886FF1F9C35000041
:100CD00038B5114D002495F90030A34212DC0023F1
:100CE0002B700E4B4FF400021A604FF080721A60A6
:100CF0004FF000721A604FF080621A604FF000628D
:100D00001A6038BD05EB44039B78DB0702D5E0B2DF
:100D1000FFF7ACFE0134DEE78886FF1F88E100E0C4
:100D200010B5FFF7ADFFFF2804460AD0FFF78AFF92
:100D300044F48074034600220121A0B202F02CF991
:100D4000EFE710BDFFF7ECBFFFF7EABFFFF7E8BF23
:100D5000FFF7E6BFFFF7E4BF10B5184C226862B991
:100D600017490B6843F002030B6051F8043C43F051
:100D7000020341F8043C134B1A602268002001234F
:100D800012EA030112D113432360C4B20E4B400197
:100D900000F180401C7020221C7100F5104003F807
:100DA000024C5C7102F025FB204610BD013010287A
:100DB0004FEA4303E4D1FF24F6E700BFD086FF1FCC
:100DC00040800440008000401A800040014B1870B1
:100DD000704700BF1B800040014B1870704700BF78
:100DE0001A800040400100F1804000F51040808BE7
:100DF000C0F3C0107047014B187070471C80004052
:100E0000044B1A68012303FA00F0104214BF18467D
:100E1000002070472C800040014B1870704700BFC5
:100E20001E800040400100F1804000F51040C08A63
:100E3000704700F11002094B43F8221041118B005A
:100E4000012200F01F0003F1604302FA00F003F5F5
:100E50006143034A42F82100186070470082FF1F77
:100E600080E200E04211012300F01F0003FA00F0CD
:100E7000014B43F82200704780E100E010B50446C2
:100E8000FFF7F0FF124B600100F180401C70202240
:100E9000002100F5104002F0ACFA04F1804303F5A4
:100EA000043300221A700B4B012000FA04F4186876
:100EB00020EA0400186050B9074A136823F00203BF
:100EC000136052F8043C23F0020342F8043C10BDC6
:100ED0001A800040D086FF1F40800440014B1870EC
:100EE000704700BF1F800040400100F1804000F5C6
:100EF0001040838B43F0020383837047400100F16D
:100F0000804000F51040838B43F0080383837047D3
:100F100000F1804000F50430002341F080010370AF
:100F200001707047400100F1804000F5104000233F
:100F300001220160838083718260C3607047400139
:100F400000F1804000F51040012301600021838002
:100F5000817183605342C360C283C2827047400183
:100F600000F1804000F510400023012201618382DE
:100F7000C371826083617047400100F1804000F5D9
:100F800010400123016100218382C17183605342BB
:100F90008361C283C28270470A4B53F820309A782B
:100FA000920603D5B4229A7000207047D87810F0CA
:100FB000200001D006207047B0229A709B789B06D3
:100FC000F8D57047583400000F49602202FB001228
:100FD00010B592F8593092F858409C4212D0013323
:100FE000DBB2132B88BF002382F85930602303FB48
:100FF0000013182293F8593002FB0030023051F8E8
:10100000200010BD0020FCE7D486FF1F30B40F4D38
:10101000602404FB0054024694F8583094F85900B8
:101020000133DBB2142B28BF0023984209D01820CB
:1010300000FB0232023284F8583045F8221030BCEE
:101040007047084630BC00F01BBE00BFD486FF1FAF
:101050000749602343430246C81810B4C06D0424F6
:10106000CC5400EB4000034910BCFFF795BC00BF17
:10107000D486FF1F8D1800002DE9F04F104E60241C
:10108000444337190546786885B0B0F80480B0F855
:1010900006908A46934600F0F3FD00200123786015
:1010A0003355CDE90200CDE900B0534640464A46EB
:1010B000022101F03EFF284605B0BDE8F04FC7E72A
:1010C000D486FF1F02792C49DFF8B8C06023534350
:1010D0002DE9F047CC18062594F85BE060600CF130
:1010E0000800CD5400EB8E0310F82E505B78DFF82B
:1010F0009880C3F34403C5F3C20558F8231058F889
:101100002590012606FA03FAC1F804A0D9F81410B4
:1011100041EA0A01C9F8141050F82E1030F82E00D8
:10112000C0F38210C1F3843158F82080D8F814E05D
:101130008E402EEA0606C8F81460104E1BB256F810
:1011400025504FF4827E45F823E009B256F820304E
:101150004FF4807043F821005CF82230E06D0027E6
:1011600050219F7099711221D97067800449BDE8A0
:10117000F047FFF711BC00BFD486FF1F9C3500006D
:101180008D11000058340000883500002DE9F04F23
:101190003B4F3C4E3C4DC0B2602303FB00735C8868
:1011A00093F85BA0013436F82A80A4B25C80C8F3BF
:1011B000821856F82A3006EB8A09C3F3843E55F8A4
:1011C000283099F801201969012303FA0EFBC2F3B4
:1011D00044021BEA010103FA02F355F822C0AB46B0
:1011E00011D1112C0FD8E20754BFCCF80430CCF841
:1011F0000830602303FB007702462449F86DBDE800
:10120000F04FFFF7C9BB224C54F820408027A7704D
:101210001227E77000281F4C14BF4FF000774FF0E3
:101220008077276016F82A7099F802401A4EC7F3A3
:10123000C207C4F3C20412B256F82750240244F085
:10124000640445F82240B9F8022056F82840C2F359
:1012500082120FFA8EFE120242F0640244F82E202F
:101260005BF82740CCF808306269B1FA81F122EAD4
:101270000303636100224909BDE8F04FFCE600BFAB
:10128000D486FF1F60340000883500008D110000F7
:101290005834000080E200E09C350000F8B50A4FA9
:1012A000602444433D1906466B8868681033038008
:1012B0004172428101F0F0FA00236B6001233B553B
:1012C0003046BDE8F840C3E6D486FF1F374B384AA6
:1012D0002DE9F04153F8207060234343D51812F8EC
:1012E000038095F85A40B8F1020F0646204633D1E4
:1012F000FFF778FD78B1F023BB702046FFF7EEFDD5
:101300002046FFF778FD85F801806B681B88113B4C
:101310006B80BDE8F081FB7813F0100F4FF01203E3
:10132000FB70BB7803F0DF03BB70204608BF4FF0B3
:101330000708FFF7D3FD2046FFF76EFD6B682046D8
:101340001D88FFF76FFD103DADB22A1A41463046A9
:1013500092B2BDE8F0418FE6FFF744FD50B1E823BB
:10136000BB702046FFF7BAFD2046FFF744FD02237D
:101370006B70CAE71223FB70BB7803F0DF03BB700E
:101380002046FFF7ABFD2046FFF746FD6B681D8842
:101390002046FFF747FD103DADB2013D2D1AAAB220
:1013A00030460721BDE8F04178E700BF583400001F
:1013B000D486FF1F012089E7002087E72DE9F0414F
:1013C000234B0779234A53F82740A37943F050036E
:1013D000A371A37903F0DF03A3711223E3706023E9
:1013E0007B43D6184FF481714FF00008D152054667
:1013F0007060A6F802803846FFF7CEFD014620B1A6
:1014000042463846BDE8F04136E696F85A70FF2F5E
:101410001BD02A88103A92B2032A16D905F110017E
:101420003846FFF78CFD3846211DFFF798FD032352
:101430007370F123A37096F85A00FFF7C7FCAB7ADC
:101440005B00DBB22371BDE8F081F023A370F6E707
:1014500058340000D486FF1FF8B56023154A434373
:101460000C4640F20311D1500546D718FFF794FD02
:10147000014620B128460022BDE8F8400EE797F863
:101480005A600D4BFF2E53F825500BD0291D3046C6
:10149000FFF748FD796831F8102B113A92B23046C7
:1014A000FFF76AFD640044F00104F023E4B2AB707E
:1014B0002C71F8BDD486FF1F58340000F0B51032EF
:1014C00095B285B0064628460F4600F0ADFB0446AF
:1014D00078B9CDE90200CDE90000052330463A464F
:1014E000032101F026FDF0B2FFF7B2FD204605B062
:1014F000F0BD04238370032305808680C7800372B8
:10150000F4E738B504468088A289E188C5B2FFF7C0
:10151000D5FF0C4A602303FB0523586088B10A4BB2
:1015200053F825309A7942F050029A719A7902F074
:10153000DF029A711222DA7061892846BDE83840CC
:101540008AE738BDD486FF1F583400007047022850
:101550002DE9F04100F297804C4D05EB80006023AF
:10156000047A4B4804F007046343C618C15C0029A1
:1015700040F089800127C7544648474BB3FBF2F33C
:10158000F365002C03680CBF4027802743EA07035C
:1015900055F8247003604FF020037B7139703F4B86
:1015A000F9713F4914BF9846884608EB520347211A
:1015B000B3FBF2F205F1140092B201F065FC05EB09
:1015C0008000384A037D7B70374B384898458CBF84
:1015D0004FF004084FF00308802387F80680002CA2
:1015E000BB704FF01203FB700CBF4FF080734FF0D5
:1015F00000731360A2F5C0720835136096F85B2083
:1016000015F8223005EB8201C3F3C2034F7850F87E
:1016100023C08B78C3F3C203C7F344071B0243F014
:1016200064034CF8273035F8223055F82220C3F3F4
:101630008213C2F3843250F823004B88C3F3821321
:101640001B0243F0640340F82230FFF785FBFF28BC
:10165000054686F85A0013D0FFF750FC144B154985
:101660002846002C18BF1946FFF7E3FB2846FFF772
:101670003BFC002C0CBF162117212846FFF748FC25
:101680002046BDE8F081FF24FAE700BF583400008F
:10169000D486FF1F3480044040420F0000A24A0459
:1016A0000051250280E200E0FF6BDC029C35000067
:1016B000B5130000B913000001282DE9F0410446DC
:1016C00071D86023394D4343EA18EB5C002B6AD094
:1016D000374E92F85B70062B06EB870813D198F80B
:1016E00001203449C2F344020123934051F82220DF
:1016F000936016F82720C2F3C20251F822104A69FB
:1017000022EA03034B61602363430022EA529442BE
:10171000294A0CBF4FF080714FF000712B441160CB
:1017200093F85A00FF2801D0FFF7A8FB16F82720EE
:1017300098F801302149C2F3C202C3F3440351F8BF
:1017400022204FF0000842F8238036F8272056F870
:101750002730C2F38212C3F3843351F8222042F8B7
:101760002380174B53F82430502283F802809A715B
:101770001222DA70602303FB0455686800F080FAD7
:10178000104AC5F80480136844450CBF6FF040014F
:101790006FF080010B4013602046FFF715FC10B17D
:1017A00000F06EFAF8E7BDE8F08100BFD486FF1FB5
:1017B000603400008835000080E100E09C350000C6
:1017C000583400003480044008B50020FFF774FF4F
:1017D0000120BDE80840FFF76FBF0379012B10B46B
:1017E000014602D910BC00F04BBA60225A43044CA7
:1017F000A25C012A02D0184610BC07E410BCDDE54B
:10180000D486FF1F70B50579012D044617D86023D3
:101810006B430B4AD35C012B0ED0008800F004FA16
:10182000064660B12146228801F0D8FD314628469F
:10183000BDE87040FFF7EABBBDE8704061E670BDEF
:10184000D486FF1F104B70B56024054604FB00349E
:101850002378012B00D070BD2846FFF7B5FB064664
:101860000028F8D0037A042B05D1FFF74AFE304652
:1018700000F006FAECE7062B02D1FFF723FCE7E7BE
:10188000FFF79CFDE4E700BFD486FF1FC2B26023D0
:101890000D49534310B4CC5C042C01EB03000DD173
:1018A0000524CC54094B53F8223080219970C06D27
:1018B000074910BC00EB8000FFF76EB80120C85448
:1018C00010BC1046FFF7BEBFD486FF1F583400007F
:1018D0008D1800002DE9F84F634BDFF8909153F815
:1018E00020404FF0600808FB00F8E27819F8081073
:1018F00009EB080502290646D2B295F801C04F4609
:101900005ED1D00646D412F001020DD0BCF1010F19
:101910004FF012034DD0BCF1030F02D16A88002AA8
:1019200047D0E370042137E0BCF1010F686806D1AD
:101930006970037C23711223E370BDE8F88F6B8814
:10194000B0F800C00133ACF1100C9BB21FFA8CFC54
:1019500063456B8002D203441B7CEBE7037A032BC5
:101960002AD0E170B0F806A0B0F80CB0878844899E
:1019700000F086F901235A465146384609F80830E6
:10198000FFF79CFD68600028D7D021463046BDE8AF
:10199000F84F61E51223E370A37803F0DF03A3702F
:1019A000602303FB067730467A88BDE8F84FFFF7DF
:1019B00063BBE3700321EFE71223E3701146EBE70B
:1019C0000329B8D168680388BCF1010FA3F11003A3
:1019D0009BB22BD112F010000AD01223E370022127
:1019E000602303FB067730467A88BDE8F84F55E45C
:1019F000D20703D51223E3700021F1E7032B0AD9A4
:101A000095F85A00FF2806D0E1236970A370FFF70C
:101A1000DDF923798FE7602202FB067602229342EA
:101A200034BFE823E0237270A370F2E76A88991E3E
:101A30008A4208BFE82103F1FF3308BFA170511C9F
:101A40009A4289B24FF06003024407D103FB069328
:101A50009020A070598023791374CBE703FB06967E
:101A600071802379137466E758340000D486FF1F11
:101A70000020FFF72FBF0120FFF72CBF0379012BB8
:101A800010B4014602D910BC00F0FAB860225A43E3
:101A9000054CA25C012A03D0184610BCFFF7B6BA69
:101AA00010BCFFF70FBB00BFD486FF1F08B50B4D5E
:101AB0002C462B68580301D501F058F923685905C5
:101AC00001D500F00DF823681A0501D500F008F8DB
:101AD0002368DB04EDD500F003F8EAE73480044026
:101AE00008B5FFF7E3FF024B10221A80704700BFD2
:101AF0000020054070470A4908B50A6858B16B468E
:101B00001044A3F58053984207D301F03DFC0C2309
:101B100003604FF0FF32104608BD0860FBE700BFCE
:101B2000F083FF1F002070474FF0FF3070474FF4E5
:101B300000534B6000207047012070474FF0FF308A
:101B40007047FEE7FEE70078B0FA80F04009704782
:101B5000012303707047EFF31380A0B9EFF31083F4
:101B60009BB9EFF305825AB10F2A01D9074BD35C19
:101B7000EFF3118212B1934228BF13461846704703
:101B80004FF48073F4E74FF0FF307047F0E300E06C
:101B90007047FFFF7FB50021084600F029F8FEF7E7
:101BA000C7FE00F03BF9FEF783FCFFF7CFFC0E4BBE
:101BB000022206AC1B6844F8183D0DEB020101A897
:101BC00001F075F9094B02A81B6800930422214615
:101BD00001F06DF9002301A88DF8103001F06EF8C6
:101BE00001F057FBFCE700BF5C80044060800440CC
:101BF00010B50C4658B989B96C46094B1968641A76
:101C0000A4F5825424F00704204601F0FBFB0023D6
:101C10004360044B0460C3E9004010BD0060FFDE78
:101C2000F083FF1F9487FF1F144BC21C22F0030296
:101C3000586870B54FF0FF31141D0025A0B94B1C3A
:101C400011D002F1100368688B4293BF03684368A8
:101C50006B601B1B9EBF0360C450C018031D002196
:101C6000184601F0C6FB70BD0668B44203D8B14205
:101C700084BF1D46314603464068DFE79487FF1F57
:101C800030B5D8B150F8041C0E4B041F5A680AB185
:101C9000A24214D36518954204BF156852680260C9
:101CA00004BF491940F8041C1A689D18AC4201BFD2
:101CB0008918026819605A6018BF5C6030BD13460D
:101CC000E4E700BF9487FF1F044B5B68002003B963
:101CD00070471A685B681044F9E700BF9487FF1FDC
:101CE000054B5B68002003B970471A685B68904237
:101CF00038BF1046F7E700BF9487FF1F032812D8AC
:101D000010B9072902D9704701290CD8064B53F89E
:101D1000203012F0020F03EBC10114BF242228224D
:101D20000023CB60CA607047B03500000B2810B5A7
:101D30001CD80F4B0F4A03EB80035B7842F820104E
:101D40000914C3F3C1044FEA531308D002EB440251
:101D5000128E02FB011147F6FF7291FBF2F1064A67
:101D600052F82420013302EBC303996010BD00BF79
:101D7000F483FF1F9C87FF1FB0350000F8B50546B0
:101D80002048042947F6122332BF022403460124C7
:101D9000002003EB5103B3FBF1F1B1F5803FC3B277
:101DA00000F101002CD80029174E184F08BF01215F
:101DB00006EB4500013989B20186D007144A03F0C9
:101DC000070352F8252043EAC40348BF43F0200329
:101DD0000024146054609160136056F824104A1C6B
:101DE0004FEA840308D03B445B78C3F3C1039D42B0
:101DF00002D1E0B2FFF79AFF01340C2CEDD1F8BD0F
:101E00004908CAE7005125029C87FF1FF483FF1F82
:101E1000B0350000032800D8B0E7704738B530224D
:101E2000FF21194801F0E5FA002210464FF4F47141
:101E3000FFF7A4FF154B00242825DC602246DD6057
:101E40004FF4F4715C6101205D61DC61DD615C6215
:101E50005D62DC62DD625C635D63DC63DD635C6488
:101E60005D64FFF78BFF0A4B2246DC604FF4F47190
:101E7000DD6002205C615D61FFF780FF054BDC6087
:101E8000DD605C615D6138BD9C87FF1F00800340A1
:101E90000090034000800B40F8B5114E002406EB83
:101EA0008407BB78834215D1E5B22846FFF73EFF91
:101EB00016F8243003F00701DA080A4B53F8211012
:101EC0007B7803F007031B0243F0040341F8223040
:101ED0002846F8BD01340C2CE1D1FF25F8E700BFFE
:101EE000F483FF1F9C3500000B2810B512D80A4B55
:101EF0000A4A13F8203003F00701DB0852F82120CA
:101F0000002142F82310FFF711FF054B4FF0FF327D
:101F100043F8202010BD00BFF483FF1F9C35000054
:101F20009C87FF1F38B5064D002455F82430013337
:101F300002D0E0B2FFF7D8FF01340C2CF5D138BD48
:101F40009C87FF1F0D49602202FB001210B5537AD7
:101F5000147A9C4210D00133DBB2132B88BF0023CC
:101F60005372602303FB001318225B7A02FB0030DC
:101F7000043051F8200010BD0020FCE7D487FF1F7B
:101F800030B40D4D602404FB00540246237A607A7D
:101F90000133DBB2142B28BF0023984208D018204D
:101FA00000FB02320432237245F8221030BC704725
:101FB000084630BCFFF764BED487FF1F2DE9F84FF9
:101FC0000546807AFF2802D00021FEF779FD2F799F
:101FD000344E60237B43F218F5500221002392F81F
:101FE0000AB01173536092F80BA02A88BBF1FF0F5F
:101FF000A2F110081FFA88F804D0B8F1030F94BFBB
:1020000000230123284C2949E162216821F00101C4
:10201000216005F1100963B3113A92B205F1110183
:102020005846FEF78CFF22495846FEF798FF214993
:102030005046FEF777FF424649465046FEF79CFF62
:102040004FF4403323632B7C6363602303FB0766F9
:102050000123B3805046FEF7B9FE5846FEF7B6FEA0
:10206000236B43F0407323634FF00073E362BDE8DA
:10207000F88F4FF4003222634FF00071434506DAC7
:10208000E26A920108D4226B42F00072226360225D
:1020900002FB0766B380EAE719F8012B626301339C
:1020A000E162EBE7D487FF1F00C0024000000A9AFC
:1020B00034C0024038C002407FB50446017B00793D
:1020C000FEF7FEFCE688A5882046FFF7D9FD002331
:1020D000CDE90233CDE9003332460421284600F031
:1020E00028FF04B070BD2DE9FF47602343431C4C1B
:1020F00054F803A005469AF80A00BAF80460BAF842
:102100000670FF288846914602D00121FEF7D8FCD0
:102110005046FFF7B5FD60226A430023A118A35083
:1021200001220A734B603A46CDE90233CDE90093B0
:1021300002214346304600F0FCFE2846FFF702FF2E
:1021400058B1037A032B03D104B0BDE8F04735E75B
:10215000012BF2D1FFF7B0FFEFE704B0BDE8F08745
:10216000D487FF1F6023F0B44343214DEE58E91894
:102170003288CB881F49103A92B24FF4003793420D
:102180001EDB99B2602303FB00531A4CD9809B8855
:102190004FF0007C93421EDB602404FB00549BB292
:1021A0008A42A38021D19A421FD1124B124C196846
:1021B00041F00101196000211963DC62F0BC92E773
:1021C000CC6AA403DDD5F418D1F838C084F810C067
:1021D0000133CF62D3E7E76ABF01DDD5F7180133DA
:1021E0003F7C6763C4F82CC0D4E7F0BC704700BFE5
:1021F000D487FF1F00C0024000000A9A70479C4627
:10220000C3B20D2B2DE9F74F40F028814FF0000BA2
:10221000000A0B2840F0268100209C4E4FEA8B0AD2
:1022200006EB0A044FEA8009A57806EB0904C5F31A
:102230004105A47AC4F34104AC4240F01181CCB210
:10224000FF2C0BD00C2C40F01181002406EB8401F4
:10225000897CC1F34101A94240F002818C4F019772
:10226000602101FB05710B7B002B40F0F980887326
:10227000884881F80DB04FF0010E81F80CE0002D78
:10228000CC7301680CBF4FF4805E4FF4005E41EAEE
:102290000E01016002F00C027F4980480860082AA4
:1022A0002F46884600F0D0800C2A40F0E8804FF09E
:1022B000705141F000717A4AC8F80C1002EB5C02D0
:1022C0003D21B2FBFCF2774892B200F0DDFD06EB57
:1022D0008000D8F80C30028B12F04000C2F30111DC
:1022E00002F00F0242EA0148314418BF43F00043B4
:1022F000012A48EA030891F80C1100F2A8804FF077
:10230000020C0CFA02F24A4300B1520892B2342194
:10231000654800F0B9FD06EB800018F0007FB0F8CA
:102320001021C2F3011102F00F0215BF48EA022882
:1023300048EA023848EA015248EA81525649CA60DE
:1023400056F82B2036F82B10B244C2F3823210021A
:10235000C1F38211554A9AF8013052F82110B14464
:10236000C3F34403FF2C41F82300B9F80800D9F85F
:10237000083099F80910C0F38210C3F38233C1F317
:10238000440152F820004FEA032340F821300FD0D7
:1023900006EB8404208A2369617CC0F38210C3F3B6
:1023A0008233C1F3440152F820201B0242F821304D
:1023B000002D3F4A0CBF4FF080634FF00063136065
:1023C000A2F5C0721360FEF7C7FC019A602303FBFD
:1023D000052BFF2804468BF80A004BD0FEF78EFD34
:1023E000344B35492046002D18BF1946FEF721FD14
:1023F0002046FEF779FD002D0CBF11211321204648
:10240000FEF786FDFEF7A8FCFF2804468BF80B00BC
:1024100013D0FEF773FD294B29492046002D18BF24
:102420001946FEF706FD2046FEF75EFD002D0CBFA7
:10243000102112212046FEF76BFD384603B0BDE89F
:10244000F08F4FF0010BE3E64FF0705133E7022AB3
:1024500002D04FF0010C54E7062254E70E2BF0D0C7
:10246000FF27EAE70728FBD10120D6E6082CF7D1A1
:102470000124EBE6FEF702FD8BF80A40DDE7042AB3
:102480004FF060513FF415AF15E700BFC0350000B5
:10249000D487FF1F3C80044000C00240010C008034
:1024A00000512502D8350000D03600009C350000D0
:1024B00080E200E00127000007270000AD270000B0
:1024C000B327000010B40279084C602303FB0243D9
:1024D00001461B7B13B910BCFFF7D2BB012B02D006
:1024E000104610BC4CE510BC68E500BFD487FF1F48
:1024F00010B4827A084C602303FB024301461B7B25
:1025000013B910BCFFF7BCBB012B02D0104610BCA6
:1025100036E510BCD0E500BFD487FF1F012870B599
:1025200004466FD8384D602303FB00531A7B002A02
:1025300068D0364A1168002041F00101187311601B
:10254000334911603349D1621063987AFF2801D072
:10255000FEF794FC602303FB0453D87AFF2801D0D4
:10256000FEF78CFC002C2C4B0CBF4FF080624FF020
:1025700000621A6060236343EE5866B1B07AFF28A8
:1025800002D00121FEF79CFA3046FFF779FB602369
:1025900063430022EA50602303FB04551F4B6A7B10
:1025A0001F4833F8221003EB8202C1F382115278E4
:1025B00050F82160C2F34402002146F82210AA7BA1
:1025C00003EB82021689527AC6F38216C2F34402E2
:1025D00050F8266046F82210EA7BFF2A0BD003EB66
:1025E00082031A8A5B7CC2F38212C3F3440350F85D
:1025F000222042F823102046FFF7A4FC10B1FFF779
:102600003FFBF8E770BD00BFD487FF1F00C002404A
:10261000010C008000000A9A80E100E0C035000053
:102620009C35000010B5094C227B12B10020FFF749
:1026300075FF94F86C3013B10120FFF76FFF044A67
:10264000136823F44053136010BD00BFD487FF1FED
:102650003C8004402DE9F041DFF8A080602545432F
:1026600008EB05070646BC7AFF2C40D02046FEF753
:10267000C7FB70B358F805301D882046FEF7D2FB23
:10268000103DADB201352D1A2046FEF7C5FBFF7A8D
:10269000FF2F08D03846FEF79FFB3846FEF7BCFBFD
:1026A0003846FEF71BFC134B1A6842F001021A6011
:1026B00000221A63104ADA620721AAB23046FFF7F5
:1026C00012FD2046FEF788FB2046BDE8F041FEF7EC
:1026D00005BC2046FEF786FB0028F5D0054A136BA3
:1026E00023F0407313632046FEF785FBE9E7BDE85E
:1026F000F08100BF00C0024000000A9AD487FF1F8B
:102700000120FFF7A7BF0020FFF7A4BF2DE9F84382
:10271000234A6023434302EB0309074699F80B4021
:10272000FF2C3BD0D35820461D88FEF77BFB80460C
:102730002046FEF765FB0646204686B1FEF76CFB99
:1027400099F80A60FF2E08D03046FEF745FB304668
:10275000FEF7C4FB3046FEF75FFB072605E0FEF7F9
:1027600041FBD8B12046FEF746FB0E4B1A6842F0FB
:1027700001021A6000221A630B4ADA622046FEF751
:102780002BFB2046FEF7AAFBA5F11002A2EB0802E4
:102790003146384692B2BDE8F843A4E4BDE8F88378
:1027A000D487FF1F00C0024000000A9A0120FFF7F3
:1027B000ADBF0020FFF7AABF0020D3E40120D1E481
:1027C00070B50D4A0D4D147844F0020605EBC603B2
:1027D00084F00104586050781470002814BF40231E
:1027E000002343EA014180F0010041F0880150706C
:1027F00045F8361070BD00BF9488FF1F0080FF1F92
:10280000F0B5194BDFF864C09A881C7B5E889F681E
:10281000B11A44F0060E89B20CEBCE00402907EB4A
:10282000020528BF402145605D7B0A4492B2002D1D
:1028300014BF4020002096429A8098BF03EB840288
:1028400040EA01409EBF176100229A6084F00102B5
:102850001A731A7E85F00101013240F08800597325
:102860001A764CF83E00F0BD9488FF1F0080FF1FD1
:10287000084B5A7E997E91420AD00132D2B2272A61
:1028800088BF00225A765A7E03EB8203D8697047CC
:10289000002070479488FF1F10B4114A92F8BC3092
:1028A000022B01460FD1137E012B11D9937E547E4A
:1028B0000133DBB2282B28BF00239C4205D002EB5A
:1028C00083009376C16110BC704710BCFFF7D8B984
:1028D0000388538010BC90600023938090E700BF72
:1028E0009488FF1F08B5FFF7C3FF10B1FFF7C8F9C1
:1028F000F9E708BDF8B52C4C2C4E04F1C00272600B
:102900002B4A326004F58072F2602A4AB2602A4A89
:1029100000250D2135612570B56165707561F56122
:1029200011700746206935622573B562657335639A
:102930007562F5627563F563B56310B1FFF7A0F9D1
:102940002561606918B1FFF79BF900236361A068F6
:1029500018B1FFF795F90023A36000252576FFF74E
:10296000C1FF012F154B0CBF05222A461A70144BCC
:10297000736403F14003F3640E4B0D4A3264B36495
:1029800003F17F5303F5E4230CBF09222A46356582
:1029900084F8405184F841517565F565B5651A7044
:1029A000084B01221A70F8BD9488FF1F0080FF1F9A
:1029B00088004000C8004000C0200740C4200740F5
:1029C000D889FF1F908AFF1F8008894B53F8302059
:1029D000C2F38302092A2DE9F04100F0DB800D2AC1
:1029E00006D0012A40F08480824A43F830207FE0FC
:1029F00003EBC002804C51680A68C4F8E8214A68B9
:102A0000C4F8EC217B4A43F830200025B4F8E821D3
:102A10001D619D6140F2816301269A42667010D863
:102A2000B2F5D06F29D2822A78D005D8802A6FD209
:102A3000724B0F221A7058E0B2F5A06FF8D12B46F6
:102A40002BE0B2F5106F00F088800AD8B2F5086F5D
:102A5000EED194F8F03184F8C431334604F5E275D0
:102A60001BE0A2F50B52012AE2D8B4F8EC31042B9A
:102A700040F08980624D2B780FE0B4F8EA21B4F879
:102A8000EC1140F203339A4234D140F209439942A7
:102A900030D194F8CC3104F5E675B4F8EE719F426C
:102AA00028BF1F46402F3E4628BF402631462846B5
:102AB0003544BE1BB6B2FFF783FE0EB93F2F14D9C3
:102AC000402E374628BF40273946F71B2846BFB25D
:102AD000FFF776FE0FB93F2E07D9402E94BFAD19F0
:102AE0004035C4F8F451A4F8F871464B01221A702D
:102AF000BDE8F081444B5D68002D99D01888904264
:102B000004D15888884201D11B7AC6E70C33F2E71A
:102B100084F8C451022384F8C5519FE794F8BC207F
:102B200094F8EC31022A03F07F0312D0002B7FF4DB
:102B30007FAF002284F8C42184F8C5212F4A12F8FF
:102B400023309B0702D5012384F8C43102232F4D83
:102B5000A3E7032B3FF66CAFEBE7B4F8EA31012BA8
:102B60003FF666AF002BD8B20CBF0123022384F8D6
:102B7000F00184F8BC30FFF7BDFE6670C4F8F45174
:102B8000A4F8F8515BE7052B7FF459AF1C4D15F8FD
:102B9000283F82E7184BD3F8F4419846ACB1B3F81C
:102BA000F861402E374628BF4027BDB22946751B25
:102BB0002046ADB2FFF704FE3C44A8F8F85115B921
:102BC0003F2E98BF0024C8F8F441B8F8E831B3F5B7
:102BD000A06F8DD10E4B98F8EA211A70B8F8EA313F
:102BE0000BB988F8BC300023A8F8E83180E700BFB3
:102BF0000080FF1FC80040009488FF1FC0200740CE
:102C00002484FF1F94200740A0370000588AFF1F2C
:102C100098200740094B93F8BC20022A0CD193F866
:102C2000403143F00802064B53F83210090603D432
:102C300003EBC20358687047002070479488FF1F59
:102C40000080FF1F0A4B93F8BC20022A0DD193F895
:102C50004031084A43F0080352F83310090604D4FF
:102C600052F83300C0F3094070474FF0FF3070470F
:102C70009488FF1F0080FF1F30B50C4B0C4A93F85F
:102C800041110C480C4C002908BF104693F8402114
:102C900081F0010142F0080582F0010283F8411140
:102CA00083F8402144F8350030BD00BF9488FF1FF1
:102CB00088004000C80040000080FF1F2349032314
:102CC00010B5002281F8CD31845C531CDBB2002C9E
:102CD00035D11F4A5B0081F8CC31136843F480235F
:102CE00013601C4B80221A701A781206FCD41A4A00
:102CF0001A49C2F307200870C2F30740120E087584
:102D00000A76FF2201F81C2C01F8142C01F88C2CF7
:102D10001A7842F040021A70114A01230021137000
:102D200082F86C1002F8103C0E4A4FF400731360E6
:102D3000A2F5C07213600C4B10221A7010BD01EB8B
:102D40004202A2F8CE411A46BEE700BF9488FF1F98
:102D5000348004400C2107400080FF1F9C20074066
:102D60009420074088E200E0082107402DE9F04761
:102D70003D4E3E4F35463378DBB25C0744BF0422FC
:102D8000327013F0080842D03878C0B2030904D179
:102D9000FFF71AFE08232B70EDE7012B30D18408D2
:102DA000334850F83430C3F38303092B8146F1D103
:102DB000DFF8D08004F0010A08EB8A0ADAF8100084
:102DC00020B1FEF75DFF0023CAF8103009EBC40004
:102DD0000023436098F81830D8F80840013B88F881
:102DE000183054B9FFF744FD0028D3D00388C8F841
:102DF0000800A8F80230A8F80440FFF701FDC9E771
:102E0000022B02BF80081A4B53F83030C2E7D807B4
:102E100015D5184C237843F0020323704046FFF782
:102E200069FD154AFF2313702B7082F8108013710F
:102E3000124B9F221A7001232370BDE8F0871906F8
:102E400004D50F4A0D21117080222A709A0705D5EA
:102E500009490A78D2B20A7002222A70DB0644BFFE
:102E600010232B70E9E700BF802007409020074027
:102E70000080FF1F942007408820074084200740DF
:102E8000C02007409488FF1F70B501390024022537
:102E9000A14201DC88B270BD0B1993FBF5F300EB86
:102EA00083067688964234BF5C1C1946F0E730B53D
:102EB000084C023002B930BD013A92B28B5C1D0958
:102EC00003F00F03655DE35C00F8025C00F8013C71
:102ED000EFE700BF0038000008B5FDF741FDFDF742
:102EE000F7FEFDF76FFCFFF71DF8FEF76DFCFFF72F
:102EF00099FBBDE80840FFF7F5BC2DE9F843814692
:102F00001020884617461E46089DFEF78DFE70B1BC
:102F10001023038002238370A0F80890A0F8048097
:102F2000C7804681C560BDE8F843FFF7B5BCBDE882
:102F3000F8832DE9F74FBDF83C60019306F11005C9
:102F4000ADB28246904628460D9ABDF83090009268
:102F50008B460E9FFEF768FE0446D0B10421019B0C
:102F6000009A05808170A0F804A080F808B0437230
:102F7000A0F80A90C260A0F8068026B13246394611
:102F8000103000F02BFA204603B0BDE8F04FFFF7F9
:102F900083BC03B0BDE8F08F1FB50024CDE900432A
:102FA000CDE902442346FFF7C4FF04B010BD37B596
:102FB0000B7804461BB100230B7003B030BD0368CF
:102FC0001888FEF731FE2168054620B10A8800F016
:102FD00005FA2560F1E78B788888CA88012B06D12D
:102FE000014600952B460220FFF787FFF1E70223F9
:102FF0000521FFF7D1FFECE730B5837885B0012BD1
:1030000004468DF80B1040F0C1800388142B69D161
:10301000037A012B5BD1437A012B1FD1018A037BF9
:10302000807A01F0FE0201F00101FDF763FD238AC1
:1030300040F48075DB07ADB222D4FDF703FE83B206
:103040000020E28800902946FFF757FF9DF80B30DB
:1030500013B12046FEF714FE05B030BD022B11D18E
:103060008289018A807AFDF749FAFF2805D101207B
:103070000023E288A1880093E6E740F4007085B25F
:103080000023DDE7032B09D1B0F90C10807AFEF79D
:1030900003FFFF28EBD040F44070F0E7042B09D188
:1030A000C268018A807AFEF752FAFF28DFD040F426
:1030B0008060E4E7052BDAD1C368028A418A40893F
:1030C000FFF79DF8FF28D2D040F40060D7E7022B2D
:1030D00026D1808800F47F43B3F5807F04D1C0B24D
:1030E000FDF7C4FC0020C3E7B3F5007F03D1C0B2F5
:1030F000FDF742FAF6E7B3F5407F03D1C0B2FEF721
:10310000F3FEEFE7B3F5806F03D1C0B2FEF7D4FA58
:10311000E8E7B3F5006FAAD1C0B2FFF7FFF9E1E726
:10312000032B02D1FFF7D8FEDCE7042B10D1437A42
:10313000012B05D1028AC168807AFEF76BFED1E7C8
:10314000022B94D1028A017B807AFEF7D7FDC9E772
:10315000052B8CD1437A012B03D1FEF7B5FD002559
:103160000CE0022B02D1FEF7BBFDF8E7032B0BD0DE
:10317000042B0BBF50200020002501250090E28881
:10318000A188002328465FE70220E8E7032B7FF4AD
:103190005DAF038803900F2B7FF658AF027A8588C6
:1031A000012A05F47F4321D1B3F5807F15D14389EE
:1031B00023B9017BE8B2FDF783FC47E703F47F43C3
:1031C000B3F5006F7FF442AF03A80DF10B01FFF7D9
:1031D000EEFE0398FFF78CF938E7B3F5407F7FF4F4
:1031E00035AFC168E8B2FEF7A1FD2FE7022A15D17D
:1031F000B3F5807F0AD1E8B2FDF724FD039D0346B5
:10320000EA88A8880121FFF7C7FE1FE7B3F5007F12
:103210007FF41CAFE8B2FDF7E7F917E7032A18D1EE
:10322000B3F5806F08D103A80DF10B01FFF7BFFEC6
:103230000398FEF7D2FA09E7B3F5006F7FF406AF03
:1032400003A80DF10B01FFF7B2FE0398FFF73AF95F
:10325000FCE6042A06D1B3F5806F7FF4F7AEFEF7E3
:10326000D1FAF3E6052A04D1B3F5806F7FF4EEAE10
:10327000D9E7062A7FF4EAAEB3F5806F7FF4E6AEB5
:1032800003A80DF10B01FFF792FE0398FEF7F6FB82
:10329000DCE62DE9F84F3A4C23782BB1002323705C
:1032A00072B6FFF719FE62B6FFF7CCFC051E4FDDC4
:1032B00072B6FFF7AFFC63880646002B39D0012BAE
:1032C0000BD10378A08800EB032080B2A080FEF72A
:1032D000ABFCA06008B1A38803806788B4F80490B1
:1032E000D4F808A01FFA85FB3D444D45C6BFA9EBA5
:1032F00007081FFA88F8D846BAF1000F05D04246F1
:1033000031460AEB070000F069F84744BFB2ABEB67
:103310000805B94546442DB267800AD1BAF1000FBD
:1033200003D001215046FFF767FE00236380A3808E
:10333000A360012D04DC08D133786580A38004E00C
:103340003788BD420EDB072F04D8FFF795FC62B625
:10335000BDE8F88F30460021ED1BFFF74DFE3E44DF
:103360002DB2E6E73846A780FEF75EFC6580A060D8
:103370000028EAD02A46314600F030F8E5E700BFE1
:10338000908AFF1FFDF74CBA014B1868704700BFC9
:103390006085FF1F70B50D4E0D4CA41BA4100025B9
:1033A000A54209D10B4E0C4C00F032FAA41BA4101C
:1033B0000025A54205D170BD56F825309847013546
:1033C000EEE756F8253098470135F2E71C38000043
:1033D0001C3800001C3800002038000010B5431EC7
:1033E0000A44914200D110BD11F8014B03F8014F7E
:1033F000F7E702440346934200D1704703F8011BEC
:10340000F9E7FFFF024B0146186800F003B800BF60
:103410006085FF1F38B5064C00230546084623602B
:10342000FEF769FB431C02D1236803B12B6038BD52
:103430009C8AFF1F81890360683B23131B1A223279
:103440003A2A0B02010919112B330A1228990C4A46
:1034500042525A049120FFFF00600640007006406F
:103460004840900048C4900091D49200000015009C
:10347000010017000200190003001B0008001D00D6
:1034800005001F0009002100060023000A00260095
:1034900007002A000C002E000D0032004300360009
:1034A0000E003A0045003E00120042000F004600A8
:1034B00013004C001400540015005C001900640057
:1034C00016006C001A00740085007C001700840050
:1034D0004F008C001C0098001D00A8005500B8008B
:1034E0001E00C8005600D8002200E8001F00F800A7
:1034F000230008018F00180124003001250050012D
:1035000095007001260090019600B0012A00D001BC
:103510002700F0012B001F022C005F022D00BD02CE
:103520002E003E0332009F032F00DF0333003E04D2
:103530003400BE0435007A0536007B063A003F07AA
:103540003700BF073B007C083C007D093D00F40AC2
:103550003E00F60C7A007E0E3F007E0F7B00F810D6
:103560007C00F9127D00E9157E00EC19BA00FC1C04
:103570007F00FC1EBB00F121BC00F325BD00D12B58
:10358000BE00AA35BF00000000F00F4040F00F4021
:1035900080F00F40C0F00F4000F10F400090044059
:1035A00000A0044000B0044000C0044000D004402B
:1035B000008003400090034000800B4000900B40CF
:1035C0008D8A0000CE8200008B8C0000C784000032
:1035D0008C8E0000C88600004000020050000300EE
:1035E00000000400600005001000060070000700E5
:1035F000010008005200090020000B0011000D001E
:1036000030000E0062000F000300110012001300D2
:10361000210014007200160013001A0031001D0072
:1036200022001F00040024002300290032002D0086
:103630001400340033003C0005004800240058000A
:10364000150068003400780006008F002500AF00E8
:103650001600CF003500EF0007001E0126005F01B5
:1036600017009F013600DF0108003C022700BD0261
:1036700018003E033700BE030900790428007A05CC
:1036800019007B0638007C070A00F2082900F40ABA
:103690001A00F60C3900F70E0B00E3112A00E915A9
:1036A0001B00EC193A00EF1D0C00C7232B00D12B97
:1036B0001C00D9333B00DE3B0D008E472C00A35786
:1036C0001D00B1673C00BC770E0000000203050737
:1036D000000004000100080010000C0002001000AF
:1036E000200014001100180030001C00030020000E
:1036F0002100280012003000310038000400400092
:1037000022005000130060003200700005008000AD
:103710002300A0001400C0003300E00006000001F8
:1037200024004001150080013400C00107000002A0
:103730002500800216000003350080030800000405
:1037400026000005170000063600000709000008E3
:103750002700000A1800000C3700000E0A000010B5
:1037600028000014190000183800001C0B0000206D
:10377000290000281A000030390000380C00D0471A
:103780002A0000501B0000603A0000700D0000800D
:103790002B0000A01C0070D73B0000E00E000000D2
:1037A000000100004E85FF1F120000000002000013
:1037B0002E85FF1F20000000010200002E85FF1F44
:1037C00020000000000300002A85FF1F0400000005
:1037D00001030904FE84FF1F2C00000002030904FA
:1037E000EC84FF1F12000000EE030000DA84FF1FCC
:1037F00012000000000000000000000000000000B7
:103800003031323334353637383961626364656656
:10381000F8B500BFF8BC08BC9E46704735040000F0
:04382000F8B500BF38
:103824002C007000400048006800600034003C0038
:10383400780024000000980018009900B8002900BE
:103844002D00250035003D002100B000D000F0001F
:10385400D800FE00A08AFF1F600B0300682B040041
:103864003BE40500238406001A44090022640A008C
:103874002BA4140033C415000A04160012241700E4
:10388400993319009113200028000000000104005E
:103894000100000000000000000157494E5553424A
:1038A4000000000000000000000000000000000014
:1038B4008E000000000105000100840000000100EA
:1038C400000028004400650076006900630065007C
:1038D40049006E00740065007200660061006300B8
:1038E4006500470055004900440000004E000000F8
:1038F4007B00640030003100300062006100390058
:1039040030002D0030003200350061002D003400FD
:103914006300390034002D0062003200640062004C
:103924002D006100310033006600320030003500A4
:10393400640034003300370065007D00000012038A
:103944004D00530046005400310030003000220086
:10395400120357006900720065006B00690074006F
:1039640065002C034D0061006E00750065006C005D
:10397400200042006C006500690063006800650077
:103984006E00620061006300680065007200040359
:1039940009040902200001010080FA090400000260
:1039A400FF000000070581024000000705020240F5
:1039B400000012010002FF00004009127E31500095
:1039C400010203016485FF1F0000000000000000E5
:1039D40000000000000000000000000000000000E3
:1039E40000000000000000000000000000000000D3
:1039F40000000000000000000000000000000000C3
:103A040000000000000000000000000000000000B2
:103A140000000000000000000000000000000000A2
:083A240000000000000000009A
:00000001FF
