:1000000000180020C100000019110000DD100000E0
:10001000DD100000DD100000DD100000DD1000002C
:10002000DD100000DD100000DD10000019110000DF
:1000300019110000DD100000191100003F2300001D
:100040001911000019110000191100001911000008
:1000500019110000191100001911000019110000F8
:10006000490F0000530F0000191100001911000082
:10007000951700001911000019110000132300004A
:1000800019110000191100001911000019110000C8
:1000900019110000191100001911000019110000B8
:1000A000FD1D0000191100001911000019110000B8
:1000B00019110000191100000B230000E5220000B7
:1000C000F8B501F02CF8454A454B1A60454A464BB5
:1000D0001A60464A464B1A600823464A117819426C
:1000E00002D011780B4313702A22434B43481A70F5
:1000F00000234349434C1A188A4268D30021424BDB
:10010000424A934267D30023414C424A99581951BD
:100110000433C02BFAD1403B00220327FF269C4624
:1001200093083D4910009B005B1831003840C00027
:1001300081401D6801328D43290065468540294371
:100140001960202AECD1354B6A321C60344B1A708E
:10015000344B663A5A707C321A709E3A9979114241
:10016000FCD0102299791142FCD10C219A790A40D5
:10017000082AFBD1053A1A713D325A71203A997911
:100180001142FCD0402299791142FCD02649274ADD
:10019000116020220C211A709A790A400C2AFBD196
:1001A000234A244B1A60244A244B1A600022244B11
:1001B0001A60244B07321A60234A244B1A6062B635
:1001C00002F094FA00F0B2FF01F00EF8FEE7E558F5
:1001D000043315608FE702C393E7C046300004F094
:1001E00034800440823F0000388004400100000F4A
:1001F0003C80044002D0074000E00740C0F9FF1FE8
:100200007CFBFF1F842900007CFBFF1FD000002027
:1002100000F9FF1F0000000000E400E008ED00E02E
:100220000050064000400640000001104480044099
:10023000C0000505048004407FBB000014E000E01E
:1002400018E000E010E000E00000202020ED00E0D9
:10025000FFFFFFFFFFFFFFFFFFFFFFFFFFFFFFFFAE
:10026000FFFFFFFFFFFFFFFFFFFFFFFFFFFFFFFF9E
:10027000FFFFFFFFFFFFFFFFFFFFFFFFFFFFFFFF8E
:10028000FFFFFFFFFFFFFFFFFFFFFFFFFFFFFFFF7E
:10029000FFFFFFFFFFFFFFFFFFFFFFFFFFFFFFFF6E
:1002A000FFFFFFFFFFFFFFFFFFFFFFFFFFFFFFFF5E
:1002B000FFFFFFFFFFFFFFFFFFFFFFFFFFFFFFFF4E
:1002C000FFFFFFFFFFFFFFFFFFFFFFFFFFFFFFFF3E
:1002D000FFFFFFFFFFFFFFFFFFFFFFFFFFFFFFFF2E
:1002E000FFFFFFFFFFFFFFFFFFFFFFFFFFFFFFFF1E
:1002F000FFFFFFFFFFFFFFFFFFFFFFFFFFFFFFFF0E
:10030000FFFFFFFFFFFFFFFFFFFFFFFFFFFFFFFFFD
:10031000FFFFFFFFFFFFFFFFFFFFFFFFFFFFFFFFED
:10032000FFFFFFFFFFFFFFFFFFFFFFFFFFFFFFFFDD
:10033000FFFFFFFFFFFFFFFFFFFFFFFFFFFFFFFFCD
:10034000FFFFFFFFFFFFFFFFFFFFFFFFFFFFFFFFBD
:10035000FFFFFFFFFFFFFFFFFFFFFFFFFFFFFFFFAD
:10036000FFFFFFFFFFFFFFFFFFFFFFFFFFFFFFFF9D
:10037000FFFFFFFFFFFFFFFFFFFFFFFFFFFFFFFF8D
:10038000FFFFFFFFFFFFFFFFFFFFFFFFFFFFFFFF7D
:10039000FFFFFFFFFFFFFFFFFFFFFFFFFFFFFFFF6D
:1003A000FFFFFFFFFFFFFFFFFFFFFFFFFFFFFFFF5D
:1003B000FFFFFFFFFFFFFFFFFFFFFFFFFFFFFFFF4D
:1003C000FFFFFFFFFFFFFFFFFFFFFFFFFFFFFFFF3D
:1003D000FFFFFFFFFFFFFFFFFFFFFFFFFFFFFFFF2D
:1003E000FFFFFFFFFFFFFFFFFFFFFFFFFFFFFFFF1D
:1003F000FFFFFFFFFFFFFFFFFFFFFFFFFFFFFFFF0D
:10040000FFFFFFFFFFFFFFFFFFFFFFFFDEF9FFFF23
:1004100010B5064C2378002B07D1054B002B02D0DA
:10042000044800E000BF0123237010BD7CFBFF1FC8
:100430000000000084290000084B10B5002B03D0F9
:100440000749084800E000BF07480368002B00D1B7
:1004500010BD064B002BFBD09847F9E700000000C9
:1004600080FBFF1F842900007CFBFF1F00000000B1
:10047000094B0A4A1B5C1021580609D51068014334
:1004800011601F22134021321343054A1360704745
:10049000106888431060F4E7902700000CB0034018
:1004A00000B0034038220D4B80211A600C4B353AC6
:1004B0001A600C4B023A1A600B4B03321A6080220E
:1004C0000A4B09020A481960036812061B021B0A3C
:1004D00013430360074B19607047C04608B00340E0
:1004E0000CB0034020B0034024B0034080E200E0A1
:1004F0000CE400E000E100E043B230B5002B01DA8B
:100500007338C0B200231449CB56002B0DD1134BC6
:100510001C78FE2C09D1023C1C70114B9D3C1C60C8
:100520008023104C25682B432360102804D101231D
:100530000D4C25782B432370002A0CD072B60C2565
:100540004C780B1D65435B191A60002201345A6018
:1005500018724C7062B630BD98FBFF1FC0F9FF1FC8
:1005600000B0034024B0034002D00740F7B500902C
:1005700072B60C2300279C46144E0C36134B5A7847
:10058000974209DB62B6009B102B04D10121104A6F
:1005900013788B431370F7BD337800998B420DD1DC
:1005A0006146330051430B4C0C396118083B0191F3
:1005B00001998B4205D1054B013A5A7001370C362F
:1005C000DCE71C000C3423CC23C3F1E798FBFF1FAE
:1005D00002D007409CFBFF1F10B572B60E4B1A7875
:1005E000FE2A04D1187062B6FFF742FF10BD0B4A15
:1005F000130064331B780133DBB2072B00D90023CF
:10060000110065310978994204D0110064326631D5
:10061000C854137062B6E9E7C0F9FF1F98FBFF1FCB
:10062000F8B52D4904000E782C4AFC2E4AD12C48EE
:100630002C4B1B6807682C48DB1906682B489B1954
:1006400005682B485B1900682A4D1B189BB22A4885
:100650005B0803439BB22B60284B294D1B682D6818
:10066000AC46284D63442F68274DDB192E68274D73
:100670009B192D68FD265B199BB25B080343244838
:100680009BB2036001230025137072B6100017009F
:100690006530643703783F789F4219D00133DBB26D
:1006A000072B13D803701000653213786630C05CD6
:1006B000087062B6FFF7DCFE6B016D091D43300068
:1006C0002580F8BD134B1D68ADB2DEE70023E9E7D6
:1006D000FE230B7062B6EFE7C0F9FF1F98FBFF1F08
:1006E00048B003404CB0034044B003403CB003402A
:1006F00038B003402CB003400080FFFF6CB00340D3
:1007000068B0034064B003405CB0034058B003409D
:1007100030B0034010B0034010B572B6FE200A4A54
:100720000A4900230870110064310B701100653113
:100730000B701F2113705370054A1160054A136036
:10074000FFF7B0FE62B610BD98FBFF1FC0F9FF1F98
:1007500000B0034024B0034070B572B600250B4EC4
:10076000341D73789D4201DB62B670BD63682268F8
:100770000133934292411340636004D162B6207A00
:10078000FFF72AFF72B601350C34EAE798FBFF1F2A
:10079000F7B504000091FF201A2C7AD8002600201B
:1007A0003C4B9E575F1CB0423DDB01D1451C1D7088
:1007B000002810D18025384B384EED051D6035607E
:1007C000802580212D06364F1D603B8809040B4390
:1007D0002B433B603560334B47009C461B5D5C07F9
:1007E000610F01912B49DB084D1C0199DC000C4382
:1007F0007C5501240221ED196E7826438E43019920
:100800006E708E0061468D190099ED699C4000293B
:1008100011D16969A1436961510718D4892411076D
:1008200013D4882411E045007D196D78E907BFD500
:100830000130C0B2B7E769690C4300996C610129C6
:10084000EAD1A224110700D48224640001E0142418
:10085000FF34144D9B00AE19356B0099EB181C60EA
:10086000002916D13024224213D00A494C1CE71922
:1008700002247D7800992C437C70D40601D5902108
:100880000903920602D5A022120311431A681143EC
:100890001960FEBD06FCFF1F80E200E000E100E001
:1008A0001CE400E0A427000010B50D4B400001330C
:1008B000C25C18180123447851079C434470C80E49
:1008C0000849D20809180C6B900020188024934026
:1008D000CA6964040460936051699943516110BD11
:1008E00006FCFF1FA4270000094B40000133C35C36
:1008F000084AD8085B07DB0ED318DB691A000832F8
:10090000002900D01A1D0123834013607047C046A0
:1009100006FCFF1FA4270000084B40000133C35C06
:10092000074A5907C90E5218D269DB08106901221B
:100930009A401040431E9841C0B2704706FCFF1F0A
:10094000A427000070B58021002400200F4A104D1C
:10095000145749040132A04201DBFF2013E0430099
:10096000D6187678B6070FD59B5C5E07F60EAE19E3
:10097000366BDB089B00F3181E680E4204D01A6821
:10098000C0B21143196070BD0130E4E706FCFF1FDF
:10099000A427000010B5002400220D4B9A56944263
:1009A0000CDB00221A7080220A490B4BD2050A6028
:1009B0001A60802212060A601A6010BD62009B183D
:1009C0009B78DB0702D5E0B2FFF76EFF0134E3E767
:1009D00006FCFF1F80E100E080E200E00E4B820099
:1009E000D258202310B5947819001C4204D09433B7
:1009F00093700023180010BDD3780B40FCD1B024B5
:100A0000947092780A42F5D104223C335843034B48
:100A1000C2540123EEE7C046E827000040FCFF1F58
:100A2000F0B5103295B285B0070028000E0000F036
:100A300011FC041E0CD1039002900190009005233C
:100A400032000321380001F07DFA200005B0F0BD2E
:100A500004238370013B0580878046818371F4E71E
:100A60007047FF23F7B594460093022800D983E02E
:100A70003C21514E8300F218147A504A6407640FE7
:100A800061438D5C002D77D101358D5452183B3276
:100A900000941070002C00D070E040224849086893
:100AA00002430A60A200B55820226A710022F3189E
:100AB0002A70EA711A7A597A9206520F9200180037
:100AC000B218C9065269090F89005118E02208308E
:100AD0008078D200C7011740642217430F6019893C
:100AE0009B68C905490F89007618DB0371691B0FE4
:100AF0009B00CB18E0210001C9000840104318609A
:100B0000002C42D02F4E634658088019614601F0F0
:100B100071FC83B20193372700239F4237DC372BC8
:100B200045D0002B0FD0244A5F1EB90051189A00FF
:100B30009446214A498D6244528D80B2411A101A5E
:100B4000814200DA3B001C4A9B0028329B5C042057
:100B50006B701C4B9E4203D01B49300001F04AFCD5
:100B60008023C0B2A871AB706E3BEB70002C20D01C
:100B7000EF33FF33154A13600098FEBD012C00D0FF
:100B800090E70F49802208688AE7114EBBE7F91801
:100B900049108A009446084A94446246528D94460D
:100BA000019A624501D94B1CB7E70F00B5E7362320
:100BB000C9E780235B00DDE7E827000040FCFF1F5A
:100BC00034800440006CDC02001BB70000E100E050
:100BD00000366E0170473C234343104A30B5D318AA
:100BE0001C00383339341D78217800238D420FD012
:100BF0000131C9B20B290DD821703C234343D318CE
:100C0000393319780F2358434018023080001358A5
:100C1000180030BD00232370EFE7C04640FCFF1FE3
:100C200010B572B6FFF7D7FF040062B6002807D0F0
:100C30008379042B05D100F09BF8200000F03EFBE7
:100C400010BD00F027F8FBE7F0B53C244443104EFC
:100C500089B0371905007868069107928388049354
:100C60004389059300F02AFB002301227B60A255F3
:100C7000039302930193079B059A00930221069B1D
:100C8000049801F05FF92800FFF7CAFF09B0F0BD32
:100C900040FCFF1F70B50679144BB200D4585023A6
:100CA000A279050013432022A371A3793000934356
:100CB000A3711223E370FFF791FE002805D00022F4
:100CC00001213000FFF7C0FF70BD3C2202217243BA
:100CD000074BD1549B1858705D605880F023A37067
:100CE0002B895B00DBB22371EEE7C046E8270000EA
:100CF00040FCFF1FF8B53C244443094F06003D1952
:100D00006B8868681033C1710281038000F078FF3E
:100D100000236B600133E3553000FFF781FFF8BD1E
:100D200040FCFF1F3C2270B50D000321002642430A
:100D30000D4B0400D1549B185E705E80FFF74EFE91
:100D4000B04205D0320001212000FFF7D3FF70BD73
:100D50000121F022054BA4006D00E3582943C9B2DC
:100D60009A701971F3E7C04640FCFF1FE8270000A6
:100D700070B504008088A2896189C5B2FFF750FE72
:100D80003C226A430B4B9B185860002810D00A4B3A
:100D9000AA00D3585022997928000A4320219A7139
:100DA0009A798A439A711222DA702189FFF7BAFF81
:100DB00070BDC04640FCFF1FE8270000F7B5820069
:100DC00005003C205E4B6843D3585E4ADE78815C68
:100DD0001418F6B26778022958D1102294461642A8
:100DE00013D00424574A845462468020DA709870E5
:100DF0000220D870FF2942D03C236B43514A28007F
:100E0000D2185288FFF720FF39E00122164009D09E
:100E100004214C4A81547C31997039004F1EB941EC
:100E20000331E5E76068002F04D16270017C19711D
:100E3000FF21DDE7628807889446103FBFB27A1E23
:100E400094451DD167808779032F03D18021997044
:100E50003100CDE7D970438987880093038986895B
:100E6000019300F02BFA320000993800FFF7D8FD0B
:100E70006060002803D001992800FFF753FFF7BDF9
:100E80006146013189B261804018CFE7032954D10E
:100E9000626811889446103989B2002F2BD1102234
:100EA0009446164215D00421264A023781546246E0
:100EB000DA7080229A700222DA70FF2FDFD03A3285
:100EC0006A43204B39009B185A882800FFF712FF0D
:100ED000D5E70122164205D004211A4A8154802206
:100EE0009A70E8E76270E022012900D808329A700F
:100EF0001A79FF27DFE76488881E844201D1E82041
:100F00009870624601393C20661C17198C420DD13D
:100F1000B02168430B4A9970121856801A793A74B6
:100F20001427C046013F002FFBD1D8E76843054A8C
:100F3000121856801A793A74DBE70222DA709EE7BB
:100F4000E827000040FCFF1F10B50020FFF736FF28
:100F500010BD10B50120FFF731FF10BD3C231A0072
:100F6000424370B50D4C0500A21838321278013298
:100F7000D2B20B2A00D900226B43E3181800393093
:100F800006780020964208D00F306843801802305F
:100F900080002150012038331A7070BD40FCFF1FC3
:100FA0003C2310B504000079094A43439B5C012BA4
:100FB0000AD072B62100FFF7D1FF62B6002802D135
:100FC000200000F07BF910BD2000FFF763FEFAE778
:100FD00040FCFF1F3C2370B506790F4A73439B5CAE
:100FE0000400012B14D0008800F034F9051E0ED047
:100FF0002288210001F09EFB72B629003000FFF725
:10100000ADFF62B6002802D1280000F057F970BD8C
:10101000FFF7AEFEFBE7C04640FCFF1F10B5040023
:101020002000FFF7D8FD002802D000F047F9F7E7CD
:1010300010BD70B5012829D83C224243144BD15C25
:10104000002923D072B60021D1549B183B331A7863
:10105000104C9200A218137A557A9B065B0F9B00E6
:10106000E318ED065B692D0FAD005D19138929604A
:10107000DB055B0F9B00E41893686269DB031B0FC1
:101080009B00D3181960FFF7C9FF62B670BDC04658
:1010900040FCFF1FE827000010B50A4C2378002B06
:1010A00002D00020FFF7C5FF3C342378002B02D08C
:1010B0000120FFF7BEFFC021034A13688B43136072
:1010C00010BDC04640FCFF1F34800440024A136834
:1010D000013313607047C046DCFCFF1F70B58025EC
:1010E0008026ED02F6000B4C23682B4201D000F065
:1010F00085FE2368334201D000F04CFB23681B05BA
:1011000001D500F009F82368DB04ECD500F004F801
:10111000E9E7C0463480044010B5FFF7DFFF002246
:10112000014B1A607047C0460081044070470A496D
:10113000030010B50868002B0BD06A46074CC31893
:101140001219934206D301F0CBFA0C23036001205D
:10115000404210BD0B60FCE7C4F9FF1F00FEFFFF1B
:101160000020704701204042704780239B010020EF
:101170004B60704701207047012040427047FEE7F6
:10118000FEE70078434258417047012303707047DF
:10119000EFF31380002821D1EFF31083002B19D136
:1011A000EFF30582002A16D00F2A0BD91300103B4B
:1011B0000C499B089B005B1803210A408A401B686E
:1011C000D340DBB2EFF31182002A02D0934200D960
:1011D00013001800704780235B00F3E701204042B2
:1011E000F8E7C04600E400E010B5134886B001F00F
:1011F000B3FA114900F026F8FFF754F900F00CF9A2
:10120000FFF72EFC0D4B02221B6801AC00936B46CE
:101210002000991800F082FE094B02A81B680422E6
:101220006946009300F07AFE00232000237300F04B
:101230006FFD00F0D9FFFCE7B80B00005C800440B4
:101240006080044000234360014B01605860704798
:10125000B8FCFF1F70B572B6032301210025C21C24
:101260009A43154B141D58684942002803D14B1C62
:101270000BD162B670BD0668B44203D8B14201D941
:101280001D00310003004068EFE7100010306B686C
:1012900081420AD218005968696062B6041D0021B3
:1012A000200001F050FA2000E4E71968091B5818E3
:1012B00019600460F1E7C046B8FCFF1F10B572B6B4
:1012C000043802680D4B5968002901D0884211D8B2
:1012D00084188C4203D10C6849681219026041607D
:1012E00019685C18A04207D152181A6042685A6007
:1012F00062B610BD0B00E6E75860F9E7B8FCFF1FC7
:1013000010B5022803D8002802D1052902D910BD42
:101310000129FCD82424930700D40434044B800012
:10132000C358C9000C31591800230B600C60EEE75C
:10133000EC280000F8B509281AD8460000200D4B0B
:101340000D4F9B195C78E506AD0F6409814206D00C
:101350006B00F85A01304843084901F04BF8084B3C
:10136000AD000234EB58E40006371C19B853206076
:10137000F8BDC046C8F9FF1FC0FCFF1FFF7F00007B
:10138000EC2800001D4B70B504004808C01816007A
:1013900001F030F8802200235202904228D8002821
:1013A00000D101300138164D620080B2505307223F
:1013B0001340F20720D4082200261343114AA1004B
:1013C0008A581660566090601360AB1D7200D15E43
:1013D0004B1C09D00C4B9B185B78DB069B0F9C4287
:1013E00002D1F0B2FFF7A6FF01360A2EEDD170BD93
:1013F0000133DBB24008D0E72822DDE7006CDC02D5
:10140000C0FCFF1FEC280000C8F9FF1F10B5022820
:1014100001D8FFF7B7FF10BD1C4870B51422FF219B
:101420000630F42601F08FF90022002428257600EA
:1014300031001000FFF7A6FF154B31001C601D6046
:10144000144B22001C601D60134B01201C601D60AA
:10145000124B1C601D60124B1C601D60114B1C6008
:101460001D60FFF78FFF104B31001C601D600F4B9C
:1014700022001C6002201D60FFF784FF0C4B1C60E3
:101480001D600C4B1C601D6070BDC046C0FCFF1F82
:101490000C800340148003401C80034024800340E0
:1014A0002C800340348003400C9003401490034090
:1014B0000CA0034014A0034070B50400092816D8FE
:1014C0000021FFF737FF0B4A6000835C0A495D0784
:1014D000ED0E4919C968DB089B00CB18442112188E
:1014E00052785207520D0A431A60200070BDFF2443
:1014F000FBE7C046C8F9FF1FEC28000010B5040048
:10150000092814D80021FFF715FF0122084B6400B9
:1015100052420633E252074B074AE35C5907C90EB1
:101520005218D268DB089B00D31800221A6010BD45
:10153000C0FCFF1FC8F9FF1FEC28000070B5002495
:10154000064D063563005B5F013302D0E0B2FFF762
:10155000D5FF01340A2CF5D170BDC046C0FCFF1F79
:101560001A4B70B51B6806005B0513D5184D2C8807
:101570000134A4B2FF2C00D900246B88A3420AD006
:1015800001222B19F6B21E71124B1A71124BAB329B
:101590002C80DA7070BDFFF7FBFD402810DC0E498F
:1015A0000B795BB2002BE8DA6B8801339BB2FF2B1F
:1015B00000D90023EA181279D2B2CA716B80DCE735
:1015C000FF28DADD00F0C6FED7E7C04634800440CD
:1015D000E0FCFF1FE0FDFF1F00A006408023174A2C
:1015E00001001068DB00034310B51360144A154B6B
:1015F000154C1A60154B31321A600023E370A3704A
:10160000134B4810C01800F07FFFC304DB0E23709B
:101610002C23C0B26070E3700E4800F0B3FE80214E
:101620000D4B49011960FF230C4802689A43BF3BE8
:10163000134303600A4B196010BDC0463480044058
:101640001303000040A0044000A0064044A0044052
:10165000C0C62D004517000080E200E00CE400E069
:1016600000E100E0014B98607047C046E0FDFF1FBD
:1016700010B5104C23685B0502D410BD00F06AFE63
:101680000D4A1379DBB2002BF8D180210B484901B8
:1016900001600B4801600B490B48CB700421FF31FE
:1016A00001600A4801602168094801402160938176
:1016B000D381E2E734800440E0FDFF1F80E200E0D8
:1016C00080E100E000A0064040A0044044A00440A7
:1016D000FFFBFFFF70B505000E000400631B9E4278
:1016E00000DC70BD2078FFF73BFF0134F6E710B552
:1016F00004000134631E1878002806D10D30FFF76E
:101700002FFF0A20FFF72CFF10BDFFF729FFF0E79E
:1017100010B5044B1B79002B00D110BD00F01AFE50
:10172000F7E7C046E0FDFF1F054A9389D0899BB2C9
:1017300080B2834201D3181A70470133FF33FAE7AE
:10174000E0FDFF1F10B5FFF7EFFF002804DD034B9E
:101750009B68002B00D0984710BDC046E0FDFF1FDE
:10176000002230B50A4C8A4202DB0A00100030BD6C
:10177000A589E3899BB29D42F8D001339BB2FF2B30
:1017800000D90023E5182D7CE38185540132EAE776
:10179000E0FDFF1F10B51D4A13799B060ED51C49AD
:1017A000D0798B89C0B201339BB2FF2B00D90023C3
:1017B000CC89A34202D0CC1820748B81D178C9B2D5
:1017C00000290BD013795BB2002B07DA114804888B
:1017D00043889BB29C420DD16C23D37040231942A5
:1017E00007D01179194204D00021094B19712C231B
:1017F000D37010BD01339BB2FF2B00D90023C41856
:101800002479E4B2D4714380E8E7C04600A00640E2
:10181000E0FDFF1FE0FCFF1F0223F0B50B4A0C4E5A
:1018200014780F042343DB00F51868605078050036
:10183000691E8D418821AD0139432943F1500123AF
:101840005C40434014705370F0BDC046F0FEFF1F73
:1018500000F8FF1FF7B51B4843880093009A838860
:10186000D21A92B2111C402A00D940218468062263
:10187000A44666468579144F2A43D200BC18F61850
:101880006660047B89B22600701E8641B00101901B
:1018900088200E043043019E5B183043B8500099F5
:1018A000084A9BB29380994205D86146AB00D31891
:1018B00019610023936001235D405C4095711473AE
:1018C000F7BDC046F0FEFF1F00F8FF1F084B0020C9
:1018D0001A7E597E914208D00132D2B2132A05D81D
:1018E0001A761A7E92009B18D86970470022F7E793
:1018F000F0FEFF1FF7B52F4E2F4C33006C336360A3
:101900003300002507000D20AC332C4AE3602C493E
:101910002C4B22603570A360757025616561A561EF
:10192000E561087030692562B571A562357325637C
:101930006562E5626563E563A56300920193A84271
:1019400002D0FFF7BBFC35617069002803D0FFF7B8
:10195000B5FC002373610023B360FFF7B7FF0028D5
:1019600002D0FFF7ABFCF8E70523012F00D00300FE
:10197000154A1370154A002311006C310B701100C9
:1019800070326264009A6D312264114A0B703032F9
:10199000E264019A6365A264E36523650922A36595
:1019A000012F00D01A000B4B1A7001220A4B1A703B
:1019B000F7BDC046F0FEFF1F00F8FF1F8800400083
:1019C000C0200740C8004000C420074070FFFF1F30
:1019D000F0FFFF1FC820074098000020F7B58508DA
:1019E000794EED00AB599B061B0F092B00D1C3E0CC
:1019F0000D2B04D0012B50D1744BAB514DE0744CE6
:101A00007319200059680822143000F093FE6F4BC0
:101A1000704FAB5100253561B5610126A38A6E4A2E
:101A20007E70934212D8013A934244D2822B00D165
:101A300062E005D8802B59D20F22684B1A7029E03A
:101A4000A022D2009342F7D12F000DE09022120184
:101A5000934200D16CE021D8803A9342ECD135001A
:101A60005F4F237F70373B70628B161CAA4200D9F0
:101A70002E1CB5B2402D00D94026B6B23800310038
:101A8000AD1BFFF7C9FEADB2BB1901932F1E5FD18D
:101A9000402E60D00122534B1A70F7BD524A9B185A
:101AA000012BC9D8238B514F042B1BD0052BCBD135
:101AB0004E4F283716E0E28A4D4B9A4203D14D4BE8
:101AC000218B99420CD0218B4B4B5F68002FB3D0F8
:101AD0001888904208D15888884205D11D7AC3E7FA
:101AE0003F4F78373D78BFE70C33EEE73C4F703718
:101AF0003D707D700225B7E77F22238B1340627F04
:101B0000022A11D0002B00D096E700220225344F84
:101B10009B0070373A707A70304A9B181A782A42C4
:101B2000A2D001223A709FE7032B00D984E7ECE7AB
:101B3000E38A012B00D97FE7D8B25A1E93410133C3
:101B400020776377FFF7D6FE7E702562A5847BE75A
:101B5000402D00D94027BEB2AD1B31000198ADB277
:101B6000FFF75AFE002D02D1402F00D092E7019BD3
:101B7000A584DF1927628DE7154D2E6A002E13D03C
:101B8000AC8C2700402C00D940273000B9B2FFF7B9
:101B900043FEBBB2E41AA4B2F619AC84002C02D105
:101BA000402F00D026002E62A023AA8ADB009A4292
:101BB00000D072E7EB8A114AD9B21170002B00D025
:101BC0006BE76B7769E7C04600F8FF1FC80040006D
:101BD00070000020F0FEFF1F81060000C0200740BB
:101BE000F0FFFF1F9420074040DDFFFFDCF9FF1FDF
:101BF00003030000090400000C290000982007409E
:101C000010B5144B5B7F022B18D172B6124A043305
:101C100091790B431149DB005B5880210B4011D0B7
:101C2000537E0133DBB2132B00D90023117E99427E
:101C300005D099005118C861537662B610BDFFF700
:101C40003DFBFAE70188906051809380FFF702FE28
:101C5000F3E7C04670000020F0FEFF1F00F8FF1FF2
:101C6000084B00205B7F022B0BD1074B6C331A789B
:101C700008231343054ADB009958090601D4D318F9
:101C8000586870477000002070FFFF1F00F8FF1FAA
:101C90000A4B5B7F022B0DD1094B6C331A7808235A
:101CA0001343084ADB009958090603D49858800169
:101CB000800D704701204042FBE7C04670000020C5
:101CC00070FFFF1F00F8FF1F0D4B30B51A00190001
:101CD0006C32107808226D310978024300290CD14A
:101CE000084C094DD20054511C0001226D34514062
:101CF0006C33424021701A7030BD044CF1E7C0468D
:101D000070FFFF1F8800400000F8FF1FC800400060
:101D100070B504000020FFF7EDFD284A03231500ED
:101D200078356B700023E05C591C00283DD180237E
:101D3000783249001170224ADB0211680B431360AC
:101D40008022204B1A701A7852B2002AFBDB1E4AFE
:101D50001E48110AC9B20170110C1D48C9B20170A8
:101D60001C49120E0A70FF221B490A701B490A7097
:101D70001B490A7040211878014319700123002083
:101D800018490B701849087018490B7018490B68EE
:101D900093431A008023134380220B60154B520497
:101DA0001A601022144B1A7070BD5B00EB1880B2E1
:101DB00098700020D870CBB2B5E7C046F0FFFF1F87
:101DC000348004400C21074000F8FF1F9C2007408E
:101DD000B0200740B42007408020074088200740FB
:101DE000102007409420074000210740842007402E
:101DF00018E400E000E100E008210740F8B5042203
:101E00003C4E33783400DBB2134200D032700825E8
:101E10001D4043D0384B1878C0B2040904D1FFF7F5
:101E2000DDFD08233370EAE7012C30D18008334B05
:101E3000C700FB589B061B0F092BF2D172B6304D21
:101E40000440A4002C192069002803D0FFF736FABB
:101E500000232361294BDF1900237B600627AB7920
:101E6000264A3B43DB00D3588022134206D1AC689C
:101E7000002C09D1FFF72AFD002801D162B6D0E776
:101E80000388A8606B80AC80FFF7E4FCE7E7022CD6
:101E9000C7D18008194BC000C358C2E7DA0713D571
:101EA0000223184A280011780B431370FFF722FD14
:101EB000FF23154A1370154A23701570144A1370C6
:101EC0009F22144B1A70F8BD5AB2002A04DA0D2171
:101ED000114A11708022227002210B4204D00A485C
:101EE0000278D2B20270217010221342EBD022701D
:101EF000E9E7C046802007409020074000F8FF1F18
:101F0000F0FEFF1F942007408820074098200740DC
:101F10008C20074084200740C020074070B50F2563
:101F2000074C002A00D170BD013A92B28B5C1E09A9
:101F30002B40A65DE35C067043700230F1E7C046BB
:101F400060290000F0B585B002930AAB1B8807003A
:101F500003930DAB1E88009135001035ADB22800FB
:101F60000192FFF777F9041E1BD0042383706B46A0
:101F70001B78058083716B461B7A8780C3716B4623
:101F80009B8903810B9BC3606B469B884381002E1A
:101F900004D032000C99103000F0CCFB2000FFF789
:101FA0002FFE05B0F0BD1FB51C0000230194039364
:101FB00002930093FFF7C6FF1FBDF7B50191857827
:101FC0000400012D00D0B1E00388142B11D00025AE
:101FD0000C20E6882789FFF73DF9002832D00C2332
:101FE00003800A3B837000238580C680078143817C
:101FF00026E00379012B51D14779012F2AD1FE2206
:10200000018A80250A40807A3940FEF7C1FB6D00C5
:10201000238A0543ADB200263B4202D1FEF77CFC89
:1020200086B20C202789FFF715F900280AD00C2367
:1020300003800A3B83700023C5808380078146812B
:10204000FFF7DEFD019B002B00D1BDE02000FFF774
:1020500035F9B9E0022F0CD18289018A807AFEF726
:102060004BFA8025FF28B2D0AD000543ADB2002663
:10207000D7E7032F06D1807AFFF71EFAFF28A6D0F4
:10208000C025F1E7042FA2D1018AE268807AFEF729
:10209000E8FCFF289BD08025ED00E6E7022B25D148
:1020A000C088FD3302009A431300802252009342FD
:1020B00003D1C0B2FEF7F8FB89E780229200934279
:1020C00003D1C0B2FEF752FA81E7C02292009342D8
:1020D00003D1C0B2FFF712FA79E78022D20093420F
:1020E00000D075E7C0B2FEF7A4FF70E7032B08D15C
:1020F000FEF750FCFEF710FBFFF720FAFEF7CCFFCF
:1021000065E7042B00D062E74379012B05D1028AF1
:10211000E168807AFFF77AF959E7022B00D056E799
:10212000028A017B807AFFF7EBF850E7032D89D113
:1021300000880F2800D885E7A388FF221900914363
:102140000A00A179012912D1FF318A4204D1217BF1
:10215000D8B2FEF7C9FB75E7C02189008A4200D0DA
:1021600070E70C22A15ED8B2FFF7E4F86AE7022913
:1021700015D1FE318A4209D1D8B2FEF7CDFB628972
:1021800003000121A088FFF70EFF5BE78021890093
:102190008A4200D056E7D8B2FEF71EFA52E703296A
:1021A00013D18023DB009A4200D04BE7019B25002E
:1021B000002B06D1FFF74EF822882100050000F021
:1021C000B9FA2800FEF7ECFEF7BD042908D18023F8
:1021D000DB009A4200D035E72000FEF7FBFE31E736
:1021E000052900D02EE7DCE7F0B53D4C85B023781B
:1021F000002B09D000232370FEF7CCFBFEF78CFAEE
:10220000FFF79CF9FEF748FFFFF742FD0600051EA9
:102210004EDDFFF725FD63880700002B3AD0012B28
:102220000AD10078A3880002C01880B2A080FFF70E
:1022300011F8A388A06003806388B5B20193A388D6
:102240000393019B039A9B192E00934203DD130015
:10225000019A9E1AB6B2A3680293002B05D0019A88
:1022600039009818320000F065FA019BAD1BBF19C8
:10227000F618039BB6B22DB26680B3420AD1029B18
:10228000002B03D001211800FFF797FE0023638085
:10229000A380A360012D04DC08D13B786580A38076
:1022A00004E03E88B5420DDB072E03D8FFF70CFD96
:1022B00005B0F0BD38000021AD1BFFF77EFEBF1951
:1022C0002DB2E7E73000A680FEF7C4FF6580A0606E
:1022D0000028EBD02A00390000F02CFAE6E7C046CF
:1022E0009800002070B580256D00FEF72BFB0400E0
:1022F000FF2809D0FEF710FB2C4303000022A0B2F8
:102300000121FFF750FEF0E770BD10B5FFF7EAFFBF
:1023100010BD13B56B469C1D2000FEF781F9C31C50
:10232000DBB20200012B09D980208000104300217C
:10233000635E80B200220121FFF735FE13BD10B5A8
:10234000034A136801331360FEF706FA10BDC04656
:10235000DCFCFF1F70B50A4D2C78002C07D101233F
:102360002B706B1DDB7F9C4202D300232B7070BD52
:10237000A300EB185B6801349847E4B2F1E7C0466C
:10238000A4000020054B5A1DD17F89005B185860BE
:10239000D37F0133DBB2D3777047C046A40000205F
:1023A000002330B512494C1DE57FEDB2E27F934228
:1023B0000DD32B00481DC27F934203D2C27F013A46
:1023C000D2B2C2774C1DE27F934208D330BD9A004F
:1023D0008A1852688242EDD00133DBB2E6E7581C1E
:1023E00082008A1852689B00CB185A60C3B2EAE791
:1023F000A4000020002243088B4274D303098B42BF
:102400005FD3030A8B4244D3030B8B4228D3030CC4
:102410008B420DD3FF22090212BA030C8B4202D366
:102420001212090265D0030B8B4219D300E0090A8E
:10243000C30B8B4201D3CB03C01A5241830B8B4297
:1024400001D38B03C01A5241430B8B4201D34B0380
:10245000C01A5241030B8B4201D30B03C01A5241E5
:10246000C30A8B4201D3CB02C01A5241830A8B426A
:1024700001D38B02C01A5241430A8B4201D34B0253
:10248000C01A5241030A8B4201D30B02C01A5241B7
:10249000CDD2C3098B4201D3CB01C01A524183096B
:1024A0008B4201D38B01C01A524143098B4201D3A5
:1024B0004B01C01A524103098B4201D30B01C01AD0
:1024C0005241C3088B4201D3CB00C01A524183084A
:1024D0008B4201D38B00C01A524143088B4201D377
:1024E0004B00C01A5241411A00D2014652411046D7
:1024F0007047FFE701B5002000F0F0F802BDC046CC
:102500000029F7D076E7704703460B437FD40022BB
:1025100043088B4274D303098B425FD3030A8B4277
:1025200044D3030B8B4228D3030C8B420DD3FF22E1
:10253000090212BA030C8B4202D31212090265D0AF
:10254000030B8B4219D300E0090AC30B8B4201D362
:10255000CB03C01A5241830B8B4201D38B03C01AA9
:102560005241430B8B4201D34B03C01A5241030B20
:102570008B4201D30B03C01A5241C30A8B4201D3D1
:10258000CB02C01A5241830A8B4201D38B02C01A7C
:102590005241430A8B4201D34B02C01A5241030AF3
:1025A0008B4201D30B02C01A5241CDD2C3098B42D8
:1025B00001D3CB01C01A524183098B4201D38B0155
:1025C000C01A524143098B4201D34B01C01A5241F8
:1025D00003098B4201D30B01C01A5241C3088B423D
:1025E00001D3CB00C01A524183088B4201D38B0028
:1025F000C01A524143088B4201D34B00C01A5241CA
:10260000411A00D201465241104670475DE0CA0FA0
:1026100000D04942031000D34042534000229C4660
:1026200003098B422DD3030A8B4212D3FC2289016A
:1026300012BA030A8B420CD3890192118B4208D340
:10264000890192118B4204D389013AD0921100E0A2
:102650008909C3098B4201D3CB01C01A52418309B6
:102660008B4201D38B01C01A524143098B4201D3E3
:102670004B01C01A524103098B4201D30B01C01A0E
:102680005241C3088B4201D3CB00C01A5241830888
:102690008B4201D38B00C01A5241D9D243088B42DE
:1026A00001D34B00C01A5241411A00D20146634681
:1026B00052415B10104601D34042002B00D54942E5
:1026C000704763465B1000D3404201B5002000F024
:1026D00005F802BD0029F8D016E770477047C046DC
:1026E000014B18687047C04618FBFF1F70B50026E5
:1026F0000C4D0D4C641BA410A64209D1002600F01D
:1027000037F90A4D0A4C641BA410A64205D170BDCE
:10271000B300EB5898470136EEE7B300EB58984703
:102720000136F2E77C2900007C2900007C290000AA
:1027300080290000002310B59A4200D110BDCC5C66
:10274000C4540133F8E703008218934200D1704764
:1027500019700133F9E7FFFF10B5034B010018684A
:1027600000F004F810BDC04618FBFF1F002370B531
:10277000064C050008002360FEF7D9FC431C03D17A
:102780002368002B00D02B6070BDC046CC00002019
:10279000450E08090D0C46470F0B0004171D1A1EA5
:1027A0001BFFFFFF81890308103B23131B1A2232F2
:1027B0003A2A0B02010919112B330A12A4ACF400B6
:1027C00000F00F4040F00F4080F00F40C0F00F408D
:1027D00000F10F400090044000A0044000B004400D
:1027E00000C0044000D00440006006400070064075
:1027F00048202400486424009142240000900440B2
:1028000000A0044000B0044000C0044000D00440D8
:1028100000001400010016000200180003001A0056
:1028200004001C0005001E00090020000600220014
:102830000A002400070028000C002C000D003000C6
:10284000430034000E00380045003C0012004000F8
:102850000F004400130048001400500015005800F9
:1028600019006000160068001A0070001700800050
:102870004F0088001C0090001D00A0005500B00013
:102880001E00C0002200E0001F00F0002300000135
:1028900024002001250040019500600126008001F0
:1028A0002700E0012A00C0012B0000022C0040029A
:1028B0002D0080022E000003320080032F00C00391
:1028C00033000004340080043500000536000006A3
:1028D000370080073A0000073B0000083C00000971
:1028E0003D00000A3E00000C3F00000F0080034046
:1028F0000090034000A003400090044000A004406A
:1029000000B0044000C0044000D0044000010000BA
:1029100006FBFF1F1200000000020000E6FAFF1F86
:102920002000000000030000E2FAFF1F0400000086
:1029300001030904B6FAFF1F2C000000020309047A
:10294000A4FAFF1F12000000EE03000092FAFF1F1E
:102950001200000000000000000000000000000065
:102960003031323334353637383961626364656605
:10297000F8B5C046F8BC08BC9E4670473904000054
:04298000F8B5C046A0
:10298400FE000000D00000200813103323841A44F2
:102994002264010B092B2BA40A0412242800000032
:1029A400000104000100000000000000000157497C
:1029B4004E555342000000000000000000000000DB
:1029C400000000008E0000000001050001008400EA
:1029D4000000010000002800440065007600690042
:1029E4006300650049006E007400650072006600B3
:1029F4006100630065004700550049004400000081
:102A04004E0000007B0064003000310030006200A2
:102A14006100390030002D003000320035006100C3
:102A24002D0034006300390034002D0062003200B0
:102A3400640062002D006100310033006600320042
:102A440030003500640034003300370065007D0039
:102A5400000012034D0053004600540031003000C2
:102A640030002200120357006900720065006B00F9
:102A74006900740065002C034D0061006E00750050
:102A840065006C00200042006C0065006900630072
:102A9400680065006E006200610063006800650004
:102AA4007200040309040902200001010080FA09EC
:102AB40004000002FF000000070581024000000737
:102AC40005020240000012010002FF000040C0168F
:102AD40001271000010203011CFBFF1F000000007E
:102AE40000000000000000000000000000000000E2
:102AF40000000000000000000000000000000000D2
:102B040000000000000000000000000000000000C1
:102B140000000000000000000000000000000000B1
:102B240000000000000000000000000000000000A1
:0C2B340000000000000000000000000095
:00000001FF
