:1000000000180020C1000000911A0000551A0000DD
:10001000551A0000551A0000551A0000551A000024
:10002000551A0000551A0000551A0000911A0000D8
:10003000911A0000551A0000911A0000E9320000E0
:10004000911A0000911A0000911A0000911A000004
:10005000911A0000911A0000911A0000911A0000F4
:10006000111A00001B1A0000A1260000AB26000098
:10007000911A0000911A0000911A0000A5070000D3
:10008000911A0000911A0000911A0000911A0000C4
:10009000911A0000911A0000CD090000911A000089
:1000A000B92C0000911A0000911A0000911A00006A
:1000B000911A0000911A0000590C00009F0C0000DA
:1000C000F8B501F0E8FC454B454A1A60454B464AF5
:1000D0001A60464B464A1A600823464A117819426C
:1000E00002D011780B4313702A22434B43481A70F5
:1000F00000234349434C1A188A4268D30021424BDB
:10010000424A934267D30023414C424AD158E150BE
:100110000433C02BFAD1403B00220327FF269C4624
:1001200093083D4910009B005B1831003840C00027
:1001300081401D6801328D43290065468540294371
:100140001960202AECD1354B6A321C60344B1A708E
:10015000344B663A5A707C321A709E3A9979114241
:10016000FCD0102299791142FCD10C219A790A40D5
:10017000082AFBD1053A1A713D325A71203A997911
:100180001142FCD0402299791142FCD0264A2749DD
:10019000116020220C211A709A790A400C2AFBD196
:1001A000234B244A1A60244B244A1A600022244B11
:1001B0001A60244B07321A60234B244A1A6062B635
:1001C00003F012FA01F06EFC01F0CAFCFEE7E558FC
:1001D000043315608FE702C393E7C04634800440C0
:1001E000300004F038800440823F00003C8004402E
:1001F0000100000F02D0074000E00740C0F9FF1FD8
:10020000B0FBFF1F64390000B0FBFF1F700000202F
:1002100000F9FF1F0000000000E400E008ED00E02E
:100220000050064000400640448004400000011099
:1002300004800440C000050514E000E07FBB00001E
:1002400018E000E010E000E020ED00E000002020D9
:10025000FFFFFFFFFFFFFFFFFFFFFFFFFFFFFFFFAE
:10026000FFFFFFFFFFFFFFFFFFFFFFFFFFFFFFFF9E
:10027000FFFFFFFFFFFFFFFFFFFFFFFFFFFFFFFF8E
:10028000FFFFFFFFFFFFFFFFFFFFFFFFFFFFFFFF7E
:10029000FFFFFFFFFFFFFFFFFFFFFFFFFFFFFFFF6E
:1002A000FFFFFFFFFFFFFFFFFFFFFFFFFFFFFFFF5E
:1002B000FFFFFFFFFFFFFFFFFFFFFFFFFFFFFFFF4E
:1002C000FFFFFFFFFFFFFFFFFFFFFFFFFFFFFFFF3E
:1002D000FFFFFFFFFFFFFFFFFFFFFFFFFFFFFFFF2E
:1002E000FFFFFFFFFFFFFFFFFFFFFFFFFFFFFFFF1E
:1002F000FFFFFFFFFFFFFFFFFFFFFFFFFFFFFFFF0E
:10030000FFFFFFFFFFFFFFFFFFFFFFFFFFFFFFFFFD
:10031000FFFFFFFFFFFFFFFFFFFFFFFFFFFFFFFFED
:10032000FFFFFFFFFFFFFFFFFFFFFFFFFFFFFFFFDD
:10033000FFFFFFFFFFFFFFFFFFFFFFFFFFFFFFFFCD
:10034000FFFFFFFFFFFFFFFFFFFFFFFFFFFFFFFFBD
:10035000FFFFFFFFFFFFFFFFFFFFFFFFFFFFFFFFAD
:10036000FFFFFFFFFFFFFFFFFFFFFFFFFFFFFFFF9D
:10037000FFFFFFFFFFFFFFFFFFFFFFFFFFFFFFFF8D
:10038000FFFFFFFFFFFFFFFFFFFFFFFFFFFFFFFF7D
:10039000FFFFFFFFFFFFFFFFFFFFFFFFFFFFFFFF6D
:1003A000FFFFFFFFFFFFFFFFFFFFFFFFFFFFFFFF5D
:1003B000FFFFFFFFFFFFFFFFFFFFFFFFFFFFFFFF4D
:1003C000FFFFFFFFFFFFFFFFFFFFFFFFFFFFFFFF3D
:1003D000FFFFFFFFFFFFFFFFFFFFFFFFFFFFFFFF2D
:1003E000FFFFFFFFFFFFFFFFFFFFFFFFFFFFFFFF1D
:1003F000FFFFFFFFFFFFFFFFFFFFFFFFFFFFFFFF0D
:10040000FFFFFFFFFFFFFFFFFFFFFFFFDEF9FFFF23
:1004100010B5064C2378002B07D1054B002B02D0DA
:10042000044800E000BF0123237010BDB0FBFF1F94
:100430000000000064390000044B10B5002B03D00D
:100440000349044800E000BF10BDC04600000000A2
:10045000B4FBFF1F6439000010B50A4B4000C15CBB
:10046000C45AC908084B1022600707D51868024310
:100470001A604023054A0B43136010BD186890436F
:100480001860F6E7C0F9FF1F0CB0034000B003404E
:100490003822074B1A60074B353A1A60064B023A6E
:1004A0001A608023054A1B021360054A13607047D7
:1004B00008B003400CB0034020B0034080E200E0ED
:1004C00000E100E043B270B5002B01DA7338C0B22E
:1004D000102827D804D1012313490C7823430B702B
:1004E00000231249CB56002B0ED1114B0333DC7F76
:1004F000FE2C09D140255F260E4C25600E4D2E6046
:1005000087252560FC24DC77002A0AD00C254C784E
:100510000B1D65435B191A60002201345A60187282
:100520004C7070BDFF20FCE702D00740CCFBFF1FE2
:10053000C0F9FF1F24B0034000B00340F0B5184DD0
:1005400000242F0085B0083F019002976A789442FA
:1005500009DB019B102B04D10121124A13788B4334
:10056000137005B0F0BD0C2363430F490198C918FF
:10057000097A01348142E9D102990C335B180C21CC
:10058000514302980918039103998B4202D1013A11
:100590006A70DBE719000C31C1C9C1C3F4E7C0467A
:1005A000CCFBFF1F02D00740D0FBFF1F10B5102867
:1005B00007D80E4B0333DA7FFE2A03D1D877FFF733
:1005C0004BFF10BD0A4A130064331B780133DBB2C2
:1005D000072B00D900231100653109789942F0D02A
:1005E000110064326631C8541370EAE7C0F9FF1F86
:1005F000CCFBFF1FF8B5344A0400D31CDE7F33491F
:10060000731DDBB2012B54D83148324B1B6807688D
:100610003148DB19066831489B19056830485B1979
:100620000068304D1B189BB22F485B0803439BB2F8
:100630002B602E4B2E4D1B682D68AC462D4D634410
:100640002F682D4DDB192E682C4D9B192D68FD262A
:100650005B199BB25B08034329489BB203601F23CD
:100660000B6004210025274B1960274B03391970B3
:10067000254908000F006530643703783F789F42B2
:100680001ED00133DBB2072B18D803700800653188
:100690000B786630C05C0332D077FFF7DDFEEA02EC
:1006A0006B0513436A0013436D0A1D433000256038
:1006B000F8BD164B1D681F230B60D9E70023E4E744
:1006C000FE230332D377EAE7C0F9FF1F00B00340EF
:1006D00048B003404CB0034044B003403CB003403A
:1006E00038B003402CB003400080FFFF6CB00340E3
:1006F00068B0034064B003405CB0034058B00340AE
:1007000030B0034024B00340CCFBFF1F10B00340C7
:1007100080220D4B120210B51A601F22FE200B4BD7
:100720000B491A600B4B21321A600B4B0331C8770F
:100730001900002264310A70190065311A700A70BC
:100740005A70FFF7A5FE10BD80E200E000B0034044
:10075000C0F9FF1F24B00340CCFBFF1F70B501247C
:100760000C250F4B621E5978914200DC70BD2A00A7
:10077000624304339B181900180008390A680C38C2
:1007800000680132904206D800220A60043B1878C3
:10079000FFF70CFF02E00A60002AF7D00134E0E71F
:1007A000CCFBFF1F07B501A8FFF724FFC31CDBB27A
:1007B0000200012B08D980208000104380B2019BE9
:1007C0000022012102F082FB07BD10B5FFF7EAFF0E
:1007D00010BDC046F8B500230C261D000127104CA3
:1007E000310059430A59002A04D0824215D83D00ED
:1007F0000C4A0A510133042BF2D126003036094B42
:1008000022689A4204D10023A06823606368984755
:100810000C34A642F3D12800F8BD121A0A51E9E7B8
:100820003CFCFF1FFFFFFF7F104970B50A6B002AD9
:100830001BD10F4B0C241D002000504308580028EA
:1008400002D0834200D903000132042AF4D1AB4222
:100850000BD002200126074A074C23601060106865
:10086000304310604B630E63256070BD3CFCFF1F7E
:10087000FFFFFF7F08710340007103408023094A96
:100880001B0411680B4313600022074B1A60074BCF
:1008900001321A608023064ADB031360054A1360A5
:1008A0007047C0463C800440007003400C71034018
:1008B00080E200E000E100E0012209490B68934377
:1008C0000B60084B1A608022074BD2031A6000228B
:1008D000064B1A60DA609A615A625A631A6370476B
:1008E000087103400C71034080E200E03CFCFF1FF4
:1008F000F8B51D4C1600226B07000D00012A13D11C
:100900001A490B6893430B6019491A4B0868104247
:100910001FD11868636B181A01230B60DB1823635F
:10092000FFF758FF0023236318235F4301219B2F08
:1009300001D939009B3900220C2003005343E758AA
:10094000002F0CD1E150E4186560A660FFF76CFF42
:10095000F8BD626B08481B681018C01ADCE701324A
:10096000042AEAD1F2E7C0463CFCFF1F08710340AD
:100970000C71034004710340FFFFFF7F022370B539
:100980000D4C0E4E23630E4A636B35689B185B1B40
:100990001800FFF71FFF3268AB1A15000028F7D1C7
:1009A000012208490B6893430B60074B1A602063D0
:1009B000FFF73AFF70BDC0463CFCFF1F04710340C7
:1009C000FFFFFF7F087103400C710340034B10B51C
:1009D0001B68DB0701D5FFF7D1FF10BD0C71034089
:1009E000002210B50E4B9A56904218DA013340009F
:1009F000C25C18180123447851079C43447009488D
:100A0000C90ED20808589400001980249340064A61
:100A100064048A580460516999435161936010BD20
:100A200074FCFF1FEC370000D837000000220A4B8F
:100A30009A5690420CDA012240000133C35CD80878
:100A400082405B070548DB0E1B58002901D05A6025
:100A500070479A60FCE7C04674FCFF1FD83700005F
:100A6000F0B585B002911500FF241A287DD8002624
:100A70000024404A9657571CB44237DB01D1611C11
:100A80001170002C09D180213B4E3C4AC9053160D0
:100A900011608021090631601160394A0126125C1B
:100AA00060005707D20801920199324A7F0FC900AE
:100AB000394301328154022112185078304388435F
:100AC0005070019A9640BA00039203992D4A8F58AC
:100AD000029A002A12D17B69B3437B616B0747D42A
:100AE00002222B07DB171340113316E0610079183F
:100AF0004978C907C5D50134E4B2BDE71900200023
:100B0000FFF794FF7B691E43029B7E61012BE5D1B9
:100B100040222B07DB17134005331B490398019A2A
:100B200009589200FF338A181360029B002B1CD1D6
:100B300030331D4219D00F4B610001335B18022185
:100B400058780143597010232B4059424B410F49AB
:100B50005B420B40902109035B18A90602D5A02136
:100B600009030B4311680B431360200005B0F0BD6F
:100B70001423D2E774FCFF1F80E200E000E100E0F4
:100B80008C360000D8370000EC3700000000F7FF7B
:100B900000210B4A0023515688420EDA40000132F0
:100BA000825C01205307D20890400649DB0E5B5857
:100BB0001B690340581E8341DBB218007047C046D2
:100BC00074FCFF1FD837000070B58021002400207E
:100BD0000F4A104D145749040132844201DCFF20B2
:100BE00012E04300D6187678B6070ED59B5C5E07F8
:100BF000F60E7659DB089B00F3181E680E4204D0EF
:100C00001A68C0B21143196070BD0130E5E7C046F3
:100C100074FCFF1FEC37000010B5002400220C4BC1
:100C20009A56A24209DC00221A708022094BD20592
:100C30001A60802212061A6010BD62009B189B7811
:100C4000DB0702D5E0B2FFF7CBFE0134E6E7C04692
:100C500074FCFF1F80E100E070B580256D00FFF798
:100C6000B3FF0400FF2809D0FFF792FF2C430300D5
:100C70000022A0B2012102F029F9F0E770BD10B501
:100C8000FFF7EAFF10BD10B5FFF7E6FF10BD10B586
:100C9000FFF7E2FF10BD10B5FFF7DEFF10BD10B586
:100CA000FFF7DAFF10BDC046154810B50368002BEA
:100CB0000AD1144A01331168FF330B431360022336
:100CC000114A11680B4313600023012201681400CC
:100CD0000C400ED10A4302600C4AD8B21B019B188B
:100CE000802252049A6080229205DA601C605C6067
:100CF00010BD01335200042BE9D1FF20F8E7C046B4
:100D0000ACFCFF1F408004403C8004400081004058
:100D1000044B0001C0188023C268DB051343C36085
:100D20007047C04600810040034B0001C018C368F3
:100D3000024A1340C360704700810040FFFFFFBFBD
:100D4000034B0001C0188068C001C00F7047C04647
:100D500000810040034B0001C01880235B048360C6
:100D60007047C04600810040054B0001C018E023D9
:100D70008068DB051840431E9841C0B27047C046EA
:100D80000081004010B5FFF7E5FF10BD034B0001E7
:100D9000C01880680002000A7047C0460081004009
:100DA0000300084A10339B0099504311064A9B00E8
:100DB00099181F2210401E3A82400A6003495B18AE
:100DC0001A60704700F9FF1F80E200E000E100E0D8
:100DD0004311044A9B009B181F2210401E3A824078
:100DE0001A60704780E100E010B50400FFF7F0FFE3
:100DF000104A23019B18802252049A608022920597
:100E0000DA6000221A605A600B4BE3181A70012353
:100E1000A3400A4A1168994311600AD1084A094956
:100E200013680B401360084A04311368FF318B4389
:100E3000136010BD0081004000100240ACFCFF1F99
:100E400040800440FFFEFFFF3C80044010B5FFF7E8
:100E500081FF10BD044B0001C0188023C2681B062F
:100E60001343C3607047C04600810040034B00013C
:100E7000C0188023C2681343C360704700810040DC
:100E8000084A03019B18802210B5DC6892052243B2
:100E9000DA60054BC01800230370803319430170DA
:100EA00010BDC0460081004000100240054B00010B
:100EB000C0180160C368044A1A4080235B031343CF
:100EC000C360704700810040FF0F8EF0064B0001A9
:100ED000C0180160C36805491940A023DB030B4318
:100EE000C36082607047C04600810040FF0F8EF0F3
:100EF000054B0001C0184160C368044A1A408023B2
:100F00009B021343C360704700810040FFF0F0F084
:100F1000064B0001C0184160C36805491940A02371
:100F20001B030B43C36082607047C04600810040D2
:100F3000FFF0F0F020220A4B8000C358997811424C
:100F400003D0002094329A707047D878104001D0B6
:100F50000620F9E7B02199709B781342F4D1F7E7A6
:100F6000A8360000602343430F4A30B5D3181C0055
:100F7000583359341D78217800238D420FD0013128
:100F8000C9B213290DD8217060234343D3185933B4
:100F9000197818235843401802308000135818005D
:100FA00030BD00232370EFE7B0FCFF1F60231A0061
:100FB000424370B50E4DAA18583212780132D2B29F
:100FC000132A00D900224343EB181C00593424781B
:100FD000944208D018244443A4180234A40058337F
:100FE00029511A7070BD080000F036FEFAE7C046BD
:100FF000B0FCFF1F6021020041430420054B10B5E7
:10100000C8545B18DB6D013858430349FFF770FC87
:1010100010BDC046B0FCFF1F35180000F0B56024BD
:101020004443104E89B0371905007868069107923D
:1010300083880493C388059300F00EFE00230122E9
:101040007B60A255039302930193079B059A00933B
:101050000221069B049801F008FF2800FFF7CAFF51
:1010600009B0F0BDB0FCFF1FF7B56024062103797D
:10107000254D0193019A254B54430122E1541C193B
:10108000210000231600638060605B310878204BEC
:10109000800008331818437894469B06DB0E9E4068
:1010A0009B0059594E6001788906490F89004F59B4
:1010B0007A69164302687E6156036246F60EB240B4
:1010C0000088B600C005400F800047597D699543F0
:1010D0007D61104D0E4A4959CB1882214900196093
:1010E000435900219E1980235B003360019B9B00C4
:1010F0009B589970503199713E39D970019A0649BF
:10110000E06DFFF7F5FBF7BDD8370000B0FCFF1F1F
:10111000A8360000EC3700001D110000F0B5C3B286
:1011200085B0029360230126C2B253433A49CB18DB
:1011300058883A49013080B258805B331C780831B6
:10114000A4000C19236836495B03DB0E0193238846
:101150008C46DB055B0F9F007B583100019D1B69AE
:10116000A9400B4031006546039363789B06DB0E74
:1011700099409B005D59AC46039D002D11D111286B
:101180000FD8634630420AD1596060235343224945
:10119000CD18E86D2349FFF7ABFB05B0F0BD9960B2
:1011A000F3E71E4892008258802090706E38D0700D
:1011B000029A6425501E8241504280225200024011
:1011C00001321948FF3202602078184E8006400F25
:1011D00080008259D318A2789206520F12022A4335
:1011E0001A60019BF2599B00D3186288D205520FF6
:1011F000120215431D6063469960094BC25802985C
:1012000053698B43039953614B4259410022C9B240
:10121000FFF704FFC1E7C046B0FCFF1FA83600007F
:10122000D83700001D11000080E200E0EC3700001C
:10123000F8B560244443094F06003D196B8868687F
:10124000103341724281038001F0A6FA00236B60E3
:101250000133E3553000FFF7CDFEF8BDB0FCFF1FB2
:10126000384BF7B58200D55860234343364A070010
:10127000D61832005A321478334A20009B5C01930E
:10128000022B36D1FFF75CFD00280FD0F0232000A1
:10129000AB70FFF7DBFD2000FFF75CFD6B461B79B1
:1012A000737073681B88113B738021E0EB78DB0659
:1012B00001D40723019312232022EB70AB78200086
:1012C0009343AB70FFF7C2FD2000FFF75BFD602387
:1012D0007B431D4A2000D3185B681D88FFF756FD2D
:1012E000103DADB22A1A92B201993800FFF796FE6E
:1012F000F7BDFFF725FD002809D0E8232000AB70DB
:10130000FFF7A4FD2000FFF725FD0223C8E7122305
:101310002022EB70AB7820009343AB70FFF796FD73
:101320002000FFF72FFD736820001D88FFF72EFDBA
:10133000103DADB2013D2A1A92B207213800FFF7E5
:1013400077FFD5E7A8360000B0FCFF1F10B50120DD
:10135000FFF786FF10BD10B50020FFF781FF10BD1D
:10136000F7B50779224BBA00D4585023A2796025EB
:1013700013432022A371A3797D439343A3711223C6
:10138000E3701C4B0600ED1881235B002B800023CB
:1013900068606B803800FFF7CDFD011E04D000228D
:1013A0003800FFF73BFEF7BD2B005A331F7801933F
:1013B000FF2F1AD03288103A92B2032A15D9310081
:1013C00038001031FFF782FD3800211DFFF790FD36
:1013D00003236B70EE33A370019B1878FFF798FC22
:1013E00073895B00DBB22371DDE7F023A370F7E7BD
:1013F000A8360000B0FCFF1FF8B560244443164B2C
:101400000E00E4180423FF3323600500FFF792FD6C
:10141000011E04D000222800FFF70AFFF8BD0F4B81
:10142000AD00ED5823005A331F78FF2F0BD0291D34
:101430003800FFF73BFD616838000A881031113A27
:1014400092B2FFF765FD0121F02376000E43F6B25C
:10145000AB702E71E2E7C046B0FCFF1FA83600005B
:10146000F0B5103295B285B0060028000F0000F0EC
:10147000C3FB041E0FD1039002900190009005233E
:1014800030003A00032101F0F0FCF0B2FFF7B2FDAA
:10149000200005B0F0BD04238370013B05808680E9
:1014A000C7800372F4E770B50400E36880889AB2DD
:1014B000E188C5B2FFF7D4FF60226A430B4B9B184B
:1014C0005860002810D00A4BAA00D35850229979AE
:1014D00028000A4320219A719A798A439A7112222C
:1014E000DA706189FFF788FF70BDC046B0FCFF1F4E
:1014F000A83600007047FF23F7B5170001930228B4
:1015000000D99BE060254E4B80001818047A4D4BA3
:101510006407640F6543EA5C002A00D08EE0013264
:10152000EA54390048485D19019401F0E1FE474B47
:10153000E8651A684021002C00D049180A431A6057
:101540003F4AA300D6582023737100233370F371F0
:10155000654265413E4B6D421D403E4B7808ED189B
:101560003900401901F0C4FE3B4F82B247213800D8
:1015700001F02CFC80003B5C04207370354B9D42D5
:1015800004D03649280001F0B3FEC0B28023B07108
:10159000B3706E3BF37063426341FF2260265B428F
:1015A00093430232FF329B182D4A664313602D4A43
:1015B00064251360234A224B961932005B3212785D
:1015C000083392009A18137851789B0626485B0FCF
:1015D0009B0089061B58C90E8900591893785A3602
:1015E0009B065B0F1B022B430B6013881168DB0506
:1015F0005B0F9B0049031B58C90E8900591853887B
:10160000DB055B0F1B021D430D60FFF74DFB050063
:101610003070FF2812D0FFF729FC1449002C00D0AD
:1016200013492800FFF7BCFB2800FFF713FC21003B
:101630004C1EA14128001631FFF722FC0198FEBD87
:10164000A8360000B0FCFF1F40420F003480044069
:1016500000CA91FE006CDC02BC360000001BB70023
:1016600080E200E000E100E0EC37000057130000EA
:101670004D130000F8B5040001286DD860234343E2
:10168000364E9A5D002A67D0F3185B3334491D78D3
:101690000831AD004D19062A10D16B78053A9B062A
:1016A000DB0E9A402F499B005B589A602B789B0673
:1016B0005B0F9B0059584B6993434B616023002299
:1016C0006343F3181A8062426241FF2152428A4307
:1016D0000231FF31521824495A330A601878FF2822
:1016E00001D0FFF781FB00272A786B7892061F490B
:1016F000520F92009B065258DB0E9B00D3182A888B
:101700001F60D2052B68520F92005B035258DB0E0C
:101710009B00D318124A1F60A300D35850229F7019
:101720009A713E3ADA7060236343F618706800F0ED
:1017300093FA62426241534240220D497760086841
:101740001340813B03400B602000FFF70BFC002897
:1017500002D000F081FAF7E7F8BDC046B0FCFF1FE9
:10176000A8360000D837000080E100E0EC37000028
:101770003480044010B50020FFF77CFF0120FFF704
:1017800079FF10BD10B50379012B02D900F064FA7E
:1017900010BD60225A430649525C012A04D0010060
:1017A0001800FFF703FCF3E7FFF7DAFDF0E7C046A8
:1017B000B0FCFF1F70B505790400012D12D860231D
:1017C0006B430A4A9B5C012B0DD0008800F014FA91
:1017D000061E07D02100228801F02AFF31002800D0
:1017E000FFF7E4FB70BDFFF75EFEFBE7B0FCFF1FF9
:1017F00070B56025060045430D4BEB5C012B00D016
:1018000070BD3000FFF7AEFB041EF9D0037A042B45
:1018100005D1FFF748FE200000F01EFAECE7062B8A
:1018200002D1FFF721FCE7E7FFF79AFDE4E7C046A6
:10183000B0FCFF1F6023C2B253430C4970B55C5C1F
:10184000042C0DD10A4895002858802501345C5499
:10185000CB188570D86D07496043FFF749F870BD14
:101860000122C0B25A54FFF7C3FFF8E7B0FCFF1FD4
:10187000A836000035180000634B8200F0B5D6583A
:101880006023434385B0F278019301995F4B0500D3
:101890005C18C95CD2B2677802295AD1D30642D407
:1018A00001231A400AD01133012F4BD0032F02D14C
:1018B0006288002A46D0F370042136E0012F06D159
:1018C000636861701B7C33711223F37029E06068D8
:1018D000638807880133103F9BB2BFB26380BB426D
:1018E00002D2C018037CEEE7037A032B2DD0F170EF
:1018F000C38887880293C3689EB24389039300F02C
:10190000ABF90121019A414B3800D15432000299C0
:10191000FFF7A6FD6060002803D003992800FFF7B9
:101920006BFD05B0F0BD1223F3702022B3782800C0
:101930009343B37060236B43344AD3185A88FFF73C
:101940006DFBEEE7F3700321EFE712231100F37054
:10195000EBE70329B8D160680388103B9BB2012FE5
:1019600033D11020104001901220844601980028A5
:101970000BD063460139F37060236B43234A280080
:10198000D3185A88FFF754FCCBE73A4203D063469A
:10199000F3700021F0E7032B0BD922005A321078A4
:1019A000FF2806D0E1236170B370FFF7B1F93379F6
:1019B0008AE760225543154A551902226A70E632B9
:1019C000012B00D9083AB270F1E764889A1E94425C
:1019D00001D1E822B270611C013B89B2602200197A
:1019E0009C4209D190236A43B370084B9A185180E6
:1019F000337903741223CBE75543044B5D19698097
:101A00003379037460E7C046A8360000B0FCFF1FBE
:101A100010B50020FFF730FF10BD10B50120FFF713
:101A20002BFF10BD10B50379012B02D900F014F97A
:101A300010BD60225A430649525C012A04D00100BD
:101A40001800FFF7B3FAF3E7FFF70EFBF0E7C04625
:101A5000B0FCFF1F70B580258026ED02F6000B4C10
:101A600023682B4201D001F027F92368334201D0CB
:101A700000F00EF823681B0501D500F009F8236873
:101A8000DB04ECD500F004F8E9E7C04634800440FC
:101A900010B5FFF7DFFF0022014B1A607047C04608
:101AA0000081044070470A49030010B50868002B04
:101AB0000BD06A46074CC3181219934206D301F0A3
:101AC0008DFD0C2303600120404210BD0B60FCE73C
:101AD000E4F9FF1F00FEFFFF002070470120404295
:101AE000704780239B0100204B60704701207047A6
:101AF000012040427047FEE7FEE70078434258412C
:101B00007047012303707047EFF31380002821D141
:101B1000EFF31083002B19D1EFF30582002A16D0C2
:101B20000F2A0BD91300103B0C499B089B005B1834
:101B300003210A408A401B68D340DBB2EFF31182D5
:101B4000002A02D0934200D9130018007047802366
:101B50005B00F3E701204042F8E7C04600E400E004
:101B6000002110B5080086B000F026F8FEF786FECA
:101B700000F03AF9FEF78CFCFFF7BCFC0C4B02229C
:101B80001B6801AC00936B462000991801F032F9F4
:101B9000084B02A81B6804226946009301F02AF949
:101BA00000232000237301F019F801F01FFBFCE76C
:101BB0005C8004406080044010B50C0000280CD10B
:101BC000002911D16B46094A14681C1B084BE41804
:101BD00007239C43200001F03DFD00234360054B9B
:101BE00004601C60586010BD0060FFDEE4F9FF1F58
:101BF000C0FDFFFF70FDFF1F0323C21C012070B555
:101C0000002614499A434B68151D4042002B10D101
:101C10001C00431C0BD0110010317468814212D992
:101C20006368736004340021200001F00AFD200085
:101C300070BD1C68A54203D8A04201D90E00200047
:101C400019005B68E2E72368591B60182160056092
:101C50000400E7E770FDFF1F10B5002817D0043817
:101C600001680D4B5A68002A01D0824210D34418F3
:101C7000944203D1146852680919016042601A68DD
:101C80009C18A04206D15118426819605A6010BDD4
:101C90001300E7E75860FAE770FDFF1F0020044BD0
:101CA0005B68002B00D170471A685B688018F8E702
:101CB00070FDFF1F0020054B5B68002B00D17047B3
:101CC0001A68904200D210005B68F6E770FDFF1FB3
:101CD00010B5022803D8002802D1052902D910BD69
:101CE0000129FCD82424930700D40434044B800039
:101CF000C358C90059180023CB60CC60EFE7C04639
:101D00000038000070B509281BD80E4B80001B1846
:101D10005C780D4BE506C1500020AD0F6409091435
:101D2000814207D06A009B18188D0130484307494B
:101D300001F068FB064BAD00EB580134E4001C19C0
:101D4000A06070BDE8F9FF1F78FDFF1FFF7F000056
:101D5000003800001D4B70B504004808C01816007C
:101D600001F0C6FA802200235202904228D80028AF
:101D700000D10130164D01386200AA1880B21085DA
:101D800007221340F2071FD4082200261343114AEA
:101D9000A1008A581660566090601360B200A9587E
:101DA0004B1C09D00C4B9B185B78DB069B0F9C42AD
:101DB00002D1F0B2FFF7A6FF01360A2EEED170BDB8
:101DC0000133DBB24008D0E72822DEE7006CDC02FA
:101DD00078FDFF1F00380000E8F9FF1F10B502284A
:101DE00001D8FFF7B7FF10BD70B52822FF211748B3
:101DF000F42601F026FC002200242825760031007C
:101E00001000FFF7A7FF124B3100DC602200DD60FD
:101E100001205C615D61DC61DD615C625D62DC62F0
:101E2000DD625C635D63FFF795FF0A4B3100DC60A8
:101E30002200DD6002205C615D61FFF78BFF064BD5
:101E4000DC60DD605C615D6170BDC04678FDFF1FD8
:101E5000008003400090034000A00340F8B5002438
:101E60000F4EA700F519AB78834213D1E4B22000DE
:101E7000FFF748FFBB5D0B495A07D20E52580421A9
:101E8000DB089B00D3186A785207520D0A431A6088
:101E90002000F8BD01340A2CE3D1F534F8E7C04640
:101EA000E8F9FF1FEC37000010B5092811D8094BDD
:101EB0008400E35C08495A07D20E52580021DB081F
:101EC0009B00D3181960FFF71DFF0122034B5242FC
:101ED000E25010BDE8F9FF1FEC37000078FDFF1F4E
:101EE00010B50024054BA200D358013302D0E0B254
:101EF000FFF7DAFF01340A2CF4D110BD78FDFF1F83
:101F0000602343430D4A30B5D318597A1D7A002413
:101F10008D420ED00131C9B213290CD859726023F9
:101F20004343D318597A182358434018043080008B
:101F30001458200030BD0021F0E7C046A8FDFF1F67
:101F400060231A00424370B50C4DAA18127A013270
:101F5000D2B2132A00D900224343EB185C7A944290
:101F600007D018244443A4180434A40029511A7239
:101F700070BD0800FFF770FEFAE7C046A8FDFF1F1E
:101F8000F7B50500807AFF2802D00021FEF74EFD4C
:101F9000602102242A792248514343180D50002120
:101FA000A24059609E7A1F491C73DF7A5458FF2E55
:101FB0002FD02A881300103B9BB20193032B28D902
:101FC0002900113A92B211313000FEF77FFFA11DB6
:101FD0003000FEF78DFFA11D3800FEF767FF2900D6
:101FE000019A10313800FEF793FF01232022217857
:101FF0001142FCD02A7CA271002B09D02423A278A4
:1020000038001343A370FEF783FE3000FEF780FE16
:10201000F7BD8022E3781343E3700023E6E7C04670
:10202000A8FDFF1F0C3800007FB50400C3680079CD
:10203000D9B2FEF7FBFC2000E688A588FFF70CFE6E
:10204000002332002800039302930193009304219C
:1020500000F00BFF7FBD6023F0B543431B4C89B0FC
:102060001D590792AB8806000593EB880F00069375
:10207000A87AFF2802D00121FEF7D8FC2800FFF73C
:10208000EBFD602200237243A350A4180122636079
:102090002273039302930193079B069A00930221F4
:1020A0003B00059800F0E1FE3000FFF729FF002813
:1020B00004D0037A032B03D1FFF762FF09B0F0BD10
:1020C000012BF1D1FFF7B0FFEEE7C046A8FDFF1FDF
:1020D000114B8200D3586022424370B50F4D1978DE
:1020E0005459AD18E9889E796218013116748AB284
:1020F000EA802588103DADB2A94207D17F24D97866
:102100002140D9700021FFF7A6FF70BD61181A7831
:102110000A7C9A71F9E7C0460C380000A8FDFF1F41
:102120007047F0B59C4685B0C3B202920E2B0AD020
:10213000142B00D107E1FF22002600920D2B03D0C3
:10214000009805B0F0BD0126000A072800D1FCE088
:10215000002800D1FBE0152800D1FAE0FF2300277A
:1021600000930B28ECD1FF20824BB20003929A1807
:10217000947ABA009A18927D64075207A40F920FBE
:102180000090A242DCD1CDB2854215D0082D00D1FD
:10219000E1E0012D00D1E0E0052D00D1DFE00C2DC4
:1021A000CED10025AA009B18FF2224339B780092F1
:1021B0005B079B0FA342C3D16023FF2163436E4A99
:1021C0000091D3181A7B002ABAD1FE3919735E73B5
:1021D0009F73DD7363426341802668485B420168F8
:1021E0009B0536049B190B4300940360614BA100CF
:1021F000CB580C210193029B19405823082904D085
:102200000C2900D0B1E004210B430199CB70029B53
:102210009B0700D54022019B61469A706042604155
:10222000574B40421840574BC01863465B0818187C
:1022300001F05EF8544E82B22821300000F0C6FD55
:102240008000335C019A514853704A4B039A9918A5
:102250000E898A68F605497A760FB60089063658DF
:10226000D203C90E520F8900711812020A60B90018
:1022700059188E8A4A69F605497D760FB600890697
:10228000D203C90E3658520F8900120271180A6023
:10229000FF2D12D0AD005D192A00A98C2432C9058A
:1022A00052786B6A490F89009206DB03D20E0958F7
:1022B0005B0F92001B028A18136063426341802205
:1022C0005B4212019B029B186026314A66431360F1
:1022D000304A1360FEF7E8FC274F0500BE19B072C4
:1022E000FF283ED0FEF7C2FD2B49002C00D02B4921
:1022F0002800FEF755FD2800FEF7ACFD1121002C4B
:1023000000D002312800FEF7BBFDFEF7CDFC6023B4
:102310006343FF180500F872FF2800D110E7FEF7AD
:10232000A5FD1F49002C00D01E492800FEF738FDEE
:102330002800FEF78FFD1021002C00D0023128006C
:10234000FEF79EFDFCE60226FEE601270BE70227CC
:1023500009E7032707E7012524E7022522E70325EC
:1023600020E7FEF741FDB572EAE65023042900D1CB
:1023700049E74AE70C380000A8FDFF1F34800440FD
:1023800000CA91FE006CDC0240380000EC3700000F
:1023900080E200E000E100E0E7250000DD2500002C
:1023A000972600008D260000602210B50479094BA5
:1023B00062439B181B7B002B02D1FFF74DFC10BD25
:1023C000012B04D001002000FFF7BAFDF7E7FFF76B
:1023D000D7FDF4E7A8FDFF1F602210B5847A094BF2
:1023E00062439B181B7B002B02D1FFF735FC10BD0D
:1023F000012B04D001002000FFF7A2FDF7E7FFF753
:1024000013FEF4E7A8FDFF1FF8B50400012870D8FB
:1024100060234343374EF3181A7B002A69D0002209
:10242000354D810049591A73CA708A70987AFF280D
:1024300001D0FEF7D9FC60236343F318D87AFF2854
:1024400001D0FEF7D1FC6342634180225B4212015E
:102450009B029B18294A136060236343F758002F9F
:102460000CD0B87AFF2802D00121FEF7DFFA38003D
:10247000FFF7F2FB602300226343F25060236343C3
:10248000F3185A7B1E499200AA181089527AC00587
:10249000400F80009206D20E405892008018002211
:1024A0000260987BDB7B80002818868A407DF605D9
:1024B000760FB6008006C00E765880003018026095
:1024C000FF2B0ED09B00ED182B00A88C2433C005E9
:1024D0005B78400F80009B06DB0E41589B00CB18B9
:1024E0001A602000FFF70CFD002802D0FFF7B4FBB4
:1024F000F7E7F8BDA8FDFF1F0C38000080E100E001
:10250000EC37000010B50A4C237B002B02D00020D2
:10251000FFF77AFF6C342378002B02D00120FFF7FD
:1025200073FF044A044913680B40136010BDC04692
:10253000A8FDFF1F34800440FFFF3FFFF7B5602672
:102540004643244B07009B199C7A0093FF2C32D002
:10255000214B82002000D558FEF706FC00282BD026
:102560001C4B2000F3581E88FEF710FC103EB6B23C
:102570000136331A20000193FEF704FC009BDE7A3B
:10258000FF2E08D03000FEF7CFFB3000FEF7FAFB3D
:102590003000FEF75BFC2422AB7807219343AB703D
:1025A0006B4638009A88FFF756FD2000FEF7BCFB0B
:1025B0002000FEF74BFCF7BD2000FEF7C1FB002812
:1025C000F6D02022AB7820009343AB70FEF7C2FB1D
:1025D000EBE7C046A8FDFF1F0C38000010B5012036
:1025E000FFF7ACFF10BD10B50020FFF7A7FF10BD2F
:1025F00060234343F0B5234A85B0D518EC7A060032
:10260000FF2C35D09B582049800041581B88200062
:1026100001910293FEF7BAFB03902000FEF7A4FBA2
:1026200007002000002F25D0FEF7ACFBAD7A07276E
:10263000FF2D08D02800FEF777FB2800FEF706FCE8
:102640002800FEF79FFB2422019B20009B789343E8
:10265000019A9370FEF768FB2000FEF7F7FB029AE1
:10266000039B103AD21A92B239003000FFF7F3FC04
:1026700005B0F0BDFEF764FB0028F9D02000FEF79E
:1026800069FBE0E7A8FDFF1F0C38000010B5012032
:10269000FFF7AEFF10BD10B50020FFF7A9FF10BD7A
:1026A00010B50020FFF714FD10BD10B50120FFF795
:1026B0000FFD10BD0223F0B50B4A0C4E14780F0429
:1026C0002343DB00F518686050780500691E8D41D2
:1026D0008821AD0139432943F15001235C40434037
:1026E00014705370F0BDC04668FEFF1F00F8FF1F56
:1026F000F7B51C4843880093009A8388D21A92B297
:10270000111C402A00D940218268057B944606228C
:102710006646154F2A43D200BC18F6186660447B03
:1027200089B22600701E8641B001019088200E04F7
:102730003043019E5B183043B8500099094A9BB260
:102740009380994205D86146AB00D31819610023E4
:10275000936001235D405C40137E15730133547315
:102760001376F7BD68FEFF1F00F8FF1F084A002020
:10277000537E917E994208D00133DBB2272B05D8D6
:102780005376537E034A9B00985870470023F7E71F
:1027900068FEFF1F40FFFF1F10B5104AD37E022BBB
:1027A0000FD1137E012B10D9937E0133DBB2272B7F
:1027B00000D90023517E994204D009499C00605001
:1027C000937610BDFFF748FAFBE7038890605380CB
:1027D00000239380FFF78CFFF3E7C04668FEFF1FDE
:1027E00040FFFF1F10B5FFF7C1FF002802D0FFF721
:1027F00033FAF8E710BDF7B5002607000D202B4C83
:102800002B4B2C4D63602C4B2C4AE3602C492D4BF9
:1028100022602E70A3606E7026616661A661E6611B
:102820000870286926622E73A6626E73266366623C
:10283000E6626663E663A66300920193B04202D04B
:10284000FFF70AFA2E616869002803D0FFF704FA3F
:1028500000236B61A868002803D0FFF7FDF900236F
:10286000AB6000262E76FFF7BDFF0523012F00D0B9
:102870003300154A13702A00002320326264009A44
:102880002B772264019A6B776035A264E564236537
:102890006365E365A3650922012F00D01A000B4B85
:1028A0001A7001220A4B1A70F7BDC04600F8FF1FCC
:1028B000E0FFFF1F68FEFF1F20000020880040008F
:1028C000C0200740C8004000C4200740C82007407F
:1028D00060000020F8B584088D4EE400A3599B06E3
:1028E0001B0F092B00D1DCE00D2B05D0012B00D0F4
:1028F0007FE0884BA3517CE0874D3319280059684D
:102900000822443000F094FE824B0127A35100249A
:10291000AB1D3461DB8FB461804A814E7770934286
:1029200012D8013A93422DD2822B00D168E005D80B
:10293000802B5FD20F227B4B1A7057E0A022D2006F
:102940009342F7D1230039E090221201934200D143
:1029500076E00BD8803A9342ECD12B004C331A78B6
:102960006B1CDA773B002C00203427E06E4A9B1862
:10297000012BDFD82B000A33DB8F042B00D075E04E
:102980006A4C0EE02B000833DA8F2B0068480A33BC
:10299000D98F684B824207D16748814204D12C000D
:1029A000283423780AE00C335C68002CC2D01888E5
:1029B0009042F8D158888842F5D11B7A2A000C320F
:1029C000D28F161C9A4200D91E1CB7B2402F00D9D4
:1029D0004026B6B231002000A419BE1BB6B2FFF7E4
:1029E00069FE311C002E46D13F2F47D80122534BA0
:1029F0001A70F8BD6B1CDC77AB1CDC770223B2E7E6
:102A00002B007F220A33DB8F1340F27E022A13D081
:102A1000002B00D08EE700216A1CA81CD177C1775B
:102A200040499B005B1819782C000223203419427E
:102A3000C4D00121D177C1E7032B00D97AE7EAE7B7
:102A40002B000833DB8F012B00D973E72A00D8B2A3
:102A50004C3210705A1E93410133F376FFF7CBFED0
:102A60002B00543377702C651C806BE7052B00D04E
:102A700068E7334C95E7402E00D940218FB23900EA
:102A80002000FFF717FEF11B89B2002901D13F2E6C
:102A9000ACD9402E00D94026A4192C655435298084
:102AA000A4E71D4C276D002F1BD0230054331D8835
:102AB0002E1C402D00D94026B6B238003100FFF759
:102AC000F9FD2800402D00D940202300A91B89B220
:102AD000543338181980002902D13F2D00D808003E
:102AE0002065A023A21DD28FDB009A4200D080E790
:102AF00022000832D38F1349DBB20B70D38F002B27
:102B000001D1074AD37600220634E28771E7C04636
:102B100000F8FF1FC8004000E8FEFF1F810600000C
:102B200068FEFF1FC020074040DDFFFF10FAFF1FB7
:102B300003030000E038000009040000942007406F
:102B400038FAFF1F98200740074B0020DA7E022A40
:102B500009D11A7F08231343044ADB009958090658
:102B600001D4D3185868704768FEFF1F00F8FF1F94
:102B7000094BDA7E022A0BD11A7F08231343074A36
:102B8000DB009958090603D498588001800D7047DE
:102B900001204042FBE7C04668FEFF1F00F8FF1F10
:102BA00030B50B490B4D487F0C7F03005A1E9341F3
:102BB00040225B421340084A9B1808222243D2005D
:102BC000535101235840634048770B7730BDC046CE
:102BD00068FEFF1F00F8FF1F8800400026490322FF
:102BE0000B00283310B55A700023C45C5A1CD2B2B3
:102BF000002C38D18023283152000A701F4ADB0292
:102C000011680B43136080221D4B1A701A7852B260
:102C1000002AFBDB1B4A1C48110AC9B20170110CC7
:102C20001A48C9B201701A49120E0A70FF221949D6
:102C30000A7019490A7019490A701978BF3A0A438B
:102C40001A7001230021164A1370164A1170164A91
:102C500013708023154A5B041360154A1360102219
:102C6000144B1A7010BD5B00CB182833A4B29C70B3
:102C70000024DC701300B8E7E8FEFF1F3480044036
:102C80000C21074000F8FF1F9C200740B0200740A0
:102C9000B4200740802007408820074010200740CC
:102CA00094200740002107408420074080E200E094
:102CB00000E100E008210740F7B50422394E3378DF
:102CC0003400DBB2134200D0327008251D403BD0E7
:102CD000354B1878C0B2040904D1FFF7FBFD082377
:102CE0003370EAE7012C28D18008304FC3000193EC
:102CF000DB599B061B0F092BF1D104402C4DA4007E
:102D00002C192069002803D0FEF7A6FF00232361B9
:102D1000019BAC68FF1800237B602B7E013B2B7668
:102D2000002C07D1FFF722FD0028D8D00388A86027
:102D30006B80AC80FFF7DCFCD1E7022CCFD18008A0
:102D40001A4BC000C358CAE70126334214D00223ED
:102D5000184F28003A7813433B70FFF74CFDFF23D0
:102D6000154A1370154A23701570154A13709F2267
:102D7000144B1A703E70F7BD5AB2002A04DA0D21C6
:102D8000114A11708022227002210B4204D00A489D
:102D90000278D2B20270217010221342EBD022705E
:102DA000E9E7C046802007409020074000F8FF1F59
:102DB00068FEFF1F942007408820074098200740A6
:102DC0008C20074084200740C020074030B50024F5
:102DD0000139A14201DC88B230BD0D19EB0F5B193E
:102DE0005B109D0045196D88954201D25C1CF0E78F
:102DF0001900EEE770B50F25074C002A00D170BD11
:102E0000013A92B28B5C1E092B40A65DE35C067012
:102E100043700230F1E7C0464039000010B5FDF7BD
:102E20004BFDFDF7F9FEFDF773FCFFF759F8FEF7D0
:102E3000A1FCFFF767FBFFF7D5FC10BDF8B5070055
:102E400010200E0015001C00FEF7D6FE00280BD047
:102E5000102303800E3B8370069B07818680C5800C
:102E60004481C360FFF798FCF8BDF0B585B00293CC
:102E70000AAB1B88070003930DAB1E880091350039
:102E80001035ADB228000192FEF7B6FE041E1BD02D
:102E9000042383706B461B78058003726B461B7A94
:102EA000878043726B469B8943810B9BC3606B4653
:102EB0009B88C380002E04D032000C99103000F0A3
:102EC000B7FB2000FFF768FC05B0F0BD1FB51C0084
:102ED00000230194039302930093FFF7C6FF1FBDE5
:102EE00037B50B780500002B02D000230B7037BDDF
:102EF00003681888FEF780FE2968041E04D00A883B
:102F000000F096FB2C60F2E78B788888CA88012B4A
:102F100006D10100009423000220FFF78FFFF1E7A4
:102F200002230521FFF7D2FFECE7F0B50B2685B0B1
:102F30006E44317083780400012B00D0CCE003880C
:102F4000142B00D06EE0037A012B5DD1477A012F5C
:102F500021D1FE22018AC3680A40DBB23940807A5F
:102F60008025FDF77DFD6D00228A0543ADB200236B
:102F70003A4202D1FDF70CFE83B200202900E2881C
:102F80000090FFF75BFF3378002B02D02000FEF7A4
:102F900063FE05B0F0BD022F0ED1C368018A9AB25C
:102FA000807AFDF78FFA8025FF280FD101200023BA
:102FB000E288A1880093E4E7032F0CD10C23C15EC3
:102FC000807AFEF74BFFFF28F0D0C025AD00054307
:102FD000ADB20023D1E7042F09D1018AE268807ADB
:102FE000FEF789FAFF28E1D08025ED00EFE7052FF5
:102FF000DCD1028A418AE3684089FFF792F8FF2812
:10300000D4D080252D01E2E7022B2DD18088FD331D
:1030100002009A43130080225200934204D1C0B2AE
:10302000FDF7DEFC0020C2E780229200934203D12C
:10303000C0B2FDF783FAF5E7C0229200934203D1B4
:10304000C0B2FEF731FFEDE78022D200934203D1F8
:10305000C0B2FEF70FFBE5E7802212019342A5D133
:10306000C0B2FFF7D1F9DDE7032B02D1FFF7D6FE9F
:10307000D8E7042B11D1437A012B05D1028AE168EC
:10308000807AFEF7ABFECDE7022B8FD1C368028AB0
:10309000D9B2807AFEF71CFEC4E7052B00D085E785
:1030A000437A012B03D1FEF7F9FD00250AE0022B3C
:1030B00002D1FEF7FFFDF8E7032B09D0042B09D05E
:1030C000002001250090E288A1880023280058E70D
:1030D0000120EAE75020E8E7032B00D053E70388FC
:1030E00003900F2B00D84EE78088FF210300227A3F
:1030F0008B43012A23D15218934216D16389002BA6
:1031000005D1E368C0B2D9B2FDF790FC3BE780225D
:103110008B431201934200D035E703A83100FFF73B
:10312000DFFE0398FFF758F92DE7C0229200934283
:1031300000D028E7C0B2E168FEF7E4FD23E7022AE9
:1031400016D1FE3293420AD1C0B2FDF721FD039998
:103150000300CA8888880121FFF7B8FE13E78022A0
:103160009200934200D00EE7C0B2FDF71FFA0AE7C3
:10317000032A18D18022D200934207D103A831003C
:10318000FFF7AEFE0398FEF7FDFAFCE6802212017F
:10319000934200D0F7E603A83100FFF7A1FE0398A1
:1031A000FFF702F9EFE6042A08D18022D200934209
:1031B00000D0E8E62000FEF7FDFAE4E6052A05D196
:1031C0008022D200934200D0DDE6D7E7062A00D065
:1031D000D9E68022D200934200D0D4E603A8310081
:1031E000FFF77EFE0398FEF71DFCCCE6F0B53D4CE4
:1031F00085B02378002B05D00023237072B6FFF72B
:103200000DFE62B6FFF7B4FC0700051E52DD72B674
:10321000FFF79AFC63880600002B3CD0012B0CD1F1
:103220000078A3880002C01880B2A080FEF7E4FCFA
:10323000A060002801D0A38803806388BDB20193F9
:10324000A3880393019B039ADB192F00934203DDAC
:103250001300019A9F1ABFB2A3680293002B05D0F6
:10326000019A310098183A0000F0E2F9019BED1B39
:10327000F619DF19039BBFB22DB26780BB420AD19A
:10328000029B002B03D001211800FFF74EFE002304
:103290006380A380A360012D04DC08D133786580AE
:1032A000A38004E03788BD420EDB072F04D8FFF768
:1032B00077FC62B605B0F0BD30000021ED1BFFF7D2
:1032C00034FEF6192DB2E6E73800A780FEF794FC2D
:1032D0006580A0600028EAD02A00310000F0A8F93B
:1032E000E5E7C0466000002010B5FDF737FA10BDD5
:1032F000002243088B4274D303098B425FD3030A35
:103300008B4244D3030B8B4228D3030C8B420DD347
:10331000FF22090212BA030C8B4202D312120902D5
:1033200065D0030B8B4219D300E0090AC30B8B4213
:1033300001D3CB03C01A5241830B8B4201D38B03C1
:10334000C01A5241430B8B4201D34B03C01A524166
:10335000030B8B4201D30B03C01A5241C30A8B42A9
:1033600001D3CB02C01A5241830A8B4201D38B0294
:10337000C01A5241430A8B4201D34B02C01A524138
:10338000030A8B4201D30B02C01A5241CDD2C309AA
:103390008B4201D3CB01C01A524183098B4201D326
:1033A0008B01C01A524143098B4201D34B01C01A11
:1033B000524103098B4201D30B01C01A5241C30889
:1033C0008B4201D3CB00C01A524183088B4201D3F8
:1033D0008B00C01A524143088B4201D34B00C01AE4
:1033E0005241411A00D20146524110467047FFE750
:1033F00001B5002000F0F0F802BDC0460029F7D06A
:1034000076E7704703460B437FD4002243088B4284
:1034100074D303098B425FD3030A8B4244D3030B5B
:103420008B4228D3030C8B420DD3FF22090212BA20
:10343000030C8B4202D31212090265D0030B8B429C
:1034400019D300E0090AC30B8B4201D3CB03C01A86
:103450005241830B8B4201D38B03C01A5241430B61
:103460008B4201D34B03C01A5241030B8B4201D351
:103470000B03C01A5241C30A8B4201D3CB02C01ABC
:103480005241830A8B4201D38B02C01A5241430A34
:103490008B4201D34B02C01A5241030A8B4201D323
:1034A0000B02C01A5241CDD2C3098B4201D3CB01CA
:1034B000C01A524183098B4201D38B01C01A524179
:1034C00043098B4201D34B01C01A524103098B427D
:1034D00001D30B01C01A5241C3088B4201D3CB0068
:1034E000C01A524183088B4201D38B00C01A52414B
:1034F00043088B4201D34B00C01A5241411A00D2FB
:1035000001465241104670475DE0CA0F00D0494263
:10351000031000D34042534000229C4603098B42D3
:103520002DD3030A8B4212D3FC22890112BA030A5B
:103530008B420CD3890192118B4208D389019211DD
:103540008B4204D389013AD0921100E08909C30962
:103550008B4201D3CB01C01A524183098B4201D364
:103560008B01C01A524143098B4201D34B01C01A4F
:10357000524103098B4201D30B01C01A5241C308C7
:103580008B4201D3CB00C01A524183088B4201D336
:103590008B00C01A5241D9D243088B4201D34B0051
:1035A000C01A5241411A00D20146634652415B1093
:1035B000104601D34042002B00D549427047634674
:1035C0005B1000D3404201B5002000F005F802BDB9
:1035D0000029F8D016E770477047C046014B1868BD
:1035E0007047C0464CFBFF1F70B500260C4D0D4CBC
:1035F000641BA410A64209D1002600F0A9F90A4DC7
:103600000A4C641BA410A64205D170BDB300EB5850
:1036100098470136EEE7B300EB5898470136F2E7DA
:103620005C3900005C3900005C3900006039000042
:10363000002310B59A4200D110BDCC5CC4540133B4
:10364000F8E703001218934200D170471970013354
:10365000F9E7FFFF10B5034B0100186800F004F80C
:1036600010BDC0464CFBFF1F002370B5064C050083
:1036700008002360FEF717FA431C03D12368002BD0
:1036800000D02B6070BDC0466C000020818903080B
:10369000103B23131B1A22323A2A0B02010919117B
:1036A0002B330A12A4ACF4FF006006400070064001
:1036B0004840900048C4900091829000000015009E
:1036C000010017000200190003001B0008001D0084
:1036D00005001F0009002100060023000A00260043
:1036E00007002A000C002E000D00320043003600B7
:1036F0000E003A0045003E00120042000F00460056
:1037000013004C001400540015005C001900640004
:1037100016006C001A00740085007C0017008400FD
:103720004F008C001C0098001D00A8005500B80038
:103730001E00C8005600D8002200E8001F00F80054
:10374000230008018F0018012400300125005001DA
:1037500095007001260090019600B0012A00D0016A
:103760002700F0012B001F022C005F022D00BD027C
:103770002E003E0332009F032F00DF0333003E0480
:103780003400BE0435007A0536007B063A003F0758
:103790003700BF073B007C083C007D093D00F40A70
:1037A0003E00F60C7A007E0E3F007E0F7B00F81084
:1037B0007C00F9127D00E9157E00EC19BA00FC1CB2
:1037C0007F00FC1EBB00F121BC00F325BD00D12B06
:1037D000BE00AA35BF00000000F00F4040F00F40CF
:1037E00080F00F40C0F00F4000F10F400090044007
:1037F00000A0044000B0044000C0044000D00440D9
:10380000008003400090034000A003400060074098
:10381000007007408D8A0000CE820000D48A02002A
:103820008B8C0000C784000040A00200D58C0200F1
:103830008C8E0000C886000041A20200C58E0200E6
:10384000000003000100050020000700020009003D
:1038500040000B0021000D0060000F00030012006B
:103860004100160022001A0061001E00040024001E
:1038700042002C002300340062003C000500480098
:1038800043005800240068006300780006008F00A1
:103890004400AF002500CF006400EF0007001E01C8
:1038A00045005F0126009F016500DF0108003C0222
:1038B0004600BD0227003E036600BE0318007904DF
:1038C00047007A0528007B0667007C073800F2086D
:1038D0004800F40A5800F60C6800F70E7800000063
:1038E000000100003AFBFF1F120000000002000070
:1038F0001AFBFF1F20000000010200001AFBFF1F3F
:10390000200000000003000016FBFF1F0400000061
:1039100001030904EAFAFF1F2C0000000203090456
:10392000D8FAFF1F12000000EE030000C6FAFF1FC6
:103930001200000000000000000000000000000075
:103940003031323334353637383961626364656615
:10395000F8B5C046F8BC08BC9E4670473904000064
:04396000F8B5C046B0
:103964002C007000400048006800600034003C00F7
:103974007800580000002000B800E800D000F000F3
:10398400D800FE0070000020081303001033040068
:10399400238406001A44090022640A00010B100063
:1039A400092B11002BA414000A041600122417007A
:1039B40028000000000104000100000000000000D5
:1039C400000157494E55534200000000000000001A
:1039D40000000000000000008E000000000105004F
:1039E400010084000000010000002800440065007C
:1039F400760069006300650049006E00740065008C
:103A040072006600610063006500470055004900CC
:103A1400440000004E0000007B00640030003100D0
:103A2400300062006100390030002D0030003200A7
:103A3400350061002D0034006300390034002D008E
:103A440062003200640062002D0061003100330026
:103A54006600320030003500640034003300370063
:103A640065007D00000012034D0053004600540021
:103A74003100300030002200120357006900720048
:103A840065006B006900740065002C034D00610043
:103A94006E00750065006C00200042006C0065003B
:103AA40069006300680065006E00620061006300E5
:103AB4006800650072000403090409022000010182
:103AC4000080FA0904000002FF00000007058102DB
:103AD4004000000705020240000012010002FF003E
:103AE400004009127E3150000102030150FBFF1F08
:103AF40000000000000000000000000000000000C2
:103B040000000000000000000000000000000000B1
:103B140000000000000000000000000000000000A1
:103B24000000000000000000000000000000000091
:103B34000000000000000000000000000000000081
:103B44000000000000000000000000000000000071
:00000001FF
