:1000000000180020C1000000891A00004D1A0000ED
:100010004D1A00004D1A00004D1A00004D1A000044
:100020004D1A00004D1A00004D1A0000891A0000F8
:10003000891A00004D1A0000891A0000D932000008
:10004000891A0000891A0000891A0000891A000024
:10005000891A0000891A0000891A0000891A000014
:10006000091A0000131A0000952600009F260000C0
:10007000891A0000891A0000891A00009D070000F3
:10008000891A0000891A0000891A0000891A0000E4
:10009000891A0000891A0000BD090000891A0000B1
:1000A000C92C0000891A0000891A0000891A000072
:1000B000891A0000891A0000450C00008B0C000012
:1000C000F8B501F0E4FC454A454B1A60454A464BF9
:1000D0001A60464A464B1A600823464A117819426C
:1000E00002D011780B4313702A22434B43481A70F5
:1000F00000234349434C1A188A4268D30021424BDB
:10010000424A934267D30023414C424A99581951BD
:100110000433C02BFAD1403B00220327FF269C4624
:1001200093083D4910009B005B1831003840C00027
:1001300081401D6801328D43290065468540294371
:100140001960202AECD1354B6A321C60344B1A708E
:10015000344B663A5A707C321A709E3A9979114241
:10016000FCD0102299791142FCD10C219A790A40D5
:10017000082AFBD1053A1A713D325A71203A997911
:100180001142FCD0402299791142FCD02649274ADD
:10019000116020220C211A709A790A400C2AFBD196
:1001A000234A244B1A60244A244B1A600022244B11
:1001B0001A60244B07321A60234A244B1A6062B635
:1001C00003F00AFA01F06AFC01F0C6FCFEE7E5580C
:1001D000043315608FE702C393E7C046300004F094
:1001E00034800440823F0000388004400100000F4A
:1001F0003C80044002D0074000E00740C0F9FF1FE8
:10020000B0FBFF1F54390000B0FBFF1F740000203B
:1002100000F9FF1F0000000000E400E008ED00E02E
:100220000050064000400640000001104480044099
:10023000C0000505048004407FBB000014E000E01E
:1002400018E000E010E000E00000202020ED00E0D9
:10025000FFFFFFFFFFFFFFFFFFFFFFFFFFFFFFFFAE
:10026000FFFFFFFFFFFFFFFFFFFFFFFFFFFFFFFF9E
:10027000FFFFFFFFFFFFFFFFFFFFFFFFFFFFFFFF8E
:10028000FFFFFFFFFFFFFFFFFFFFFFFFFFFFFFFF7E
:10029000FFFFFFFFFFFFFFFFFFFFFFFFFFFFFFFF6E
:1002A000FFFFFFFFFFFFFFFFFFFFFFFFFFFFFFFF5E
:1002B000FFFFFFFFFFFFFFFFFFFFFFFFFFFFFFFF4E
:1002C000FFFFFFFFFFFFFFFFFFFFFFFFFFFFFFFF3E
:1002D000FFFFFFFFFFFFFFFFFFFFFFFFFFFFFFFF2E
:1002E000FFFFFFFFFFFFFFFFFFFFFFFFFFFFFFFF1E
:1002F000FFFFFFFFFFFFFFFFFFFFFFFFFFFFFFFF0E
:10030000FFFFFFFFFFFFFFFFFFFFFFFFFFFFFFFFFD
:10031000FFFFFFFFFFFFFFFFFFFFFFFFFFFFFFFFED
:10032000FFFFFFFFFFFFFFFFFFFFFFFFFFFFFFFFDD
:10033000FFFFFFFFFFFFFFFFFFFFFFFFFFFFFFFFCD
:10034000FFFFFFFFFFFFFFFFFFFFFFFFFFFFFFFFBD
:10035000FFFFFFFFFFFFFFFFFFFFFFFFFFFFFFFFAD
:10036000FFFFFFFFFFFFFFFFFFFFFFFFFFFFFFFF9D
:10037000FFFFFFFFFFFFFFFFFFFFFFFFFFFFFFFF8D
:10038000FFFFFFFFFFFFFFFFFFFFFFFFFFFFFFFF7D
:10039000FFFFFFFFFFFFFFFFFFFFFFFFFFFFFFFF6D
:1003A000FFFFFFFFFFFFFFFFFFFFFFFFFFFFFFFF5D
:1003B000FFFFFFFFFFFFFFFFFFFFFFFFFFFFFFFF4D
:1003C000FFFFFFFFFFFFFFFFFFFFFFFFFFFFFFFF3D
:1003D000FFFFFFFFFFFFFFFFFFFFFFFFFFFFFFFF2D
:1003E000FFFFFFFFFFFFFFFFFFFFFFFFFFFFFFFF1D
:1003F000FFFFFFFFFFFFFFFFFFFFFFFFFFFFFFFF0D
:10040000FFFFFFFFFFFFFFFFFFFFFFFFDEF9FFFF23
:1004100010B5064C2378002B07D1054B002B02D0DA
:10042000044800E000BF0123237010BDB0FBFF1F94
:100430000000000054390000084B10B5002B03D019
:100440000749084800E000BF07480368002B00D1B7
:1004500010BD064B002BFBD09847F9E700000000C9
:10046000B4FBFF1F54390000B0FBFF1F0000000069
:1004700010B50A4B4000C15CC45AC908084B102291
:10048000600707D5186802431A604023054A0B43EA
:10049000136010BD186890431860F6E7C0F9FF1F9D
:1004A0000CB0034000B003403822074B1A60074BE2
:1004B000353A1A60064B023A1A608023054A1B023D
:1004C0001360054A1360704708B003400CB0034046
:1004D00020B0034080E200E000E100E043B270B5EC
:1004E000002B01DA7338C0B2102827D804D10123B9
:1004F00013490C7823430B7000231249CB56002B71
:100500000ED1114B0333DC7FFE2C09D140255F2631
:100510000E4C25600E4D2E6087252560FC24DC776F
:10052000002A0AD00C254C780B1D65435B191A6014
:10053000002201345A6018724C7070BDFF20FCE735
:1005400002D00740CCFBFF1FC0F9FF1F24B00340BF
:1005500000B003400C23F7B59C460027144E0090D2
:100560000C36134B5A78974208DB009B102B04D1B2
:100570000121104A13788B431370F7BD337800992B
:100580008B420DD16146330051430B4C0C3961183D
:10059000083B019101998B4205D1054B013A5A70F4
:1005A00001370C36DDE71C000C3423CC23C3F1E704
:1005B000CCFBFF1F02D00740D0FBFF1F10B5102857
:1005C00007D80E4B0333DA7FFE2A03D1D877FFF723
:1005D0004FFF10BD0A4A130064331B780133DBB2AE
:1005E000072B00D900231100653109789942F0D01A
:1005F000110064326631C8541370EAE7C0F9FF1F76
:10060000CCFBFF1FF8B5344A0400D31CDE7F33490E
:10061000731DDBB2012B54D83148324B1B6807687D
:100620003148DB19066831489B19056830485B1969
:100630000068304D1B189BB22F485B0803439BB2E8
:100640002B602E4B2E4D1B682D68AC462D4D634400
:100650002F682D4DDB192E682C4D9B192D68FD261A
:100660005B199BB25B08034329489BB203601F23BD
:100670000B6004210025274B1960274B03391970A3
:10068000254908000F006530643703783F789F42A2
:100690001ED00133DBB2072B18D803700800653178
:1006A0000B786630C05C0332D077FFF7E1FEEA02D8
:1006B0006B0513436A0013436D0A1D433000256028
:1006C000F8BD164B1D681F230B60D9E70023E4E734
:1006D000FE230332D377EAE7C0F9FF1F00B00340DF
:1006E00048B003404CB0034044B003403CB003402A
:1006F00038B003402CB003400080FFFF6CB00340D3
:1007000068B0034064B003405CB0034058B003409D
:1007100030B0034024B00340CCFBFF1F10B00340B7
:1007200080220D4B120210B51A601F22FE200B4BC7
:100730000B491A600B4B21321A600B4B0331C877FF
:100740001900002264310A70190065311A700A70AC
:100750005A70FFF7A9FE10BD80E200E000B0034030
:10076000C0F9FF1F24B00340CCFBFF1F70B500256C
:10077000094E341D73789D4200DB70BD63682268AA
:100780000133934292411340636002D1207AFFF714
:1007900015FF01350C34EDE7CCFBFF1F07B501A8B1
:1007A000FFF730FFC31CDBB20200012B08D9802009
:1007B0008000104380B2019B0022012102F08EFBD9
:1007C00007BD10B5FFF7EAFF10BDC046002370B5A6
:1007D0001D0001260F4C10491A59002A03D08242ED
:1007E00014D8350019510C33302BF5D12600303692
:1007F000094B22689A4204D10023A06823606368F1
:1008000098470C34A642F3D1280070BD121A1A5131
:10081000E9E7C0463CFCFF1FFFFFFF7F0F4970B5B3
:100820000B6B002B18D10E4A1500C858002802D0B7
:10083000824200D902000C33302BF6D1AA420BD0F1
:1008400002200126074B084C2260186018683043CC
:1008500018604A630E63256070BDC0463CFCFF1FF4
:10086000FFFFFF7F08710340007103408023094AA6
:100870001B0411680B4313600022074B1A60074BDF
:1008800001321A608023064ADB031360054A1360B5
:100890007047C0463C800440007003400C71034028
:1008A00080E200E000E100E0012209490B68934387
:1008B0000B60084B1A608022074BD2031A6000229B
:1008C000064B1A60DA609A615A625A631A6370477B
:1008D000087103400C71034080E200E03CFCFF1F04
:1008E000F8B51D4C1600226B07000D00012A13D12C
:1008F0001A490B6893430B6019491A4B0868104258
:100900001FD11868636B181A01230B60DB1823636F
:10091000FFF75CFF0023236318235F4301219B2F14
:1009200001D939009B3900220C2003005343E758BA
:10093000002F0CD1E150E4186560A660FFF76EFF50
:10094000F8BD626B08481B681018C01ADCE701325A
:10095000042AEAD1F2E7C0463CFCFF1F08710340BD
:100960000C71034004710340FFFFFF7F022370B549
:100970000D4C0E4E23630E4A636B35689B185B1B50
:100980001800FFF723FF3268AB1A15000028F7D1D3
:10099000012208490B6893430B60074B1A602063E0
:1009A000FFF73CFF70BDC0463CFCFF1F04710340D5
:1009B000FFFFFF7F087103400C710340034B10B52C
:1009C0001B68DB0701D5FFF7D1FF10BD0C71034099
:1009D000002210B50E4B9A56904218DA01334000AF
:1009E000C25C18180123447851079C43447009489D
:1009F000C90ED20808589400001980249340064A72
:100A000064048A580460516999435161936010BD30
:100A100074FCFF1FDC370000C837000000220A4BBF
:100A20009A5690420CDA01334000C05C0123420721
:100A3000C00883400548D20E8258002901D0536077
:100A400070479360FCE7C04674FCFF1FC837000086
:100A5000F0B50D0085B01600FF241A2800D97EE0FD
:100A6000404A0027511C00248C46D757BC4238DB33
:100A700001D1611C1170002C09D180213A4F3B4AF1
:100A8000C905396011608021090639601160384A52
:100A90000127125C5107490FD208029201916100AF
:100AA0000391029901982F4AC90001430132600065
:100AB0008154022112185078384388435070029AAA
:100AC0009740002D15D1019B2A4A8B40D25853697B
:100AD000BB43536173071FD4892133071AD488217C
:100AE00018E0610061444978C907C4D50134E4B213
:100AF000BCE719002000FFF791FF019B1D4A9B00F6
:100B0000D25853693B435361012DE3D1A2213307EE
:100B100000D48221490001E01421FF31019B1648D5
:100B20009B00029A1B5892009A181160002D16D152
:100B300030231E4213D00B4B610001335B1802219E
:100B4000587801435970F30601D590252D03B3065B
:100B500002D5A0231B031D4313681D43156020000D
:100B600005B0F0BD74FCFF1F80E200E000E100E092
:100B70007C360000C8370000DC37000000210B4A3B
:100B80000023515688420EDA40000132825C012077
:100B90005307D20890400649DB0E5B581B6903409F
:100BA000581E8341DBB218007047C04674FCFF1F1B
:100BB000C837000070B58021002400200F4A104D76
:100BC000145749040132A04201DBFF2012E0430028
:100BD000D6187678B6070ED59B5C5E07F60E76596A
:100BE000DB089B00F3181E680E4204D01A68C0B2DE
:100BF0001143196070BD0130E5E7C04674FCFF1F6A
:100C0000DC37000010B5002400220C4B9A569442A9
:100C100009DB00221A708022094BD2051A6080225B
:100C200012061A6010BD62009B189B78DB0702D584
:100C3000E0B2FFF7CDFE0134E6E7C04674FCFF1FCB
:100C400080E100E070B580256D00FFF7B3FF040080
:100C5000FF2809D0FFF792FF2C4303000022A0B227
:100C6000012102F03BF9F0E770BD10B5FFF7EAFF94
:100C700010BD10B5FFF7E6FF10BD10B5FFF7E2FF9E
:100C800010BD10B5FFF7DEFF10BD10B5FFF7DAFF9E
:100C900010BDC046154810B50368002B0AD1144A90
:100CA00001331168FF330B4313600223114A1168AB
:100CB0000B43136000230122016814000C400ED185
:100CC0000A4302600C4AD8B21B019B1880225204CE
:100CD0009A6080229205DA601C605C6010BD01336E
:100CE0005200042BE9D1FF20F8E7C046ACFCFF1FFF
:100CF000408004403C80044000810040044B0001DF
:100D0000C0188023C268DB051343C3607047C04628
:100D100000810040034B0001C018C368024A134021
:100D2000C360704700810040FFFFFFBF034B00011D
:100D3000C0188068C001C00F7047C04600810040E5
:100D4000054B0001C018E0238068DB051840431EF6
:100D50009841C0B27047C04600810040034B00017B
:100D6000C01880680002000A7047C0460081004039
:100D70000300084A10339B0099504311064A9B0018
:100D800099181F2210401E3A82400A6003495B18DE
:100D90001A60704700F9FF1F80E200E000E100E008
:100DA0004311044A9B009B181F2210401E3A8240A8
:100DB0001A60704780E100E010B50400FFF7F0FF13
:100DC000104A23019B18802252049A6080229205C7
:100DD000DA6000221A605A600B4BE3181A70012384
:100DE000A3400A4A1168994311600AD1084A094987
:100DF00013680B401360084A04311368FF318B43BA
:100E0000136010BD0081004000100240ACFCFF1FC9
:100E100040800440FFFEFFFF3C800440034B000184
:100E2000C01880235B0483607047C0460081004087
:100E300010B5FFF7F3FF10BD10B5FFF7EFFF10BDC2
:100E4000044B0001C0188023C2681B061343C36013
:100E50007047C04600810040034B0001C01880234A
:100E6000C2681343C360704700810040084A030111
:100E70009B18802210B5DC6892052243DA60054B8E
:100E8000C0180023037080331943017010BDC046A1
:100E90000081004000100240054B0001C0180160B5
:100EA000C368044A1A4080235B031343C36070473E
:100EB00000810040FF0F8EF0064B0001C01801605A
:100EC000C36805491940A023DB030B43C36082605C
:100ED0007047C04600810040FF0F8EF0054B0001B7
:100EE000C0184160C368044A1A4080239B02134320
:100EF000C360704700810040FFF0F0F0064B000136
:100F0000C0184160C36805491940A0231B030B4367
:100F1000C36082607047C04600810040FFF0F0F07F
:100F200020220A4B8000C3589978114203D0002038
:100F300094329A707047D878104001D00620F9E7B3
:100F4000B02199709B781342F8D0F3E798360000EF
:100F5000602343430F4A30B5D3181C00583359342B
:100F60001D78217800238D420FD00131C9B2132999
:100F70000DD8217060234343D318593319781823AF
:100F800058434018023080001358180030BD002329
:100F90002370EFE7B0FCFF1F60231A00424370B5D7
:100FA0000E4DAA18583212780132D2B2132A00D943
:100FB00000224343EB181C0059342478944208D093
:100FC00018244443A4180234A400583329511A7039
:100FD00070BD080000F03CFEFAE7C046B0FCFF1F01
:100FE0006021020041430420054B10B5C8545B1832
:100FF000DB6D013858430349FFF772FC10BDC04652
:10100000B0FCFF1F2D180000F0B560244443104EC3
:1010100089B0371905007868069107928388049390
:10102000C388059300F014FE002301227B60A255C3
:10103000039302930193079B059A00930221069B59
:10104000049801F01AFF2800FFF7CAFF09B0F0BDAD
:10105000B0FCFF1FF7B5602406210279244B5443EE
:10106000E1541C1921000023606063805B31087823
:1010700001210D001F4B80000833181843788C465F
:101080009B06DB0E9D401C4E9B00995901934D60C1
:1010900001788906490F89008F597B691D430368D0
:1010A0007D615D036346ED0EAB400088AD00C00579
:1010B000400F800087597E699E437E610F4E019BE1
:1010C0008959CB18822149001960835909495D1952
:1010D00080235B002B6093005B58002199705021A6
:1010E00099713E39D9700649E06DFFF7F9FBF7BDFC
:1010F000B0FCFF1F98360000C8370000DC37000046
:10110000051100006021F0B5404F01263D00C2B23C
:10111000514385B0C3B200933D4B083559184888F8
:10112000013080B248805B310B789B00EB18196866
:10113000384D4903C90E01911988019CC905490F11
:1011400089000391495909698C463100A1406446E0
:101150000C40029417D1112815D831005B789B06FA
:10116000DB0E99409B00EB5830420AD15960602356
:1011700053432749CC18E06D2749FFF7B1FB05B071
:10118000F0BD9960F3E780219200BA5891706E39F2
:10119000D170009A002A36D080229200E0271F49A1
:1011A00058780A601A781E49642492068C46520FB9
:1011B00092008006C00E515886008D1999785B8880
:1011C000FF009B00490139401F4001232143296052
:1011D00065468340019927438900019103996D5821
:1011E000019969180F600B497058515883604A691A
:1011F00000989A434A61029900224B425941C9B270
:10120000FFF702FFBBE780225200C7E798360000D5
:10121000B0FCFF1FC83700000511000080E200E0AD
:10122000DC370000F8B560244443094F06003D193F
:101230006B886868103341724281038001F0A4FA20
:1012400000236B600133E3553000FFF7C9FEF8BDA2
:10125000B0FCFF1F384BF7B58200D55860234343DD
:10126000364A0700D61832005A321478334A200022
:101270009B5C0193022B36D1FFF758FD00280FD05D
:10128000F0232000AB70FFF7C9FD2000FFF7D4FD6D
:101290006B461B79737073681B88113B738021E068
:1012A000EB78DB0601D40723019312232022EB7095
:1012B000AB7820009343AB70FFF7B0FD2000FFF741
:1012C000B7FD60237B431D4A2000D3185B681D884F
:1012D000FFF744FD103DADB22A1A92B201993800D1
:1012E000FFF792FEF7BDFFF721FD002809D0E823A4
:1012F0002000AB70FFF792FD2000FFF79DFD022359
:10130000C8E712232022EB70AB7820009343AB7028
:10131000FFF784FD2000FFF78BFD736820001D8818
:10132000FFF71CFD103DADB2013D2A1A92B2072114
:101330003800FFF777FFD5E798360000B0FCFF1FB5
:1013400010B50120FFF786FF10BD10B50020FFF794
:1013500081FF10BDF7B50779234BBA00D45850234D
:10136000A279602513432022A371A3797D4393437F
:10137000A3711223E3701D4B1E3AEA545D19012339
:101380006B700023686006006B803800FFF7C8FDB3
:10139000011E04D000223800FFF736FEF7BD2B00F7
:1013A0005A331F780193FF2F1AD03288103A92B225
:1013B000032A15D9310038001031FFF77DFD3800C0
:1013C000211DFFF78BFD03236B70EE33A370019B90
:1013D0001878FFF793FC73895B00DBB22371DDE7BC
:1013E000F023A370F7E7C04698360000B0FCFF1F5B
:1013F000F8B5602403224443174B0027E2541C191C
:101400000123678063700E000500FFF789FD01006E
:10141000B84204D03A002800FFF704FFF8BD0F4B94
:10142000AD00ED5823005A331F78FF2F0BD0291D34
:101430003800FFF731FD616838000A881031113A31
:1014400092B2FFF75BFD0121F02376000E43F6B266
:10145000AB702E71E2E7C046B0FCFF1F983600006B
:10146000F0B5103295B285B0060028000F0000F0EC
:10147000BFFB041E0FD10390029001900090052342
:1014800030003A00032101F0F8FCF0B2FFF7A8FDAC
:10149000200005B0F0BD04238370013B05808680E9
:1014A000C7800372F4E770B504008088A289E188E0
:1014B000C5B2FFF7D5FF60226A430B4B9B185860FB
:1014C000002810D0094BAA00D3585022997928003F
:1014D0000A4320219A719A798A439A711222DA700A
:1014E0006189FFF785FF70BDB0FCFF1F98360000D3
:1014F0007047FF23F7B500920193022800D995E0C9
:1015000060254E4F80003818047A4D4B6407640FF5
:101510006543EA5C002A00D088E00132EA54009971
:1015200048485D19019401F0DBFE474BE8651968F6
:101530004022002C00D092180A431A60A300FD58E4
:1015400020236B7100232B70EB719C4200D16FE064
:101550003E4E009B58081900801901F0C1FE82B26E
:1015600038004721143001F039FC80003818037D21
:1015700004206B70354B9E4203D03549300001F09A
:10158000AFFE8023C0B2A871AB706E3BEB70002C35
:1015900050D0EF33FF3360262E4A664313602E4A45
:1015A000E0251360264B64209E1933005B331A78C4
:1015B000224B920008339B181A7859789206274FCD
:1015C000520F92008906D259C90E890051189A7893
:1015D000ED0052012A4002430A6019881A68C905C1
:1015E0005B88490F89005203C9599B00D20E1D40E8
:1015F000920005438A181560FFF74CFB5A36050028
:101600003070FF2812D0FFF727FC1549002C00D0BE
:1016100014492800FFF7ACFB2800FFF711FC21005C
:101620004C1EA14128001631FFF720FC0198FEBD99
:101630000D4E8EE780235B00ADE7C0469836000074
:10164000B0FCFF1F40420F0034800440006CDC02FD
:10165000001BB70080E200E000E100E0DC370000A2
:101660004B1300004113000000366E01F8B5040072
:1016700001286ED860234343364D5A5D002A68D056
:10168000EB185B3334491E780831B6008E19062AF0
:1016900010D17378053A9B06DB0E9A402F499B00C8
:1016A0005B589A6033789B065B0F9B0059584B69D7
:1016B00093434B61602300226343EA54EB185A7052
:1016C0008023944243D09B00254A136060236343E8
:1016D000EB185A331878FF2801D0FFF76DFB00276D
:1016E0003278737892061F49520F92009B06525827
:1016F000DB0E9B00D31832881F60D2053368520F6F
:1017000092005B035258DB0E9B00D318124A1F60F5
:10171000A300D35850229F709A713E3ADA7060232A
:101720006343ED18686800F093FA0F4B6F60196817
:101730008122BC4200D1412252420A401A6020005C
:10174000FFF706FC002804D000F082FAF7E75B0000
:10175000BAE7F8BDB0FCFF1F98360000C83700009C
:1017600080E100E0DC3700003480044010B5002048
:10177000FFF77CFF0120FFF779FF10BD10B503795B
:10178000012B02D900F064FA10BD60225A430649C9
:10179000525C012A04D001001800FFF7FDFBF3E7BB
:1017A000FFF7D8FDF0E7C046B0FCFF1F70B5057924
:1017B0000400012D12D860236B430A4A9B5C012B65
:1017C0000DD0008800F014FA061E07D021002288F0
:1017D00001F026FF31002800FFF7DEFB70BDFFF7A8
:1017E00062FEFBE7B0FCFF1F70B5602506004543B5
:1017F0000D4BEB5C012B00D070BD3000FFF7A8FB58
:10180000041EF9D0037A042B05D1FFF74CFE20000B
:1018100000F01EFAECE7062B02D1FFF71BFCE7E70E
:10182000FFF798FDE4E7C046B0FCFF1F020060230D
:10183000D2B253430C4970B55C5CC0B2042C0DD1DC
:101840000A4895002858802501345C54CB188570CF
:10185000D86D07496043FFF743F870BD01225A5421
:10186000FFF7C2FFF9E7C046B0FCFF1F9836000043
:101870002D180000624B8200F0B5D6586023434318
:1018800085B0F278019301995E4B05005C18C95C44
:10189000D2B26778022954D1D3060CD401231A405E
:1018A0001AD0C9189F4206D0C918032F03D16188E6
:1018B0004B1E994103311223F370FF293DD02022A2
:1018C000B37828009343B37060236B434D4AD31819
:1018D0005A88FFF799FB30E0012F05D163686170EA
:1018E0001B7C3371FF21E6E760686388078801335A
:1018F000103F9BB2BFB26380BB4202D2C018037CD0
:10190000EFE7037A032B1AD0F170C388878802931C
:1019100043898689039300F09BF90121019A394B91
:101920003800D15432000299FFF79AFD6060002818
:1019300003D003992800FFF75BFD05B0F0BD11004F
:10194000B9E7032959D160680388103B9BB2019322
:10195000012F26D110201040844663460220002B20
:1019600036D160463A4233D1019B032B0CD9220079
:101970005A321078FF2807D0E1236170B370FFF767
:10198000BDF93379FF2023E0602202216A431D4B19
:101990009A18019B5170E022012B00D80832B270D6
:1019A000EFE7019B61889A1E914201D1E822B27053
:1019B000019B6022013B4C1C4018994216D1902398
:1019C0006A43B3700F4B9A18548033790374002024
:1019D0001223F370FF28B0D04E336B43094A010045
:1019E000D3185A882800FFF71DFCA6E76A43054B69
:1019F0009A18548033790374C4E71223F3709CE778
:101A000098360000B0FCFF1F10B50020FFF732FF32
:101A100010BD10B50120FFF72DFF10BD10B50379E3
:101A2000012B02D900F014F910BD60225A43064977
:101A3000525C012A04D001001800FFF7ADFAF3E769
:101A4000FFF708FBF0E7C046B0FCFF1F70B580252C
:101A50008026ED02F6000B4C23682B4201D001F0EA
:101A600033F92368334201D000F00EF823681B05D8
:101A700001D500F009F82368DB04ECD500F004F888
:101A8000E9E7C0463480044010B5FFF7DFFF0022CD
:101A9000014B1A607047C0460081044070470A49F4
:101AA000030010B50868002B0BD06A46074CC3181A
:101AB0001219934206D301F089FD0C230360012023
:101AC000404210BD0B60FCE7E4F9FF1F00FEFFFF82
:101AD0000020704701204042704780239B01002076
:101AE0004B60704701207047012040427047FEE77D
:101AF000FEE7007843425841704701230370704766
:101B0000EFF31380002821D1EFF31083002B19D1BC
:101B1000EFF30582002A16D00F2A0BD91300103BD1
:101B20000C499B089B005B1803210A408A401B68F4
:101B3000D340DBB2EFF31182002A02D0934200D9E6
:101B400013001800704780235B00F3E70120404238
:101B5000F8E7C04600E400E0002110B5080086B0B8
:101B600000F026F8FEF782FE00F03AF9FEF79CFC42
:101B7000FFF7BEFC0C4B02221B6801AC00936B46C6
:101B80002000991801F03EF9084B02A81B680422B6
:101B90006946009301F036F900232000237301F019
:101BA00027F801F01BFBFCE75C80044060800440E8
:101BB00010B50C0000280CD1002911D16B46094A40
:101BC00014681C1B084BE41807239C43200001F0F9
:101BD00039FD00234360054B04601C60586010BD54
:101BE0000060FFDEE4F9FF1FC0FDFFFF70FDFF1F77
:101BF0000323012170B50025C21C9A43134B141D09
:101C000058684942002810D14B1C0DD010001030EC
:101C10006B68814213D2180059686960041D002165
:101C2000200001F006FD200070BD0668B44203D814
:101C3000B14201D91D00310003004068E2E7196894
:101C4000091B581819600460E8E7C04670FDFF1FC3
:101C500010B5002817D0043802680D4B59680029C8
:101C600001D0884210D884188C4203D10C6849688E
:101C700012190260416019685C18A04206D152181E
:101C80001A6042685A6010BD0B00E7E75860FAE737
:101C900070FDFF1F0020044B5B68002B00D17047D4
:101CA0001A685B688018F8E770FDFF1F0020054B7D
:101CB0005B68002B00D170471A68904200D2100078
:101CC0005B68F6E770FDFF1F10B5022803D80028F7
:101CD00002D1052902D910BD0129FCD8242493077B
:101CE00000D40434044B8000C358C90059180023A1
:101CF000CB60CC60EFE7C046F037000070B5092834
:101D00001BD80E4B80001B185C780D4BE506C150AC
:101D10000020AD0F64090914814207D06A009B18A6
:101D2000188D01304843074901F064FB064BAD00B4
:101D3000EB580134E4001C19A06070BDE8F9FF1FE6
:101D400078FDFF1FFF7F0000F03700001D4B70B5CE
:101D500004004808C018160001F0C2FA80220023CF
:101D60005202904228D8002800D10130164D013887
:101D70006200AA1880B2108507221340F2071FD410
:101D8000082200261343114AA1008A5816605660A3
:101D900090601360B200A9584B1C09D00C4B9B18E3
:101DA0005B78DB069B0F9C4202D1F0B2FFF7A6FFE7
:101DB00001360A2EEED170BD0133DBB24008D0E708
:101DC0002822DEE7006CDC0278FDFF1FF037000000
:101DD000E8F9FF1F10B5022801D8FFF7B7FF10BDC3
:101DE00070B52822FF211748F42601F022FC0022BA
:101DF00000242825760031001000FFF7A7FF124BC2
:101E00003100DC602200DD6001205C615D61DC612D
:101E1000DD615C625D62DC62DD625C635D63FFF715
:101E200095FF0A4B3100DC602200DD6002205C611E
:101E30005D61FFF78BFF064BDC60DD605C615D611F
:101E400070BDC04678FDFF1F008003400090034036
:101E500000A00340F8B500240F4EA700F519AB7899
:101E6000834213D1E4B22000FFF748FFBB5D0B496A
:101E70005A07D20E52580421DB089B00D3186A7807
:101E80005207520D0A431A602000F8BD01340A2C93
:101E9000E3D1F534F8E7C046E8F9FF1FDC3700006E
:101EA00010B5092811D8094B8400E35C08495A078A
:101EB000D20E52580021DB089B00D3181960FFF79F
:101EC0001DFF0122034B5242E25010BDE8F9FF1FF3
:101ED000DC37000078FDFF1F10B50024054BA20081
:101EE000D358013302D0E0B2FFF7DAFF01340A2CF5
:101EF000F4D110BD78FDFF1F602343430D4A30B578
:101F0000D318597A1D7A00248D420ED00131C9B2FE
:101F100013290CD8597260234343D318597A1823D4
:101F200058434018043080001458200030BD002170
:101F3000F0E7C046A8FDFF1F60231A00424370B5BA
:101F40000C4DAA18127A0132D2B2132A00D90022FB
:101F50004343EB185C7A944207D018244443A418F6
:101F60000434A40029511A7270BD0800FFF770FEF6
:101F7000FAE7C046A8FDFF1FF7B50500807AFF28E5
:101F800002D00021FEF74AFD602102242A7922486E
:101F9000514343180D500021A2409980D9801F4918
:101FA0001C7354582A889E7ADF7A1300103B9BB228
:101FB0000193FF2E2AD0032B28D92900113A92B27F
:101FC00011313000FEF778FFA11D3000FEF786FFCB
:101FD000A11D3800FEF760FF2900019A103138007A
:101FE000FEF78CFF0123202221781142FCD02A7CAD
:101FF000A271002B09D02423A27838001343A370C8
:10200000FEF77CFE3000FEF779FEF7BD8022E37814
:102010001343E3700023E6E7A8FDFF1FFC37000031
:102020007FB50400017B0079FEF7F8FC2000E6880C
:10203000A588FFF70DFE00233200280003930293CA
:1020400001930093042100F018FF7FBD6023F0B5D9
:1020500043431C4C89B01D590792AB880600059379
:10206000EB880F000693A87AFF2802D00121FEF723
:10207000D5FC2800FFF7ECFD602200237243A3503B
:10208000A4180122A3802273E38003930293019397
:10209000079B069A009302213B00059800F0EDFE95
:1020A0003000FFF729FF002804D0037A032B03D167
:1020B000FFF762FF09B0F0BD012BF1D1FFF7B0FFD0
:1020C000EEE7C046A8FDFF1F114B8200D3586022E7
:1020D00070B542430F4D19785459AD18E9889E796F
:1020E0006218013116748AB2EA802588103DADB2BB
:1020F000A94207D17F24D9782140D9700021FFF768
:10210000A5FF70BD61181A780A7C9A71F9E7C0467C
:10211000FC370000A8FDFF1F7047F0B50D0085B02B
:10212000C1B202930E293CD014293CD0FF240D29C2
:1021300000D004E10021000A072836D0002836D05C
:1021400006000B3E741EA6417642F6B2152830D02A
:10215000FF24A64200D1F2E0002684488C00B7009C
:102160000394C7190419A47ABF7D64077F07A40FDD
:10217000BF0FA74213D1EDB2FF2D25D0082D1AD0E5
:10218000012D00D1DEE02F000C3F7B1E9F417F42DE
:10219000FFB2052D00D1D7E00025FF2F0CD1FF2481
:1021A000CDE00121C7E70221C5E70126D5E70226D8
:1021B000D3E70326D1E70125AF00C019243080788A
:1021C0004007800FA042EAD160206043684F381872
:1021D000077BBC46002FE2D1417366490137077384
:1021E0008673C5730F688020002C00D1AEE0000418
:1021F000384308600C205D4FA100C959104001917F
:102200005821082804D00C2800D0A9E0042001435C
:102210000198C170920701D5402294466146019A07
:102220009170002C00D193E0534A029BB6005808ED
:102230001900801801F054F882B238002821343097
:1022400000F0CCFD80003818838E019ADBB2537009
:10225000039B4A48F9180A894B7AD205520F92001B
:102260009B061258DB0E9B00D318E0228968D2002F
:102270008909BE1911401960B18A737DC905490FDA
:1022800089009B060958DB0E9B00CB1871698909F0
:1022900011401960FF2D11D0AD007F193B00BE8C9D
:1022A0002433F6055B78760FB6009B063158DB0EBB
:1022B0009B00CB18796A89090A401A608023002C98
:1022C00048D01B012E4A602613602E4A66431360D5
:1022D000FEF7E0FC264F0500BE19B072FF283BD088
:1022E000FEF7BAFD2849002C00D028492800FEF747
:1022F0003FFD2800FEF7A4FD1121002C00D0023183
:102300002800FEF7B3FDFEF7C5FC60236343FF180A
:102310000500F872FF2812D0FEF79EFD1C49002C24
:1023200000D01C492800FEF723FD2800FEF788FD99
:102330001021002C00D002312800FEF797FD20006C
:1023400005B0F0BD022537E7032535E7C0034FE7A9
:10235000114A6AE7DB00B5E7FEF72EFDB572EEE73E
:102360005021042800D151E752E7C046FC37000055
:10237000A8FDFF1F34800440006CDC02DC37000045
:1023800080E200E000E100E0DB250000D125000054
:102390008B2600008126000000366E01602210B5F9
:1023A0000479094B62439B181B7B002B02D1FFF77A
:1023B0004FFC10BD012B04D001002000FFF7BCFD35
:1023C000F7E7FFF7D9FDF4E7A8FDFF1F602210B57E
:1023D000847A094B62439B181B7B002B02D1FFF7C9
:1023E00037FC10BD012B04D001002000FFF7A4FD35
:1023F000F7E7FFF715FEF4E7A8FDFF1FF8B50400A7
:1024000001286FD860234343374EF3181A7B002A04
:1024100068D00022354D81004959987ACA701A73E4
:102420008A70FF2801D0FEF7C7FC60236343F318CE
:10243000D87AFF2801D0FEF7BFFC8023002C4FD0B4
:102440001B012B4A136060236343F758002F0CD005
:10245000B87AFF2802D00121FEF7E0FA3800FFF732
:10246000F7FB602300226343F25060236343F318B9
:102470005A7B20499200AA181089527AC005400F51
:1024800080009206D20E405892008018002202600E
:10249000987BDB7B80002818868A407DF605760FC6
:1024A000B6008006C00E7658800030180260FF2B00
:1024B0000ED09B00ED182B00A88C2433C0055B7850
:1024C000400F80009B06DB0E41589B00CB181A6022
:1024D0002000FFF711FD002804D0FFF7B9FBF7E754
:1024E000DB00AEE7F8BDC046A8FDFF1FFC370000CB
:1024F00080E100E0DC37000010B50A4C237B002BA4
:1025000002D00020FFF77AFF6C342378002B02D032
:102510000120FFF773FF044A044913680B4013605E
:1025200010BDC046A8FDFF1F34800440FFFF3FFFE1
:10253000F7B560264643244B07009B199C7A00930D
:10254000FF2C32D0214B82002000D558FEF7F8FB3B
:1025500000282BD01C4B2000F3581E88FEF7FEFBF2
:10256000103EB6B20136331A20000193FEF760FC2C
:10257000009BDE7AFF2E08D03000FEF7CBFB300048
:10258000FEF756FC3000FEF749FC2422AB78072109
:102590009343AB706B4638009A88FFF757FD2000D5
:1025A000FEF7B8FB2000FEF739FCF7BD2000FEF770
:1025B000BDFB0028F6D02022AB7820009343AB70FF
:1025C000FEF73AFCEBE7C046A8FDFF1FFC37000012
:1025D00010B50120FFF7ACFF10BD10B50020FFF7CC
:1025E000A7FF10BD60234343F0B5234A85B0D5183B
:1025F000EC7A0600FF2C35D09B58204980004158CA
:102600001B88200001910293FEF7A8FB0390200095
:10261000FEF796FB07002000002F25D0FEF708FCF0
:10262000AD7A0727FF2D08D02800FEF773FB28009E
:10263000FEF7F4FB2800FEF7FBFB2422019B2000A1
:102640009B789343019A9370FEF764FB2000FEF79A
:10265000E5FB029A039B103AD21A92B2390030007D
:10266000FFF7F4FC05B0F0BDFEF760FB0028F9D0E1
:102670002000FEF7E1FBE0E7A8FDFF1FFC370000AC
:1026800010B50120FFF7AEFF10BD10B50020FFF719
:10269000A9FF10BD10B50020FFF716FD10BD10B545
:1026A0000120FFF711FD10BD0223F0B50B4A0C4EBF
:1026B00014780F042343DB00F51868605078050098
:1026C000691E8D418821AD0139432943F150012311
:1026D0005C40434014705370F0BDC04668FEFF1F5D
:1026E00000F8FF1FF7B51C4843880093009A8388C1
:1026F000D21A92B2111C402A00D9402184680622C5
:10270000A44666468579154F2A43D200BC18F618B0
:102710006660047B89B22600701E8641B00101907C
:1027200088200E043043019E5B183043B850009956
:10273000094A9BB29380994205D86146AB00D318F1
:1027400019610023936001235D405C40137E957105
:10275000013314731376F7BD68FEFF1F00F8FF1FE7
:10276000084B00205A7E997E914208D00132D2B2A5
:10277000272A05D85A765A7E92009B18D869704746
:102780000022F7E768FEFF1F10B5114B3C331B78A2
:10279000022B10D10F4A137E012B10D9937E0133E7
:1027A000DBB2272B00D90023517E994204D0990037
:1027B0005118C861937610BDFFF74AFAFBE703880A
:1027C0009060538000239380FFF78CFFF3E7C046AF
:1027D000E8FEFF1F68FEFF1F10B5FFF7C1FF0028CE
:1027E00002D0FFF735FAF8E710BDF7B5002507006E
:1027F0000D202E4B2E4C4033636040332D4E2E4A1D
:10280000E3602E492E4B22603570A3607570256100
:102810006561A561E561087030692562B571A562E1
:10282000357325636562E5626563E563A5630092C0
:102830000193A84202D0FFF70BFA356170690028B6
:1028400003D0FFF705FA00237361B068002803D0B6
:10285000FFF7FEF90023B36000253576FFF7BCFFD4
:102860000523012F00D02B00164A1370164A0023AF
:10287000110040310B70110044326264009A413102
:102880002264124A0B700432E264019A6365A26406
:10289000E36523650922A365012F00D01A000C4BC4
:1028A0001A7001220B4B1A70F7BDC046E8FEFF1FDD
:1028B00000F8FF1F68FEFF1F88004000C02007408F
:1028C000C8004000C420074068FFFF1FE8FFFF1F4B
:1028D000C820074064000020F7B58408894FE40051
:1028E000E3599B061B0F092B00D1D9E00D2B04D017
:1028F000012B59D1844BE35156E0844D3B192E00F6
:10290000683659680822300000F08AFE7E4B804A03
:10291000E35100243C61BC6101277E4B5F7033882A
:10292000934213D8013A93424CD2822B00D16CE0EF
:1029300006D8802B00D362E00F22774B1A7030E06C
:10294000A022D2009342F7D1270010E0902212017A
:10295000934200D178E028D8803A9342ECD12B0002
:1029600070331A782B0044333C001F001A702B0080
:102970006833DB881E1CA34200D9261CB4B2402C4D
:1029800000D94026B6B238003100A41BFFF78CFEF8
:10299000A4B2BB190193271E00D06CE0402E00D1D9
:1029A0006CE001225D4B1A70F7BD5D4A9B18012B4C
:1029B000C2D8B3885B4F042B1DD0052BC4D1594F0F
:1029C000283718E07288584B9A4203D1574BB18888
:1029D00099420ED02B0068339988554B5F68002FC1
:1029E000AAD01888904208D15888884205D11C7A0C
:1029F000BDE72F004C373C78B9E70C33EEE72F00EA
:102A000044373C707C700224B1E77F22B3881340C6
:102A1000484A3C321278022A12D0002B00D08BE7B1
:102A20002F00002102243C4A44379B0039709B1838
:102A300079701B78234200D199E701233B7096E718
:102A4000032B00D978E7EBE77388012B00D973E7F4
:102A50002A00D8B2703210705A1E9341354A0133A1
:102A60003C321370FFF7C1FE2A4B6C675F702B007E
:102A700078331C8068E7402C00D94027BEB2A41BE5
:102A800031000198A4B2FFF70FFE002C02D1402FB5
:102A900000D086E7019BDF196F6778352C8080E7CF
:102AA0001A4D6E6F002E17D02B0078331C8827002C
:102AB000402C00D940273000B9B2FFF7F5FDBBB27A
:102AC000E41A2B00A4B27833F6191C80002C02D132
:102AD000402F00D026006E672B00A0226833198893
:102AE000D200914200D05FE75A88134BD1B21970DF
:102AF000002A02D10F4B3C331A70002368352B801B
:102B000052E7C04600F8FF1FC8004000E8FFFF1F63
:102B10008106000068FEFF1FC02007409420074088
:102B200040DDFFFF10FAFF1F03030000090400004F
:102B3000D0380000E8FEFF1F98200740094B002016
:102B40003C331B78022B0BD1074B40331A780823F8
:102B50001343064ADB009958090601D4D318586874
:102B60007047C046E8FEFF1F68FFFF1F00F8FF1F09
:102B70000A4B3C331B78022B0DD1094B40331A789A
:102B800008231343074ADB009958090603D49858D1
:102B90008001800D704701204042FBE7E8FEFF1FE7
:102BA00068FFFF1F00F8FF1F0D4B30B51A0019001A
:102BB00040321078082241310978024300290CD1B3
:102BC000084C094DD20054511C000122413451409F
:102BD0004033424021701A7030BD044CF1E7C046CA
:102BE00068FFFF1F8800400000F8FF1FC80040007A
:102BF000254A30B5150003234C356B700023C45CA7
:102C0000591C002C38D180234C32490011701F4AC6
:102C1000DB0211680B43136080221D4B1A701A7877
:102C200052B2002AFBDB1B4A1B48110AC9B20170D1
:102C3000110C1A48C9B201701949120E0A70FF220C
:102C400018490A7018490A7018490A701978BF3A69
:102C50000A431A7001230021154A1370154A117096
:102C6000154A13708023154A5B041360144A1360DD
:102C70001022144B1A7030BD5B00EB18A4B29C708C
:102C80000024DC70CBB2BAE7E8FFFF1F34800440B9
:102C90000C21074000F8FF1F9C200740B020074090
:102CA000B4200740802007408820074010200740BC
:102CB00094200740002107408420074080E200E084
:102CC00000E100E008210740F7B50422394E3378CF
:102CD0003400DBB2134200D0327008251D403BD0D7
:102CE000354B1878C0B2040904D1FFF7F5FD08236D
:102CF0003370EAE7012C28D18008304FC3000193DC
:102D0000DB599B061B0F092BF1D104402C4DA4006D
:102D10002C192069002803D0FEF79AFF00232361B5
:102D2000019BAC68FF1800237B602B7E013B2B7658
:102D3000002C07D1FFF714FD0028D8D00388A86025
:102D40006B80AC80FFF7CEFCD1E7022CCFD180089E
:102D50001A4BC000C358CAE70126334214D00223DD
:102D6000184F28003A7813433B70FFF73EFDFF23CE
:102D7000154A1370154A23701570154A13709F2257
:102D8000144B1A703E70F7BD5AB2002A04DA0D21B6
:102D9000114A11708022227002210B4204D00A488D
:102DA0000278D2B20270217010221342EBD022704E
:102DB000E9E7C046802007409020074000F8FF1F49
:102DC00068FEFF1F94200740882007409820074096
:102DD0008C20074084200740C020074030B50024E5
:102DE0000139A14201DC88B230BD0D19EB0F5B192E
:102DF0005B109D0045196D88954201D25C1CF0E77F
:102E00001900EEE770B50F25074C002A00D170BD00
:102E1000013A92B28B5C1E092B40A65DE35C067002
:102E200043700230F1E7C0463039000010B5FDF7BD
:102E30003BFDFDF7E7FEFDF773FCFFF74DF8FEF7EE
:102E400095FCFFF759FBFFF7C7FC10BDF8B507006D
:102E500010200E0015001C00FEF7CAFE00280BD043
:102E6000102303800E3B8370069B07818680C580FC
:102E70004481C360FFF788FCF8BDF0B585B00293CC
:102E80000AAB1B88070003930DAB1E880091350029
:102E90001035ADB228000192FEF7AAFE041E1BD029
:102EA000042383706B461B78058003726B461B7A84
:102EB000878043726B469B8943810B9BC3606B4643
:102EC0009B88C380002E04D032000C99103000F093
:102ED000A7FB2000FFF758FC05B0F0BD1FB51C0094
:102EE00000230194039302930093FFF7C6FF1FBDD5
:102EF00037B50B780500002B02D000230B7037BDCF
:102F000003681888FEF774FE2968041E04D00A8836
:102F100000F086FB2C60F2E78B78CA888888012B4A
:102F200006D10100009423000220FFF78FFFF1E794
:102F300002230521FFF7D2FFECE7F0B50B2787B09E
:102F400002ABFF18397083780400012B00D0BFE07A
:102F500003880025142B29D1037A012B53D1467AFB
:102F6000012E18D1FE22018A037B0A40807A31406B
:102F7000FDF76EFD80235B000343228A9BB203931F
:102F8000324202D1FDF7FAFD85B20020E2880090BE
:102F90002B00039988E0022E0DD18289018A807A64
:102FA000FDF79CFA8023FF280FD101250023E2883A
:102FB000A188009377E0032E0CD10C23C15E807AA8
:102FC000FEF748FFFF28F0D0C0239B00184383B2D0
:102FD0000393DAE7042E09D1018AE268807AFEF7CA
:102FE00088FAFF28E1D08023DB00EFE7052EDCD153
:102FF000028A418AE3684089FFF78FF8FF28D4D01E
:1030000080231B01E2E7022B2AD18088FD330200D6
:103010009A4301339A4203D1C0B2FDF7D9FCC5E708
:1030200080239B009A4203D1C0B2FDF793FABDE71B
:10303000C0239B009A4203D1C0B2FEF731FFB5E72F
:103040008023DB009A4203D1C0B2FEF70FFBADE74D
:1030500080231B019A42A8D1C0B2FFF7CFF9A5E7A0
:10306000032B02D1FFF7E2FEA0E7042B10D1437A35
:10307000012B05D1028AE168807AFEF7ABFE95E765
:10308000022B92D1028A017B807AFEF71DFE8DE72A
:10309000052B8AD1437A012B09D1FEF7FBFD0023D2
:1030A000E288A18800902800FFF7D0FE27E0022BDD
:1030B00002D1FEF7FBFDF2E7032B04D0042B05D071
:1030C00000200125EBE701200025E8E75020FBE781
:1030D000032B14D1038805900F2B10D98088FF2172
:1030E0000300227A8B43012A27D1521893421BD125
:1030F0006389002B0BD1217BC0B2FDF78FFC3B789D
:10310000002B02D02000FEF7A3FD07B0F0BD802207
:103110008B4312019342F2D105A83900FFF7E8FE74
:103120000598FFF753F9EAE7C02292009342E6D1EF
:10313000C0B2E168FEF7E2FDE1E7022A15D1FE32F6
:1031400093420AD1C0B2FDF719FD05990300CA8860
:1031500088880121FFF7C2FED1E7802292009342C6
:10316000CDD1C0B2FDF72AFAC9E7032A17D18022D0
:10317000D200934207D105A83900FFF7B9FE0598A0
:10318000FEF7FCFABBE7802212019342B7D105A8F3
:103190003900FFF7ADFE0598FFF700F9AFE7042A05
:1031A00007D18022D2009342A9D12000FEF7FEFA77
:1031B000A5E7052A04D18022D20093429FD1DAE705
:1031C000062A9CD18022D200934298D105A83900CA
:1031D000FFF78EFE0598FEF721FC90E7F0B53D4C19
:1031E00085B02378002B05D00023237072B6FFF73B
:1031F0001DFE62B6FFF7BCFC0600051E52DD72B66E
:10320000FFF79CFC63880700002B3CD0012B0CD1FE
:103210000078A3880002C01880B2A080FEF7E8FC06
:10322000A060002801D0A38803806388B5B2019311
:10323000A3880393019B039A9B192E00934203DDFD
:103240001300019A9E1AB6B2A3680293002B05D010
:10325000019A39009818320000F0E2F9019BAD1B89
:10326000BF19F618039BB6B22DB26680B3420AD1DD
:10327000029B002B03D001211800FFF75EFE002304
:103280006380A380A360012D04DC08D13B786580B6
:10329000A38004E03E88B5420EDB072E04D8FFF77A
:1032A00083FC62B605B0F0BD38000021AD1BFFF70E
:1032B00044FEBF192DB2E6E73000A680FEF798FC69
:1032C0006580A0600028EAD02A00390000F0A8F943
:1032D000E5E7C0466400002010B5FDF747FA10BDD1
:1032E000002243088B4274D303098B425FD3030A45
:1032F0008B4244D3030B8B4228D3030C8B420DD358
:10330000FF22090212BA030C8B4202D312120902E5
:1033100065D0030B8B4219D300E0090AC30B8B4223
:1033200001D3CB03C01A5241830B8B4201D38B03D1
:10333000C01A5241430B8B4201D34B03C01A524176
:10334000030B8B4201D30B03C01A5241C30A8B42B9
:1033500001D3CB02C01A5241830A8B4201D38B02A4
:10336000C01A5241430A8B4201D34B02C01A524148
:10337000030A8B4201D30B02C01A5241CDD2C309BA
:103380008B4201D3CB01C01A524183098B4201D336
:103390008B01C01A524143098B4201D34B01C01A21
:1033A000524103098B4201D30B01C01A5241C30899
:1033B0008B4201D3CB00C01A524183088B4201D308
:1033C0008B00C01A524143088B4201D34B00C01AF4
:1033D0005241411A00D20146524110467047FFE760
:1033E00001B5002000F0F0F802BDC0460029F7D07A
:1033F00076E7704703460B437FD4002243088B4295
:1034000074D303098B425FD3030A8B4244D3030B6B
:103410008B4228D3030C8B420DD3FF22090212BA30
:10342000030C8B4202D31212090265D0030B8B42AC
:1034300019D300E0090AC30B8B4201D3CB03C01A96
:103440005241830B8B4201D38B03C01A5241430B71
:103450008B4201D34B03C01A5241030B8B4201D361
:103460000B03C01A5241C30A8B4201D3CB02C01ACC
:103470005241830A8B4201D38B02C01A5241430A44
:103480008B4201D34B02C01A5241030A8B4201D333
:103490000B02C01A5241CDD2C3098B4201D3CB01DA
:1034A000C01A524183098B4201D38B01C01A524189
:1034B00043098B4201D34B01C01A524103098B428D
:1034C00001D30B01C01A5241C3088B4201D3CB0078
:1034D000C01A524183088B4201D38B00C01A52415B
:1034E00043088B4201D34B00C01A5241411A00D20B
:1034F00001465241104670475DE0CA0F00D0494274
:10350000031000D34042534000229C4603098B42E3
:103510002DD3030A8B4212D3FC22890112BA030A6B
:103520008B420CD3890192118B4208D389019211ED
:103530008B4204D389013AD0921100E08909C30972
:103540008B4201D3CB01C01A524183098B4201D374
:103550008B01C01A524143098B4201D34B01C01A5F
:10356000524103098B4201D30B01C01A5241C308D7
:103570008B4201D3CB00C01A524183088B4201D346
:103580008B00C01A5241D9D243088B4201D34B0061
:10359000C01A5241411A00D20146634652415B10A3
:1035A000104601D34042002B00D549427047634684
:1035B0005B1000D3404201B5002000F005F802BDC9
:1035C0000029F8D016E770477047C046014B1868CD
:1035D0007047C0464CFBFF1F70B500260C4D0D4CCC
:1035E000641BA410A64209D1002600F0A9F90A4DD7
:1035F0000A4C641BA410A64205D170BDB300EB5861
:1036000098470136EEE7B300EB5898470136F2E7EA
:103610004C3900004C3900004C3900005039000092
:10362000002310B59A4200D110BDCC5CC4540133C4
:10363000F8E703008218934200D1704719700133F4
:10364000F9E7FFFF10B5034B0100186800F004F81C
:1036500010BDC0464CFBFF1F002370B5064C050093
:1036600008002360FEF71BFA431C03D12368002BDC
:1036700000D02B6070BDC046700000208189030817
:10368000103B23131B1A22323A2A0B02010919118B
:103690002B330A12A4ACF4FF006006400070064011
:1036A0004840900048C490009182900000001500AE
:1036B000010017000200190003001B0008001D0094
:1036C00005001F0009002100060023000A00260053
:1036D00007002A000C002E000D00320043003600C7
:1036E0000E003A0045003E00120042000F00460066
:1036F00013004C001400540015005C001900640015
:1037000016006C001A00740085007C00170084000D
:103710004F008C001C0098001D00A8005500B80048
:103720001E00C8005600D8002200E8001F00F80064
:10373000230008018F0018012400300125005001EA
:1037400095007001260090019600B0012A00D0017A
:103750002700F0012B001F022C005F022D00BD028C
:103760002E003E0332009F032F00DF0333003E0490
:103770003400BE0435007A0536007B063A003F0768
:103780003700BF073B007C083C007D093D00F40A80
:103790003E00F60C7A007E0E3F007E0F7B00F81094
:1037A0007C00F9127D00E9157E00EC19BA00FC1CC2
:1037B0007F00FC1EBB00F121BC00F325BD00D12B16
:1037C000BE00AA35BF00000000F00F4040F00F40DF
:1037D00080F00F40C0F00F4000F10F400090044017
:1037E00000A0044000B0044000C0044000D00440E9
:1037F000008003400090034000A0034000600740A9
:10380000007007408D8A0000CE820000D48A02003A
:103810008B8C0000C784000040A00200D58C020001
:103820008C8E0000C886000041A20200C58E0200F6
:10383000000003000100050020000700020009004D
:1038400040000B0021000D0060000F00030012007B
:103850004100160022001A0061001E00040024002E
:1038600042002C002300340062003C0005004800A8
:1038700043005800240068006300780006008F00B1
:103880004400AF002500CF006400EF0007001E01D8
:1038900045005F0126009F016500DF0108003C0232
:1038A0004600BD0227003E036600BE0318007904EF
:1038B00047007A0528007B0667007C073800F2087D
:1038C0004800F40A5800F60C6800F70E7800000073
:1038D000000100003AFBFF1F120000000002000080
:1038E0001AFBFF1F20000000010200001AFBFF1F4F
:1038F000200000000003000016FBFF1F0400000072
:1039000001030904EAFAFF1F2C0000000203090466
:10391000D8FAFF1F12000000EE030000C6FAFF1FD6
:103920001200000000000000000000000000000085
:103930003031323334353637383961626364656625
:10394000F8B5C046F8BC08BC9E4670473904000074
:04395000F8B5C046C0
:103954002C007000400048006800600034003C0007
:103964007800580000002000B800E800D000F00003
:10397400D800FE0074000020081303001033040074
:10398400238406001A44090022640A00010B100073
:10399400092B11002BA414000A041600122417008A
:1039A40028000000000104000100000000000000E5
:1039B400000157494E55534200000000000000002A
:1039C40000000000000000008E000000000105005F
:1039D400010084000000010000002800440065008C
:1039E400760069006300650049006E00740065009C
:1039F40072006600610063006500470055004900DD
:103A0400440000004E0000007B00640030003100E0
:103A1400300062006100390030002D0030003200B7
:103A2400350061002D0034006300390034002D009E
:103A340062003200640062002D0061003100330036
:103A44006600320030003500640034003300370073
:103A540065007D00000012034D0053004600540031
:103A64003100300030002200120357006900720058
:103A740065006B006900740065002C034D00610053
:103A84006E00750065006C00200042006C0065004B
:103A940069006300680065006E00620061006300F5
:103AA4006800650072000403090409022000010192
:103AB4000080FA0904000002FF00000007058102EB
:103AC4004000000705020240000012010002FF004E
:103AD400004009127E3150000102030150FBFF1F18
:103AE40000000000000000000000000000000000D2
:103AF40000000000000000000000000000000000C2
:103B040000000000000000000000000000000000B1
:103B140000000000000000000000000000000000A1
:103B24000000000000000000000000000000000091
:103B34000000000000000000000000000000000081
:00000001FF
